{
  "contractName": "CleverNFT",
  "abi": [
    {
      "inputs": [
        {
          "internalType": "address",
          "name": "marketplaceAddress_",
          "type": "address"
        }
      ],
      "stateMutability": "nonpayable",
      "type": "constructor"
    },
    {
      "anonymous": false,
      "inputs": [
        {
          "indexed": true,
          "internalType": "address",
          "name": "owner",
          "type": "address"
        },
        {
          "indexed": true,
          "internalType": "address",
          "name": "approved",
          "type": "address"
        },
        {
          "indexed": true,
          "internalType": "uint256",
          "name": "tokenId",
          "type": "uint256"
        }
      ],
      "name": "Approval",
      "type": "event"
    },
    {
      "anonymous": false,
      "inputs": [
        {
          "indexed": true,
          "internalType": "address",
          "name": "owner",
          "type": "address"
        },
        {
          "indexed": true,
          "internalType": "address",
          "name": "operator",
          "type": "address"
        },
        {
          "indexed": false,
          "internalType": "bool",
          "name": "approved",
          "type": "bool"
        }
      ],
      "name": "ApprovalForAll",
      "type": "event"
    },
    {
      "anonymous": false,
      "inputs": [
        {
          "indexed": true,
          "internalType": "address",
          "name": "previousOwner",
          "type": "address"
        },
        {
          "indexed": true,
          "internalType": "address",
          "name": "newOwner",
          "type": "address"
        }
      ],
      "name": "OwnershipTransferred",
      "type": "event"
    },
    {
      "anonymous": false,
      "inputs": [
        {
          "indexed": true,
          "internalType": "address",
          "name": "from",
          "type": "address"
        },
        {
          "indexed": true,
          "internalType": "address",
          "name": "to",
          "type": "address"
        },
        {
          "indexed": true,
          "internalType": "uint256",
          "name": "tokenId",
          "type": "uint256"
        }
      ],
      "name": "Transfer",
      "type": "event"
    },
    {
      "inputs": [
        {
          "internalType": "address",
          "name": "to",
          "type": "address"
        },
        {
          "internalType": "uint256",
          "name": "tokenId",
          "type": "uint256"
        }
      ],
      "name": "approve",
      "outputs": [],
      "stateMutability": "nonpayable",
      "type": "function"
    },
    {
      "inputs": [
        {
          "internalType": "address",
          "name": "owner",
          "type": "address"
        }
      ],
      "name": "balanceOf",
      "outputs": [
        {
          "internalType": "uint256",
          "name": "",
          "type": "uint256"
        }
      ],
      "stateMutability": "view",
      "type": "function",
      "constant": true
    },
    {
      "inputs": [
        {
          "internalType": "uint256",
          "name": "tokenId",
          "type": "uint256"
        }
      ],
      "name": "getApproved",
      "outputs": [
        {
          "internalType": "address",
          "name": "",
          "type": "address"
        }
      ],
      "stateMutability": "view",
      "type": "function",
      "constant": true
    },
    {
      "inputs": [
        {
          "internalType": "address",
          "name": "owner",
          "type": "address"
        },
        {
          "internalType": "address",
          "name": "operator",
          "type": "address"
        }
      ],
      "name": "isApprovedForAll",
      "outputs": [
        {
          "internalType": "bool",
          "name": "",
          "type": "bool"
        }
      ],
      "stateMutability": "view",
      "type": "function",
      "constant": true
    },
    {
      "inputs": [],
      "name": "marketplaceAddress",
      "outputs": [
        {
          "internalType": "address",
          "name": "",
          "type": "address"
        }
      ],
      "stateMutability": "view",
      "type": "function",
      "constant": true
    },
    {
      "inputs": [],
      "name": "name",
      "outputs": [
        {
          "internalType": "string",
          "name": "",
          "type": "string"
        }
      ],
      "stateMutability": "view",
      "type": "function",
      "constant": true
    },
    {
      "inputs": [],
      "name": "owner",
      "outputs": [
        {
          "internalType": "address",
          "name": "",
          "type": "address"
        }
      ],
      "stateMutability": "view",
      "type": "function",
      "constant": true
    },
    {
      "inputs": [
        {
          "internalType": "uint256",
          "name": "tokenId",
          "type": "uint256"
        }
      ],
      "name": "ownerOf",
      "outputs": [
        {
          "internalType": "address",
          "name": "",
          "type": "address"
        }
      ],
      "stateMutability": "view",
      "type": "function",
      "constant": true
    },
    {
      "inputs": [],
      "name": "renounceOwnership",
      "outputs": [],
      "stateMutability": "nonpayable",
      "type": "function"
    },
    {
      "inputs": [
        {
          "internalType": "address",
          "name": "from",
          "type": "address"
        },
        {
          "internalType": "address",
          "name": "to",
          "type": "address"
        },
        {
          "internalType": "uint256",
          "name": "tokenId",
          "type": "uint256"
        }
      ],
      "name": "safeTransferFrom",
      "outputs": [],
      "stateMutability": "nonpayable",
      "type": "function"
    },
    {
      "inputs": [
        {
          "internalType": "address",
          "name": "from",
          "type": "address"
        },
        {
          "internalType": "address",
          "name": "to",
          "type": "address"
        },
        {
          "internalType": "uint256",
          "name": "tokenId",
          "type": "uint256"
        },
        {
          "internalType": "bytes",
          "name": "_data",
          "type": "bytes"
        }
      ],
      "name": "safeTransferFrom",
      "outputs": [],
      "stateMutability": "nonpayable",
      "type": "function"
    },
    {
      "inputs": [
        {
          "internalType": "address",
          "name": "operator",
          "type": "address"
        },
        {
          "internalType": "bool",
          "name": "approved",
          "type": "bool"
        }
      ],
      "name": "setApprovalForAll",
      "outputs": [],
      "stateMutability": "nonpayable",
      "type": "function"
    },
    {
      "inputs": [],
      "name": "symbol",
      "outputs": [
        {
          "internalType": "string",
          "name": "",
          "type": "string"
        }
      ],
      "stateMutability": "view",
      "type": "function",
      "constant": true
    },
    {
      "inputs": [
        {
          "internalType": "uint256",
          "name": "index",
          "type": "uint256"
        }
      ],
      "name": "tokenByIndex",
      "outputs": [
        {
          "internalType": "uint256",
          "name": "",
          "type": "uint256"
        }
      ],
      "stateMutability": "view",
      "type": "function",
      "constant": true
    },
    {
      "inputs": [
        {
          "internalType": "address",
          "name": "owner",
          "type": "address"
        },
        {
          "internalType": "uint256",
          "name": "index",
          "type": "uint256"
        }
      ],
      "name": "tokenOfOwnerByIndex",
      "outputs": [
        {
          "internalType": "uint256",
          "name": "",
          "type": "uint256"
        }
      ],
      "stateMutability": "view",
      "type": "function",
      "constant": true
    },
    {
      "inputs": [],
      "name": "totalSupply",
      "outputs": [
        {
          "internalType": "uint256",
          "name": "",
          "type": "uint256"
        }
      ],
      "stateMutability": "view",
      "type": "function",
      "constant": true
    },
    {
      "inputs": [
        {
          "internalType": "address",
          "name": "newOwner",
          "type": "address"
        }
      ],
      "name": "transferOwnership",
      "outputs": [],
      "stateMutability": "nonpayable",
      "type": "function"
    },
    {
      "inputs": [
        {
          "internalType": "address",
          "name": "patchUser",
          "type": "address"
        },
        {
          "internalType": "string",
          "name": "metaDataURI",
          "type": "string"
        }
      ],
      "name": "mint",
      "outputs": [
        {
          "internalType": "uint256",
          "name": "",
          "type": "uint256"
        }
      ],
      "stateMutability": "nonpayable",
      "type": "function"
    },
    {
      "inputs": [
        {
          "internalType": "uint256",
          "name": "tokenId",
          "type": "uint256"
        }
      ],
      "name": "tokenURI",
      "outputs": [
        {
          "internalType": "string",
          "name": "",
          "type": "string"
        }
      ],
      "stateMutability": "view",
      "type": "function",
      "constant": true
    },
    {
      "inputs": [
        {
          "internalType": "bytes4",
          "name": "interfaceId",
          "type": "bytes4"
        }
      ],
      "name": "supportsInterface",
      "outputs": [
        {
          "internalType": "bool",
          "name": "",
          "type": "bool"
        }
      ],
      "stateMutability": "view",
      "type": "function",
      "constant": true
    },
    {
      "inputs": [
        {
          "internalType": "address",
          "name": "to",
          "type": "address"
        },
        {
          "internalType": "uint256",
          "name": "tokenId",
          "type": "uint256"
        }
      ],
      "name": "safeMint",
      "outputs": [],
      "stateMutability": "nonpayable",
      "type": "function"
    },
    {
      "inputs": [
        {
          "internalType": "address",
          "name": "from",
          "type": "address"
        },
        {
          "internalType": "address",
          "name": "to",
          "type": "address"
        },
        {
          "internalType": "uint256",
          "name": "tokenId",
          "type": "uint256"
        }
      ],
      "name": "transferFrom",
      "outputs": [],
      "stateMutability": "nonpayable",
      "type": "function"
    }
  ],
  "bytecode": "0x60806040523480156200001157600080fd5b5060405162001f2b38038062001f2b8339810160408190526200003491620001cd565b60408051808201825260098082526810db195d995c93919560ba1b602080840182815285518087019096529285528401528151919291620000789160009162000127565b5080516200008e90600190602084019062000127565b505050620000ab620000a5620000d160201b60201c565b620000d5565b600d80546001600160a01b0319166001600160a01b03929092169190911790556200023c565b3390565b600b80546001600160a01b038381166001600160a01b0319831681179093556040519116919082907f8be0079c531659141344cd1fd0a4f28419497f9722a3daafe3b4186f6b6457e090600090a35050565b8280546200013590620001ff565b90600052602060002090601f016020900481019282620001595760008555620001a4565b82601f106200017457805160ff1916838001178555620001a4565b82800160010185558215620001a4579182015b82811115620001a457825182559160200191906001019062000187565b50620001b2929150620001b6565b5090565b5b80821115620001b25760008155600101620001b7565b600060208284031215620001e057600080fd5b81516001600160a01b0381168114620001f857600080fd5b9392505050565b600181811c908216806200021457607f821691505b602082108114156200023657634e487b7160e01b600052602260045260246000fd5b50919050565b611cdf806200024c6000396000f3fe608060405234801561001057600080fd5b50600436106101125760003560e01c806301ffc9a71461011757806306fdde031461013f578063081812fc14610154578063095ea7b31461017f57806318160ddd1461019457806323b872dd146101a65780632f745c59146101b957806342842e0e146101cc5780634f6ccce7146101df5780636352211e146101f257806370a0823114610205578063715018a6146102185780638da5cb5b1461022057806395d89b4114610228578063a144819414610230578063a22cb46514610243578063b88d4fde14610256578063c87b56dd14610269578063d0def5211461027c578063daa17f491461028f578063e985e9c5146102a2578063f2fde38b146102b5575b600080fd5b61012a6101253660046119a7565b6102c8565b60405190151581526020015b60405180910390f35b6101476102d9565b6040516101369190611a92565b6101676101623660046119e1565b61036b565b6040516001600160a01b039091168152602001610136565b61019261018d36600461197d565b6103f8565b005b6009545b604051908152602001610136565b6101926101b4366004611829565b610509565b6101986101c736600461197d565b610514565b6101926101da366004611829565b6105aa565b6101986101ed3660046119e1565b6105c5565b6101676102003660046119e1565b610658565b6101986102133660046117db565b6106cf565b610192610756565b610167610791565b6101476107a0565b61019261023e36600461197d565b6107af565b6101926102513660046118e0565b6107bd565b610192610264366004611865565b6107c8565b6101476102773660046119e1565b61084a565b61019861028a36600461191c565b610855565b600d54610167906001600160a01b031681565b61012a6102b03660046117f6565b61088d565b6101926102c33660046117db565b6108bb565b60006102d38261095b565b92915050565b6060600080546102e890611b9b565b80601f016020809104026020016040519081016040528092919081815260200182805461031490611b9b565b80156103615780601f1061033657610100808354040283529160200191610361565b820191906000526020600020905b81548152906001019060200180831161034457829003601f168201915b5050505050905090565b600061037682610980565b6103dc5760405162461bcd60e51b815260206004820152602c60248201527f4552433732313a20617070726f76656420717565727920666f72206e6f6e657860448201526b34b9ba32b73a103a37b5b2b760a11b60648201526084015b60405180910390fd5b506000908152600460205260409020546001600160a01b031690565b600061040382610658565b9050806001600160a01b0316836001600160a01b031614156104715760405162461bcd60e51b815260206004820152602160248201527f4552433732313a20617070726f76616c20746f2063757272656e74206f776e656044820152603960f91b60648201526084016103d3565b336001600160a01b038216148061048d575061048d813361088d565b6104fa5760405162461bcd60e51b815260206004820152603860248201527f4552433732313a20617070726f76652063616c6c6572206973206e6f74206f776044820152771b995c881b9bdc88185c1c1c9bdd995908199bdc88185b1b60421b60648201526084016103d3565b610504838361099d565b505050565b610504838383610a0b565b600061051f836106cf565b82106105815760405162461bcd60e51b815260206004820152602b60248201527f455243373231456e756d657261626c653a206f776e657220696e646578206f7560448201526a74206f6620626f756e647360a81b60648201526084016103d3565b506001600160a01b03919091166000908152600760209081526040808320938352929052205490565b610504838383604051806020016040528060008152506107c8565b60006105d060095490565b82106106335760405162461bcd60e51b815260206004820152602c60248201527f455243373231456e756d657261626c653a20676c6f62616c20696e646578206f60448201526b7574206f6620626f756e647360a01b60648201526084016103d3565b6009828154811061064657610646611c47565b90600052602060002001549050919050565b6000818152600260205260408120546001600160a01b0316806102d35760405162461bcd60e51b815260206004820152602960248201527f4552433732313a206f776e657220717565727920666f72206e6f6e657869737460448201526832b73a103a37b5b2b760b91b60648201526084016103d3565b60006001600160a01b03821661073a5760405162461bcd60e51b815260206004820152602a60248201527f4552433732313a2062616c616e636520717565727920666f7220746865207a65604482015269726f206164647265737360b01b60648201526084016103d3565b506001600160a01b031660009081526003602052604090205490565b3361075f610791565b6001600160a01b0316146107855760405162461bcd60e51b81526004016103d390611af7565b61078f6000610ba0565b565b600b546001600160a01b031690565b6060600180546102e890611b9b565b6107b98282610bf2565b5050565b6107b9338383610c0c565b6107d23383610cd7565b6108385760405162461bcd60e51b815260206004820152603160248201527f4552433732313a207472616e736665722063616c6c6572206973206e6f74206f6044820152701ddb995c881b9bdc88185c1c1c9bdd9959607a1b60648201526084016103d3565b61084484848484610da1565b50505050565b60606102d382610dd4565b6000610865600c80546001019055565b6000610870600c5490565b905061087c8482610f43565b610886818461106f565b9392505050565b6001600160a01b03918216600090815260056020908152604080832093909416825291909152205460ff1690565b336108c4610791565b6001600160a01b0316146108ea5760405162461bcd60e51b81526004016103d390611af7565b6001600160a01b03811661094f5760405162461bcd60e51b815260206004820152602660248201527f4f776e61626c653a206e6577206f776e657220697320746865207a65726f206160448201526564647265737360d01b60648201526084016103d3565b61095881610ba0565b50565b60006001600160e01b0319821663780e9d6360e01b14806102d357506102d3826110fa565b6000908152600260205260409020546001600160a01b0316151590565b600081815260046020526040902080546001600160a01b0319166001600160a01b03841690811790915581906109d282610658565b6001600160a01b03167f8c5be1e5ebec7d5bd14f71427d1e84f3dd0314c0f7b2291e5b200ac8c7c3b92560405160405180910390a45050565b826001600160a01b0316610a1e82610658565b6001600160a01b031614610a825760405162461bcd60e51b815260206004820152602560248201527f4552433732313a207472616e736665722066726f6d20696e636f72726563742060448201526437bbb732b960d91b60648201526084016103d3565b6001600160a01b038216610ae45760405162461bcd60e51b8152602060048201526024808201527f4552433732313a207472616e7366657220746f20746865207a65726f206164646044820152637265737360e01b60648201526084016103d3565b610aef83838361114a565b610afa60008261099d565b6001600160a01b0383166000908152600360205260408120805460019290610b23908490611b58565b90915550506001600160a01b0382166000908152600360205260408120805460019290610b51908490611b2c565b909155505060008181526002602052604080822080546001600160a01b0319166001600160a01b038681169182179092559151849391871691600080516020611c8a83398151915291a4505050565b600b80546001600160a01b038381166001600160a01b0319831681179093556040519116919082907f8be0079c531659141344cd1fd0a4f28419497f9722a3daafe3b4186f6b6457e090600090a35050565b6107b9828260405180602001604052806000815250611155565b816001600160a01b0316836001600160a01b03161415610c6a5760405162461bcd60e51b815260206004820152601960248201527822a9219b99189d1030b8383937bb32903a379031b0b63632b960391b60448201526064016103d3565b6001600160a01b03838116600081815260056020908152604080832094871680845294825291829020805460ff191686151590811790915591519182527f17307eab39ab6107e8899845ad3d59bd9653f200f220920489ca2b5937696c31910160405180910390a3505050565b6000610ce282610980565b610d435760405162461bcd60e51b815260206004820152602c60248201527f4552433732313a206f70657261746f7220717565727920666f72206e6f6e657860448201526b34b9ba32b73a103a37b5b2b760a11b60648201526084016103d3565b6000610d4e83610658565b9050806001600160a01b0316846001600160a01b03161480610d755750610d75818561088d565b80610d995750836001600160a01b0316610d8e8461036b565b6001600160a01b0316145b949350505050565b610dac848484610a0b565b610db884848484611188565b6108445760405162461bcd60e51b81526004016103d390611aa5565b6060610ddf82610980565b610e455760405162461bcd60e51b815260206004820152603160248201527f45524337323155524953746f726167653a2055524920717565727920666f72206044820152703737b732bc34b9ba32b73a103a37b5b2b760791b60648201526084016103d3565b60008281526006602052604081208054610e5e90611b9b565b80601f0160208091040260200160405190810160405280929190818152602001828054610e8a90611b9b565b8015610ed75780601f10610eac57610100808354040283529160200191610ed7565b820191906000526020600020905b815481529060010190602001808311610eba57829003601f168201915b505050505090506000610ef560408051602081019091526000815290565b9050805160001415610f08575092915050565b815115610f3a578082604051602001610f22929190611a26565b60405160208183030381529060405292505050919050565b610d9984611295565b6001600160a01b038216610f995760405162461bcd60e51b815260206004820181905260248201527f4552433732313a206d696e7420746f20746865207a65726f206164647265737360448201526064016103d3565b610fa281610980565b15610fee5760405162461bcd60e51b815260206004820152601c60248201527b115490cdcc8c4e881d1bdad95b88185b1c9958591e481b5a5b9d195960221b60448201526064016103d3565b610ffa6000838361114a565b6001600160a01b0382166000908152600360205260408120805460019290611023908490611b2c565b909155505060008181526002602052604080822080546001600160a01b0319166001600160a01b0386169081179091559051839290600080516020611c8a833981519152908290a45050565b61107882610980565b6110db5760405162461bcd60e51b815260206004820152602e60248201527f45524337323155524953746f726167653a2055524920736574206f66206e6f6e60448201526d32bc34b9ba32b73a103a37b5b2b760911b60648201526084016103d3565b60008281526006602090815260409091208251610504928401906116b1565b60006001600160e01b031982166380ac58cd60e01b148061112b57506001600160e01b03198216635b5e139f60e01b145b806102d357506301ffc9a760e01b6001600160e01b03198316146102d3565b61050483838361136c565b61115f8383610f43565b61116c6000848484611188565b6105045760405162461bcd60e51b81526004016103d390611aa5565b60006001600160a01b0384163b1561128a57604051630a85bd0160e11b81526001600160a01b0385169063150b7a02906111cc903390899088908890600401611a55565b602060405180830381600087803b1580156111e657600080fd5b505af1925050508015611216575060408051601f3d908101601f19168201909252611213918101906119c4565b60015b611270573d808015611244576040519150601f19603f3d011682016040523d82523d6000602084013e611249565b606091505b5080516112685760405162461bcd60e51b81526004016103d390611aa5565b805181602001fd5b6001600160e01b031916630a85bd0160e11b149050610d99565b506001949350505050565b60606112a082610980565b6113045760405162461bcd60e51b815260206004820152602f60248201527f4552433732314d657461646174613a2055524920717565727920666f72206e6f60448201526e3732bc34b9ba32b73a103a37b5b2b760891b60648201526084016103d3565b600061131b60408051602081019091526000815290565b9050600081511161133b5760405180602001604052806000815250610886565b8061134584611424565b604051602001611356929190611a26565b6040516020818303038152906040529392505050565b6001600160a01b0383166113c7576113c281600980546000838152600a60205260408120829055600182018355919091527f6e1540171b6c0c960b71a7020d9f60077f6af931a8bbf590da0223dacf75c7af0155565b6113ea565b816001600160a01b0316836001600160a01b0316146113ea576113ea8382611521565b6001600160a01b03821661140157610504816115be565b826001600160a01b0316826001600160a01b03161461050457610504828261166d565b6060816114485750506040805180820190915260018152600360fc1b602082015290565b8160005b8115611472578061145c81611bd6565b915061146b9050600a83611b44565b915061144c565b6000816001600160401b0381111561148c5761148c611c5d565b6040519080825280601f01601f1916602001820160405280156114b6576020820181803683370190505b5090505b8415610d99576114cb600183611b58565b91506114d8600a86611bf1565b6114e3906030611b2c565b60f81b8183815181106114f8576114f8611c47565b60200101906001600160f81b031916908160001a90535061151a600a86611b44565b94506114ba565b6000600161152e846106cf565b6115389190611b58565b60008381526008602052604090205490915080821461158b576001600160a01b03841660009081526007602090815260408083208584528252808320548484528184208190558352600890915290208190555b5060009182526008602090815260408084208490556001600160a01b039094168352600781528383209183525290812055565b6009546000906115d090600190611b58565b6000838152600a6020526040812054600980549394509092849081106115f8576115f8611c47565b90600052602060002001549050806009838154811061161957611619611c47565b6000918252602080832090910192909255828152600a9091526040808220849055858252812055600980548061165157611651611c31565b6001900381819060005260206000200160009055905550505050565b6000611678836106cf565b6001600160a01b039093166000908152600760209081526040808320868452825280832085905593825260089052919091209190915550565b8280546116bd90611b9b565b90600052602060002090601f0160209004810192826116df5760008555611725565b82601f106116f857805160ff1916838001178555611725565b82800160010185558215611725579182015b8281111561172557825182559160200191906001019061170a565b50611731929150611735565b5090565b5b808211156117315760008155600101611736565b60006001600160401b038084111561176457611764611c5d565b604051601f8501601f19908116603f0116810190828211818310171561178c5761178c611c5d565b816040528093508581528686860111156117a557600080fd5b858560208301376000602087830101525050509392505050565b80356001600160a01b03811681146117d657600080fd5b919050565b6000602082840312156117ed57600080fd5b610886826117bf565b6000806040838503121561180957600080fd5b611812836117bf565b9150611820602084016117bf565b90509250929050565b60008060006060848603121561183e57600080fd5b611847846117bf565b9250611855602085016117bf565b9150604084013590509250925092565b6000806000806080858703121561187b57600080fd5b611884856117bf565b9350611892602086016117bf565b92506040850135915060608501356001600160401b038111156118b457600080fd5b8501601f810187136118c557600080fd5b6118d48782356020840161174a565b91505092959194509250565b600080604083850312156118f357600080fd5b6118fc836117bf565b91506020830135801515811461191157600080fd5b809150509250929050565b6000806040838503121561192f57600080fd5b611938836117bf565b915060208301356001600160401b0381111561195357600080fd5b8301601f8101851361196457600080fd5b6119738582356020840161174a565b9150509250929050565b6000806040838503121561199057600080fd5b611999836117bf565b946020939093013593505050565b6000602082840312156119b957600080fd5b813561088681611c73565b6000602082840312156119d657600080fd5b815161088681611c73565b6000602082840312156119f357600080fd5b5035919050565b60008151808452611a12816020860160208601611b6f565b601f01601f19169290920160200192915050565b60008351611a38818460208801611b6f565b835190830190611a4c818360208801611b6f565b01949350505050565b6001600160a01b0385811682528416602082015260408101839052608060608201819052600090611a88908301846119fa565b9695505050505050565b60208152600061088660208301846119fa565b60208082526032908201527f4552433732313a207472616e7366657220746f206e6f6e20455243373231526560408201527131b2b4bb32b91034b6b83632b6b2b73a32b960711b606082015260800190565b6020808252818101527f4f776e61626c653a2063616c6c6572206973206e6f7420746865206f776e6572604082015260600190565b60008219821115611b3f57611b3f611c05565b500190565b600082611b5357611b53611c1b565b500490565b600082821015611b6a57611b6a611c05565b500390565b60005b83811015611b8a578181015183820152602001611b72565b838111156108445750506000910152565b600181811c90821680611baf57607f821691505b60208210811415611bd057634e487b7160e01b600052602260045260246000fd5b50919050565b6000600019821415611bea57611bea611c05565b5060010190565b600082611c0057611c00611c1b565b500690565b634e487b7160e01b600052601160045260246000fd5b634e487b7160e01b600052601260045260246000fd5b634e487b7160e01b600052603160045260246000fd5b634e487b7160e01b600052603260045260246000fd5b634e487b7160e01b600052604160045260246000fd5b6001600160e01b03198116811461095857600080fdfeddf252ad1be2c89b69c2b068fc378daa952ba7f163c4a11628f55a4df523b3efa264697066735822122085c75a285f21b06e25a1c907f5d4d723db20ec9515c224b97b92affc49a88f4864736f6c63430008070033",
  "immutableReferences": {},
  "source": "// SPDX-License-Identifier: MIT\r\n\r\npragma solidity 0.8.7;\r\n\r\nimport \"@openzeppelin/contracts/token/ERC721/extensions/ERC721URIStorage.sol\";\r\nimport \"@openzeppelin/contracts/token/ERC721/extensions/ERC721Enumerable.sol\";\r\nimport \"@openzeppelin/contracts/access/Ownable.sol\";\r\nimport \"@openzeppelin/contracts/utils/Counters.sol\";\r\n\r\nimport \"./ICleverNFT.sol\";\r\n\r\ncontract CleverNFT is ICleverNFT, ERC721Enumerable, Ownable {\r\n    \r\n    using Counters for Counters.Counter;\r\n    \r\n    Counters.Counter private _tokenIds;\r\n\r\n    address public marketplaceAddress;\r\n\r\n    constructor(address marketplaceAddress_) ERC721 (\"CleverNFT\", \"CleverNFT\")  {\r\n        marketplaceAddress = marketplaceAddress_;\r\n    }   \r\n\r\n    function mint(address patchUser, string memory metaDataURI) public override returns (uint256) {\r\n\r\n        _tokenIds.increment();\r\n\r\n        uint256 newItemId = _tokenIds.current();\r\n        _mint(patchUser, newItemId);\r\n        _setTokenURI(newItemId, metaDataURI);\r\n\r\n        return newItemId;\r\n    }\r\n\r\n    function _beforeTokenTransfer(address from, address to, uint256 tokenId)\r\n        internal\r\n        override(ERC721, ERC721Enumerable)\r\n    {\r\n        super._beforeTokenTransfer(from, to, tokenId);\r\n    }\r\n\r\n    function _burn(uint256 tokenId) internal override(ERC721, ERC721URIStorage) {\r\n        super._burn(tokenId);\r\n    }\r\n\r\n    function tokenURI(uint256 tokenId)\r\n        public\r\n        view\r\n        override(ERC721, ERC721URIStorage)\r\n        returns (string memory)\r\n    {\r\n        return super.tokenURI(tokenId);\r\n    }\r\n\r\n    function supportsInterface(bytes4 interfaceId)\r\n        public\r\n        view\r\n        override(ERC721, ERC721Enumerable)\r\n        returns (bool)\r\n    {\r\n        return super.supportsInterface(interfaceId);\r\n    }\r\n\r\n    function safeMint(address to, uint256 tokenId) public {\r\n        _safeMint(to, tokenId);\r\n    }\r\n\r\n    function transferFrom(address from, address to, uint256 tokenId) public virtual override\r\n    {\r\n        _transfer(from, to, tokenId);\r\n    }\r\n}",
  "sourcePath": "C:\\Users\\Favou\\Documents\\Workspace\\Clever Programmer\\contracts\\CleverNFT.sol",
  "compiler": {
    "name": "solc",
    "version": "0.8.7+commit.e28d00a7.Emscripten.clang"
  },
  "schemaVersion": "3.4.4",
  "updatedAt": "2022-05-18T17:06:47.892Z",
  "networkType": "ethereum",
  "devdoc": {
    "kind": "dev",
    "methods": {
      "approve(address,uint256)": {
        "details": "See {IERC721-approve}."
      },
      "balanceOf(address)": {
        "details": "See {IERC721-balanceOf}."
      },
      "getApproved(uint256)": {
        "details": "See {IERC721-getApproved}."
      },
      "isApprovedForAll(address,address)": {
        "details": "See {IERC721-isApprovedForAll}."
      },
      "name()": {
        "details": "See {IERC721Metadata-name}."
      },
      "owner()": {
        "details": "Returns the address of the current owner."
      },
      "ownerOf(uint256)": {
        "details": "See {IERC721-ownerOf}."
      },
      "renounceOwnership()": {
        "details": "Leaves the contract without owner. It will not be possible to call `onlyOwner` functions anymore. Can only be called by the current owner. NOTE: Renouncing ownership will leave the contract without an owner, thereby removing any functionality that is only available to the owner."
      },
      "safeTransferFrom(address,address,uint256)": {
        "details": "See {IERC721-safeTransferFrom}."
      },
      "safeTransferFrom(address,address,uint256,bytes)": {
        "details": "See {IERC721-safeTransferFrom}."
      },
      "setApprovalForAll(address,bool)": {
        "details": "See {IERC721-setApprovalForAll}."
      },
      "symbol()": {
        "details": "See {IERC721Metadata-symbol}."
      },
      "tokenByIndex(uint256)": {
        "details": "See {IERC721Enumerable-tokenByIndex}."
      },
      "tokenOfOwnerByIndex(address,uint256)": {
        "details": "See {IERC721Enumerable-tokenOfOwnerByIndex}."
      },
      "totalSupply()": {
        "details": "See {IERC721Enumerable-totalSupply}."
      },
      "transferFrom(address,address,uint256)": {
        "details": "See {IERC721-transferFrom}."
      },
      "transferOwnership(address)": {
        "details": "Transfers ownership of the contract to a new account (`newOwner`). Can only be called by the current owner."
      }
    },
    "version": 1
  },
  "userdoc": {
    "kind": "user",
    "methods": {},
    "version": 1
  }
}