{
  "contractName": "CleverAccessNFT",
  "abi": [
    {
      "inputs": [],
      "stateMutability": "nonpayable",
      "type": "constructor"
    },
    {
      "anonymous": false,
      "inputs": [
        {
          "indexed": true,
          "internalType": "address",
          "name": "owner",
          "type": "address"
        },
        {
          "indexed": true,
          "internalType": "address",
          "name": "approved",
          "type": "address"
        },
        {
          "indexed": true,
          "internalType": "uint256",
          "name": "tokenId",
          "type": "uint256"
        }
      ],
      "name": "Approval",
      "type": "event"
    },
    {
      "anonymous": false,
      "inputs": [
        {
          "indexed": true,
          "internalType": "address",
          "name": "owner",
          "type": "address"
        },
        {
          "indexed": true,
          "internalType": "address",
          "name": "operator",
          "type": "address"
        },
        {
          "indexed": false,
          "internalType": "bool",
          "name": "approved",
          "type": "bool"
        }
      ],
      "name": "ApprovalForAll",
      "type": "event"
    },
    {
      "anonymous": false,
      "inputs": [
        {
          "indexed": true,
          "internalType": "address",
          "name": "previousOwner",
          "type": "address"
        },
        {
          "indexed": true,
          "internalType": "address",
          "name": "newOwner",
          "type": "address"
        }
      ],
      "name": "OwnershipTransferred",
      "type": "event"
    },
    {
      "anonymous": false,
      "inputs": [
        {
          "indexed": true,
          "internalType": "address",
          "name": "from",
          "type": "address"
        },
        {
          "indexed": true,
          "internalType": "address",
          "name": "to",
          "type": "address"
        },
        {
          "indexed": true,
          "internalType": "uint256",
          "name": "tokenId",
          "type": "uint256"
        }
      ],
      "name": "Transfer",
      "type": "event"
    },
    {
      "inputs": [
        {
          "internalType": "address",
          "name": "to",
          "type": "address"
        },
        {
          "internalType": "uint256",
          "name": "tokenId",
          "type": "uint256"
        }
      ],
      "name": "approve",
      "outputs": [],
      "stateMutability": "nonpayable",
      "type": "function"
    },
    {
      "inputs": [
        {
          "internalType": "address",
          "name": "owner",
          "type": "address"
        }
      ],
      "name": "balanceOf",
      "outputs": [
        {
          "internalType": "uint256",
          "name": "",
          "type": "uint256"
        }
      ],
      "stateMutability": "view",
      "type": "function",
      "constant": true
    },
    {
      "inputs": [],
      "name": "contractOwner",
      "outputs": [
        {
          "internalType": "address",
          "name": "",
          "type": "address"
        }
      ],
      "stateMutability": "view",
      "type": "function",
      "constant": true
    },
    {
      "inputs": [
        {
          "internalType": "uint256",
          "name": "tokenId",
          "type": "uint256"
        }
      ],
      "name": "getApproved",
      "outputs": [
        {
          "internalType": "address",
          "name": "",
          "type": "address"
        }
      ],
      "stateMutability": "view",
      "type": "function",
      "constant": true
    },
    {
      "inputs": [
        {
          "internalType": "address",
          "name": "owner",
          "type": "address"
        },
        {
          "internalType": "address",
          "name": "operator",
          "type": "address"
        }
      ],
      "name": "isApprovedForAll",
      "outputs": [
        {
          "internalType": "bool",
          "name": "",
          "type": "bool"
        }
      ],
      "stateMutability": "view",
      "type": "function",
      "constant": true
    },
    {
      "inputs": [],
      "name": "maxNFTHolding",
      "outputs": [
        {
          "internalType": "uint256",
          "name": "",
          "type": "uint256"
        }
      ],
      "stateMutability": "view",
      "type": "function",
      "constant": true
    },
    {
      "inputs": [],
      "name": "mintPrice",
      "outputs": [
        {
          "internalType": "uint256",
          "name": "",
          "type": "uint256"
        }
      ],
      "stateMutability": "view",
      "type": "function",
      "constant": true
    },
    {
      "inputs": [],
      "name": "name",
      "outputs": [
        {
          "internalType": "string",
          "name": "",
          "type": "string"
        }
      ],
      "stateMutability": "view",
      "type": "function",
      "constant": true
    },
    {
      "inputs": [],
      "name": "owner",
      "outputs": [
        {
          "internalType": "address",
          "name": "",
          "type": "address"
        }
      ],
      "stateMutability": "view",
      "type": "function",
      "constant": true
    },
    {
      "inputs": [
        {
          "internalType": "uint256",
          "name": "tokenId",
          "type": "uint256"
        }
      ],
      "name": "ownerOf",
      "outputs": [
        {
          "internalType": "address",
          "name": "",
          "type": "address"
        }
      ],
      "stateMutability": "view",
      "type": "function",
      "constant": true
    },
    {
      "inputs": [],
      "name": "paused",
      "outputs": [
        {
          "internalType": "bool",
          "name": "",
          "type": "bool"
        }
      ],
      "stateMutability": "view",
      "type": "function",
      "constant": true
    },
    {
      "inputs": [],
      "name": "renounceOwnership",
      "outputs": [],
      "stateMutability": "nonpayable",
      "type": "function"
    },
    {
      "inputs": [
        {
          "internalType": "address",
          "name": "from",
          "type": "address"
        },
        {
          "internalType": "address",
          "name": "to",
          "type": "address"
        },
        {
          "internalType": "uint256",
          "name": "tokenId",
          "type": "uint256"
        }
      ],
      "name": "safeTransferFrom",
      "outputs": [],
      "stateMutability": "nonpayable",
      "type": "function"
    },
    {
      "inputs": [
        {
          "internalType": "address",
          "name": "from",
          "type": "address"
        },
        {
          "internalType": "address",
          "name": "to",
          "type": "address"
        },
        {
          "internalType": "uint256",
          "name": "tokenId",
          "type": "uint256"
        },
        {
          "internalType": "bytes",
          "name": "_data",
          "type": "bytes"
        }
      ],
      "name": "safeTransferFrom",
      "outputs": [],
      "stateMutability": "nonpayable",
      "type": "function"
    },
    {
      "inputs": [
        {
          "internalType": "address",
          "name": "operator",
          "type": "address"
        },
        {
          "internalType": "bool",
          "name": "approved",
          "type": "bool"
        }
      ],
      "name": "setApprovalForAll",
      "outputs": [],
      "stateMutability": "nonpayable",
      "type": "function"
    },
    {
      "inputs": [
        {
          "internalType": "bytes4",
          "name": "interfaceId",
          "type": "bytes4"
        }
      ],
      "name": "supportsInterface",
      "outputs": [
        {
          "internalType": "bool",
          "name": "",
          "type": "bool"
        }
      ],
      "stateMutability": "view",
      "type": "function",
      "constant": true
    },
    {
      "inputs": [],
      "name": "symbol",
      "outputs": [
        {
          "internalType": "string",
          "name": "",
          "type": "string"
        }
      ],
      "stateMutability": "view",
      "type": "function",
      "constant": true
    },
    {
      "inputs": [
        {
          "internalType": "uint256",
          "name": "index",
          "type": "uint256"
        }
      ],
      "name": "tokenByIndex",
      "outputs": [
        {
          "internalType": "uint256",
          "name": "",
          "type": "uint256"
        }
      ],
      "stateMutability": "view",
      "type": "function",
      "constant": true
    },
    {
      "inputs": [
        {
          "internalType": "address",
          "name": "owner",
          "type": "address"
        },
        {
          "internalType": "uint256",
          "name": "index",
          "type": "uint256"
        }
      ],
      "name": "tokenOfOwnerByIndex",
      "outputs": [
        {
          "internalType": "uint256",
          "name": "",
          "type": "uint256"
        }
      ],
      "stateMutability": "view",
      "type": "function",
      "constant": true
    },
    {
      "inputs": [],
      "name": "totalSupply",
      "outputs": [
        {
          "internalType": "uint256",
          "name": "",
          "type": "uint256"
        }
      ],
      "stateMutability": "view",
      "type": "function",
      "constant": true
    },
    {
      "inputs": [
        {
          "internalType": "address",
          "name": "from",
          "type": "address"
        },
        {
          "internalType": "address",
          "name": "to",
          "type": "address"
        },
        {
          "internalType": "uint256",
          "name": "tokenId",
          "type": "uint256"
        }
      ],
      "name": "transferFrom",
      "outputs": [],
      "stateMutability": "nonpayable",
      "type": "function"
    },
    {
      "inputs": [
        {
          "internalType": "address",
          "name": "newOwner",
          "type": "address"
        }
      ],
      "name": "transferOwnership",
      "outputs": [],
      "stateMutability": "nonpayable",
      "type": "function"
    },
    {
      "inputs": [
        {
          "internalType": "uint256",
          "name": "tokenId",
          "type": "uint256"
        }
      ],
      "name": "tokenURI",
      "outputs": [
        {
          "internalType": "string",
          "name": "",
          "type": "string"
        }
      ],
      "stateMutability": "view",
      "type": "function",
      "constant": true
    },
    {
      "inputs": [],
      "name": "mint",
      "outputs": [],
      "stateMutability": "payable",
      "type": "function",
      "payable": true
    },
    {
      "inputs": [],
      "name": "getBaseURI",
      "outputs": [
        {
          "internalType": "string",
          "name": "",
          "type": "string"
        }
      ],
      "stateMutability": "view",
      "type": "function",
      "constant": true
    },
    {
      "inputs": [],
      "name": "getMintPrice",
      "outputs": [
        {
          "internalType": "uint256",
          "name": "",
          "type": "uint256"
        }
      ],
      "stateMutability": "view",
      "type": "function",
      "constant": true
    },
    {
      "inputs": [
        {
          "internalType": "string",
          "name": "baseURI_",
          "type": "string"
        }
      ],
      "name": "setBaseURI",
      "outputs": [],
      "stateMutability": "nonpayable",
      "type": "function"
    },
    {
      "inputs": [
        {
          "internalType": "uint256",
          "name": "_newPrice",
          "type": "uint256"
        }
      ],
      "name": "setMintPrice",
      "outputs": [],
      "stateMutability": "nonpayable",
      "type": "function"
    },
    {
      "inputs": [
        {
          "internalType": "uint256",
          "name": "_newMax",
          "type": "uint256"
        }
      ],
      "name": "setMaxNFTHolding",
      "outputs": [],
      "stateMutability": "nonpayable",
      "type": "function"
    },
    {
      "inputs": [
        {
          "internalType": "bool",
          "name": "_pausedState",
          "type": "bool"
        }
      ],
      "name": "setPaused",
      "outputs": [],
      "stateMutability": "nonpayable",
      "type": "function"
    },
    {
      "inputs": [],
      "name": "getContractBalance",
      "outputs": [
        {
          "internalType": "uint256",
          "name": "",
          "type": "uint256"
        }
      ],
      "stateMutability": "view",
      "type": "function",
      "constant": true
    },
    {
      "inputs": [
        {
          "internalType": "address payable",
          "name": "_newWallet",
          "type": "address"
        }
      ],
      "name": "changeTreasury",
      "outputs": [],
      "stateMutability": "nonpayable",
      "type": "function"
    },
    {
      "inputs": [
        {
          "internalType": "uint256",
          "name": "tokenId",
          "type": "uint256"
        }
      ],
      "name": "exists",
      "outputs": [
        {
          "internalType": "bool",
          "name": "",
          "type": "bool"
        }
      ],
      "stateMutability": "view",
      "type": "function",
      "constant": true
    },
    {
      "inputs": [],
      "name": "withdraw",
      "outputs": [],
      "stateMutability": "payable",
      "type": "function",
      "payable": true
    }
  ],
  "bytecode": "0x600b805460ff60a01b19169055662386f26fc10000600c556001600d5560e060405260316080818152906200216960a03980516200004691600e916020909101906200014a565b503480156200005457600080fd5b50604080518082018252600f81526e10db195d995c9058d8d95cdcd39195608a1b6020808301918252835180850190945260058452642c21a622ab60d91b908401528151919291620000a9916000916200014a565b508051620000bf9060019060208401906200014a565b505050620000dc620000d6620000f460201b60201c565b620000f8565b600b80546001600160a01b031916331790556200022d565b3390565b600a80546001600160a01b038381166001600160a01b0319831681179093556040519116919082907f8be0079c531659141344cd1fd0a4f28419497f9722a3daafe3b4186f6b6457e090600090a35050565b8280546200015890620001f0565b90600052602060002090601f0160209004810192826200017c5760008555620001c7565b82601f106200019757805160ff1916838001178555620001c7565b82800160010185558215620001c7579182015b82811115620001c7578251825591602001919060010190620001aa565b50620001d5929150620001d9565b5090565b5b80821115620001d55760008155600101620001da565b600181811c908216806200020557607f821691505b602082108114156200022757634e487b7160e01b600052602260045260246000fd5b50919050565b611f2c806200023d6000396000f3fe6080604052600436106101895760003560e01c806301ffc9a71461018e57806306fdde03146101c3578063081812fc146101e5578063095ea7b31461021d5780631249c58b1461023f57806316c38b3c1461024757806318160ddd1461026757806323b872dd146102865780632f745c59146102a65780633ccfd60b146102c657806342842e0e146102ce5780634f558e79146102ee5780634f6ccce71461030e57806355f804b31461032e5780635c975abb1461034e5780636352211e1461036f5780636817c76c1461038f5780636c3be886146103a55780636f9fb98a146103bb57806370a08231146103d0578063714c5398146103f0578063715018a6146104055780638da5cb5b1461041a57806395d89b411461042f578063a22cb46514610444578063a7f93ebd14610464578063b14f2a3914610479578063b88d4fde14610499578063c87b56dd146104b9578063ce606ee0146104d9578063e985e9c5146104f9578063eb552c5b14610519578063f2fde38b14610539578063f4a0a52814610559575b600080fd5b34801561019a57600080fd5b506101ae6101a9366004611bd9565b610579565b60405190151581526020015b60405180910390f35b3480156101cf57600080fd5b506101d86105a4565b6040516101ba9190611cfe565b3480156101f157600080fd5b50610205610200366004611c5b565b610636565b6040516001600160a01b0390911681526020016101ba565b34801561022957600080fd5b5061023d610238366004611b92565b6106c3565b005b61023d6107d4565b34801561025357600080fd5b5061023d610262366004611bbe565b6108dc565b34801561027357600080fd5b506008545b6040519081526020016101ba565b34801561029257600080fd5b5061023d6102a1366004611a9d565b610929565b3480156102b257600080fd5b506102786102c1366004611b92565b61095a565b61023d6109f0565b3480156102da57600080fd5b5061023d6102e9366004611a9d565b610a82565b3480156102fa57600080fd5b506101ae610309366004611c5b565b610a9d565b34801561031a57600080fd5b50610278610329366004611c5b565b610aa8565b34801561033a57600080fd5b5061023d610349366004611c13565b610b3b565b34801561035a57600080fd5b50600b546101ae90600160a01b900460ff1681565b34801561037b57600080fd5b5061020561038a366004611c5b565b610b81565b34801561039b57600080fd5b50610278600c5481565b3480156103b157600080fd5b50610278600d5481565b3480156103c757600080fd5b50610278610bf8565b3480156103dc57600080fd5b506102786103eb366004611a40565b610c2e565b3480156103fc57600080fd5b506101d8610cb5565b34801561041157600080fd5b5061023d610cf3565b34801561042657600080fd5b50610205610d2c565b34801561043b57600080fd5b506101d8610d3b565b34801561045057600080fd5b5061023d61045f366004611b5d565b610d4a565b34801561047057600080fd5b50600c54610278565b34801561048557600080fd5b5061023d610494366004611a40565b610d55565b3480156104a557600080fd5b5061023d6104b4366004611ade565b610da6565b3480156104c557600080fd5b506101d86104d4366004611c5b565b610dde565b3480156104e557600080fd5b50600b54610205906001600160a01b031681565b34801561050557600080fd5b506101ae610514366004611a64565b610edf565b34801561052557600080fd5b5061023d610534366004611c5b565b610f0d565b34801561054557600080fd5b5061023d610554366004611a40565b610f41565b34801561056557600080fd5b5061023d610574366004611c5b565b610fde565b60006001600160e01b0319821663780e9d6360e01b148061059e575061059e82611012565b92915050565b6060600080546105b390611e18565b80601f01602080910402602001604051908101604052809291908181526020018280546105df90611e18565b801561062c5780601f106106015761010080835404028352916020019161062c565b820191906000526020600020905b81548152906001019060200180831161060f57829003601f168201915b5050505050905090565b600061064182611062565b6106a75760405162461bcd60e51b815260206004820152602c60248201527f4552433732313a20617070726f76656420717565727920666f72206e6f6e657860448201526b34b9ba32b73a103a37b5b2b760a11b60648201526084015b60405180910390fd5b506000908152600460205260409020546001600160a01b031690565b60006106ce82610b81565b9050806001600160a01b0316836001600160a01b0316141561073c5760405162461bcd60e51b815260206004820152602160248201527f4552433732313a20617070726f76616c20746f2063757272656e74206f776e656044820152603960f91b606482015260840161069e565b336001600160a01b038216148061075857506107588133610edf565b6107c55760405162461bcd60e51b815260206004820152603860248201527f4552433732313a20617070726f76652063616c6c6572206973206e6f74206f776044820152771b995c881b9bdc88185c1c1c9bdd995908199bdc88185b1b60421b606482015260840161069e565b6107cf838361107f565b505050565b600b54600160a01b900460ff16156108205760405162461bcd60e51b815260206004820152600f60248201526e10dbdb9d1c9858dd081c185d5cd959608a1b604482015260640161069e565b600c543410156108675760405162461bcd60e51b8152602060048201526012602482015271496e73756666696369656e742066756e647360701b604482015260640161069e565b600d5461087333610c2e565b106108ba5760405162461bcd60e51b815260206004820152601760248201527613585e08139195081a1bdb191a5b99c81c995858da1959604a1b604482015260640161069e565b6108cc336108c7600f5490565b6110ed565b6108da600f80546001019055565b565b336108e5610d2c565b6001600160a01b03161461090b5760405162461bcd60e51b815260040161069e90611d63565b600b8054911515600160a01b0260ff60a01b19909216919091179055565b6109333382611219565b61094f5760405162461bcd60e51b815260040161069e90611d98565b6107cf8383836112e3565b600061096583610c2e565b82106109c75760405162461bcd60e51b815260206004820152602b60248201527f455243373231456e756d657261626c653a206f776e657220696e646578206f7560448201526a74206f6620626f756e647360a81b606482015260840161069e565b506001600160a01b03919091166000908152600660209081526040808320938352929052205490565b336109f9610d2c565b6001600160a01b031614610a1f5760405162461bcd60e51b815260040161069e90611d63565b600b546040516000916001600160a01b03169047908381818185875af1925050503d8060008114610a6c576040519150601f19603f3d011682016040523d82523d6000602084013e610a71565b606091505b5050905080610a7f57600080fd5b50565b6107cf83838360405180602001604052806000815250610da6565b600061059e82611062565b6000610ab360085490565b8210610b165760405162461bcd60e51b815260206004820152602c60248201527f455243373231456e756d657261626c653a20676c6f62616c20696e646578206f60448201526b7574206f6620626f756e647360a01b606482015260840161069e565b60088281548110610b2957610b29611e7f565b90600052602060002001549050919050565b33610b44610d2c565b6001600160a01b031614610b6a5760405162461bcd60e51b815260040161069e90611d63565b8051610b7d90600e90602084019061191d565b5050565b6000818152600260205260408120546001600160a01b03168061059e5760405162461bcd60e51b815260206004820152602960248201527f4552433732313a206f776e657220717565727920666f72206e6f6e657869737460448201526832b73a103a37b5b2b760b91b606482015260840161069e565b600033610c03610d2c565b6001600160a01b031614610c295760405162461bcd60e51b815260040161069e90611d63565b504790565b60006001600160a01b038216610c995760405162461bcd60e51b815260206004820152602a60248201527f4552433732313a2062616c616e636520717565727920666f7220746865207a65604482015269726f206164647265737360b01b606482015260840161069e565b506001600160a01b031660009081526003602052604090205490565b606033610cc0610d2c565b6001600160a01b031614610ce65760405162461bcd60e51b815260040161069e90611d63565b600e80546105b390611e18565b33610cfc610d2c565b6001600160a01b031614610d225760405162461bcd60e51b815260040161069e90611d63565b6108da6000611478565b600a546001600160a01b031690565b6060600180546105b390611e18565b610b7d3383836114ca565b33610d5e610d2c565b6001600160a01b031614610d845760405162461bcd60e51b815260040161069e90611d63565b600b80546001600160a01b0319166001600160a01b0392909216919091179055565b610db03383611219565b610dcc5760405162461bcd60e51b815260040161069e90611d98565b610dd884848484611595565b50505050565b6060610de982611062565b610e4d5760405162461bcd60e51b815260206004820152602f60248201527f4552433732314d657461646174613a2055524920717565727920666f72206e6f60448201526e3732bc34b9ba32b73a103a37b5b2b760891b606482015260840161069e565b600e8054610e5a90611e18565b80601f0160208091040260200160405190810160405280929190818152602001828054610e8690611e18565b8015610ed35780601f10610ea857610100808354040283529160200191610ed3565b820191906000526020600020905b815481529060010190602001808311610eb657829003601f168201915b50505050509050919050565b6001600160a01b03918216600090815260056020908152604080832093909416825291909152205460ff1690565b33610f16610d2c565b6001600160a01b031614610f3c5760405162461bcd60e51b815260040161069e90611d63565b600d55565b33610f4a610d2c565b6001600160a01b031614610f705760405162461bcd60e51b815260040161069e90611d63565b6001600160a01b038116610fd55760405162461bcd60e51b815260206004820152602660248201527f4f776e61626c653a206e6577206f776e657220697320746865207a65726f206160448201526564647265737360d01b606482015260840161069e565b610a7f81611478565b33610fe7610d2c565b6001600160a01b03161461100d5760405162461bcd60e51b815260040161069e90611d63565b600c55565b60006001600160e01b031982166380ac58cd60e01b148061104357506001600160e01b03198216635b5e139f60e01b145b8061059e57506301ffc9a760e01b6001600160e01b031983161461059e565b6000908152600260205260409020546001600160a01b0316151590565b600081815260046020526040902080546001600160a01b0319166001600160a01b03841690811790915581906110b482610b81565b6001600160a01b03167f8c5be1e5ebec7d5bd14f71427d1e84f3dd0314c0f7b2291e5b200ac8c7c3b92560405160405180910390a45050565b6001600160a01b0382166111435760405162461bcd60e51b815260206004820181905260248201527f4552433732313a206d696e7420746f20746865207a65726f2061646472657373604482015260640161069e565b61114c81611062565b156111985760405162461bcd60e51b815260206004820152601c60248201527b115490cdcc8c4e881d1bdad95b88185b1c9958591e481b5a5b9d195960221b604482015260640161069e565b6111a4600083836115c8565b6001600160a01b03821660009081526003602052604081208054600192906111cd908490611de9565b909155505060008181526002602052604080822080546001600160a01b0319166001600160a01b0386169081179091559051839290600080516020611ed7833981519152908290a45050565b600061122482611062565b6112855760405162461bcd60e51b815260206004820152602c60248201527f4552433732313a206f70657261746f7220717565727920666f72206e6f6e657860448201526b34b9ba32b73a103a37b5b2b760a11b606482015260840161069e565b600061129083610b81565b9050806001600160a01b0316846001600160a01b031614806112b757506112b78185610edf565b806112db5750836001600160a01b03166112d084610636565b6001600160a01b0316145b949350505050565b826001600160a01b03166112f682610b81565b6001600160a01b03161461135a5760405162461bcd60e51b815260206004820152602560248201527f4552433732313a207472616e736665722066726f6d20696e636f72726563742060448201526437bbb732b960d91b606482015260840161069e565b6001600160a01b0382166113bc5760405162461bcd60e51b8152602060048201526024808201527f4552433732313a207472616e7366657220746f20746865207a65726f206164646044820152637265737360e01b606482015260840161069e565b6113c78383836115c8565b6113d260008261107f565b6001600160a01b03831660009081526003602052604081208054600192906113fb908490611e01565b90915550506001600160a01b0382166000908152600360205260408120805460019290611429908490611de9565b909155505060008181526002602052604080822080546001600160a01b0319166001600160a01b038681169182179092559151849391871691600080516020611ed783398151915291a4505050565b600a80546001600160a01b038381166001600160a01b0319831681179093556040519116919082907f8be0079c531659141344cd1fd0a4f28419497f9722a3daafe3b4186f6b6457e090600090a35050565b816001600160a01b0316836001600160a01b031614156115285760405162461bcd60e51b815260206004820152601960248201527822a9219b99189d1030b8383937bb32903a379031b0b63632b960391b604482015260640161069e565b6001600160a01b03838116600081815260056020908152604080832094871680845294825291829020805460ff191686151590811790915591519182527f17307eab39ab6107e8899845ad3d59bd9653f200f220920489ca2b5937696c31910160405180910390a3505050565b6115a08484846112e3565b6115ac84848484611680565b610dd85760405162461bcd60e51b815260040161069e90611d11565b6001600160a01b0383166116235761161e81600880546000838152600960205260408120829055600182018355919091527ff3f7a9fe364faab93b216da50a3214154f22a0a2b415b23a84c8169e8b636ee30155565b611646565b816001600160a01b0316836001600160a01b03161461164657611646838261178d565b6001600160a01b03821661165d576107cf8161182a565b826001600160a01b0316826001600160a01b0316146107cf576107cf82826118d9565b60006001600160a01b0384163b1561178257604051630a85bd0160e11b81526001600160a01b0385169063150b7a02906116c4903390899088908890600401611cc1565b602060405180830381600087803b1580156116de57600080fd5b505af192505050801561170e575060408051601f3d908101601f1916820190925261170b91810190611bf6565b60015b611768573d80801561173c576040519150601f19603f3d011682016040523d82523d6000602084013e611741565b606091505b5080516117605760405162461bcd60e51b815260040161069e90611d11565b805181602001fd5b6001600160e01b031916630a85bd0160e11b1490506112db565b506001949350505050565b6000600161179a84610c2e565b6117a49190611e01565b6000838152600760205260409020549091508082146117f7576001600160a01b03841660009081526006602090815260408083208584528252808320548484528184208190558352600790915290208190555b5060009182526007602090815260408084208490556001600160a01b039094168352600681528383209183525290812055565b60085460009061183c90600190611e01565b6000838152600960205260408120546008805493945090928490811061186457611864611e7f565b90600052602060002001549050806008838154811061188557611885611e7f565b60009182526020808320909101929092558281526009909152604080822084905585825281205560088054806118bd576118bd611e69565b6001900381819060005260206000200160009055905550505050565b60006118e483610c2e565b6001600160a01b039093166000908152600660209081526040808320868452825280832085905593825260079052919091209190915550565b82805461192990611e18565b90600052602060002090601f01602090048101928261194b5760008555611991565b82601f1061196457805160ff1916838001178555611991565b82800160010185558215611991579182015b82811115611991578251825591602001919060010190611976565b5061199d9291506119a1565b5090565b5b8082111561199d57600081556001016119a2565b60006001600160401b03808411156119d0576119d0611e95565b604051601f8501601f19908116603f011681019082821181831017156119f8576119f8611e95565b81604052809350858152868686011115611a1157600080fd5b858560208301376000602087830101525050509392505050565b80358015158114611a3b57600080fd5b919050565b600060208284031215611a5257600080fd5b8135611a5d81611eab565b9392505050565b60008060408385031215611a7757600080fd5b8235611a8281611eab565b91506020830135611a9281611eab565b809150509250929050565b600080600060608486031215611ab257600080fd5b8335611abd81611eab565b92506020840135611acd81611eab565b929592945050506040919091013590565b60008060008060808587031215611af457600080fd5b8435611aff81611eab565b93506020850135611b0f81611eab565b92506040850135915060608501356001600160401b03811115611b3157600080fd5b8501601f81018713611b4257600080fd5b611b51878235602084016119b6565b91505092959194509250565b60008060408385031215611b7057600080fd5b8235611b7b81611eab565b9150611b8960208401611a2b565b90509250929050565b60008060408385031215611ba557600080fd5b8235611bb081611eab565b946020939093013593505050565b600060208284031215611bd057600080fd5b611a5d82611a2b565b600060208284031215611beb57600080fd5b8135611a5d81611ec0565b600060208284031215611c0857600080fd5b8151611a5d81611ec0565b600060208284031215611c2557600080fd5b81356001600160401b03811115611c3b57600080fd5b8201601f81018413611c4c57600080fd5b6112db848235602084016119b6565b600060208284031215611c6d57600080fd5b5035919050565b6000815180845260005b81811015611c9a57602081850181015186830182015201611c7e565b81811115611cac576000602083870101525b50601f01601f19169290920160200192915050565b6001600160a01b0385811682528416602082015260408101839052608060608201819052600090611cf490830184611c74565b9695505050505050565b602081526000611a5d6020830184611c74565b60208082526032908201527f4552433732313a207472616e7366657220746f206e6f6e20455243373231526560408201527131b2b4bb32b91034b6b83632b6b2b73a32b960711b606082015260800190565b6020808252818101527f4f776e61626c653a2063616c6c6572206973206e6f7420746865206f776e6572604082015260600190565b60208082526031908201527f4552433732313a207472616e736665722063616c6c6572206973206e6f74206f6040820152701ddb995c881b9bdc88185c1c1c9bdd9959607a1b606082015260800190565b60008219821115611dfc57611dfc611e53565b500190565b600082821015611e1357611e13611e53565b500390565b600181811c90821680611e2c57607f821691505b60208210811415611e4d57634e487b7160e01b600052602260045260246000fd5b50919050565b634e487b7160e01b600052601160045260246000fd5b634e487b7160e01b600052603160045260246000fd5b634e487b7160e01b600052603260045260246000fd5b634e487b7160e01b600052604160045260246000fd5b6001600160a01b0381168114610a7f57600080fd5b6001600160e01b031981168114610a7f57600080fdfeddf252ad1be2c89b69c2b068fc378daa952ba7f163c4a11628f55a4df523b3efa26469706673582212203a8cbb5821187ebfadd7d9116882a6b6d12b23ec4103a2d44cb8b3d82185583b64736f6c6343000807003368747470733a2f2f6170692e6a736f6e62696e2e696f2f622f363162363339336230313535386337333163643330376364",
  "immutableReferences": {},
  "source": "// SPDX-License-Identifier: MIT\r\n\r\npragma solidity 0.8.7;\r\n\r\nimport \"@openzeppelin/contracts/token/ERC721/extensions/ERC721Enumerable.sol\";\r\nimport \"@openzeppelin/contracts/access/Ownable.sol\";\r\nimport \"@openzeppelin/contracts/utils/Strings.sol\";\r\nimport \"@openzeppelin/contracts/utils/Counters.sol\";\r\n\r\ncontract CleverAccessNFT is ERC721Enumerable, Ownable {\r\n\r\n    using Strings for uint256;\r\n    address public contractOwner;\r\n    bool public paused = false;\r\n    uint256 public mintPrice = 0.01 ether;\r\n    uint256 public maxNFTHolding = 1;\r\n    string private baseURI = \"https://api.jsonbin.io/b/61b6393b01558c731cd307cd\";\r\n    using Counters for Counters.Counter;\r\n\r\n    Counters.Counter counter;\r\n\r\n    constructor() ERC721 (\"CleverAccessNFT\", \"XCLEV\") {\r\n\r\n        contractOwner = msg.sender;\r\n    }\r\n\r\n    function tokenURI(uint256 tokenId) public view virtual override returns (string memory) {\r\n\r\n        require(_exists(tokenId), \"ERC721Metadata: URI query for nonexistent token\");\r\n\r\n        return baseURI;\r\n    }\r\n\r\n    function mint() external payable {\r\n\r\n        require(!paused, \"Contract paused\");\r\n        require(msg.value >= mintPrice, \"Insufficient funds\");\r\n        require(balanceOf(msg.sender) < maxNFTHolding, \"Max NFT holding reached\");\r\n        \r\n        _mint(msg.sender, counter.current());\r\n        counter.increment();\r\n    }\r\n\r\n    function getBaseURI() public onlyOwner view returns (string memory) {\r\n\r\n        return baseURI;\r\n    }\r\n\r\n    function getMintPrice() public view returns (uint256) {\r\n\r\n        return mintPrice;\r\n    }\r\n\r\n    function _baseURI() internal view override returns (string memory) { return baseURI; }\r\n\r\n    function setBaseURI(string memory baseURI_) external onlyOwner { baseURI = baseURI_; }\r\n\r\n    function setMintPrice (uint256 _newPrice) external onlyOwner { mintPrice = _newPrice; }\r\n    function setMaxNFTHolding(uint256 _newMax) external onlyOwner { maxNFTHolding = _newMax; }\r\n\r\n    function setPaused (bool _pausedState) external onlyOwner { paused = _pausedState; }\r\n\r\n    function getContractBalance () external view onlyOwner returns (uint256) { return address(this).balance; }\r\n\r\n    function changeTreasury(address payable _newWallet) external onlyOwner { contractOwner = _newWallet; }\r\n\r\n    function exists(uint256 tokenId) public view returns (bool) { return _exists(tokenId); }\r\n\r\n    function withdraw() public payable onlyOwner {\r\n        (bool os, ) = payable(contractOwner).call{value: address(this).balance}(\"\");\r\n        require(os);\r\n    }\r\n}",
  "sourcePath": "C:\\Users\\Favou\\Documents\\Workspace\\Clever Programmer\\contracts\\CleverAccessNFT.sol",
  "compiler": {
    "name": "solc",
    "version": "0.8.7+commit.e28d00a7.Emscripten.clang"
  },
  "schemaVersion": "3.4.4",
  "updatedAt": "2022-05-18T17:06:47.904Z",
  "networkType": "ethereum",
  "devdoc": {
    "kind": "dev",
    "methods": {
      "approve(address,uint256)": {
        "details": "See {IERC721-approve}."
      },
      "balanceOf(address)": {
        "details": "See {IERC721-balanceOf}."
      },
      "getApproved(uint256)": {
        "details": "See {IERC721-getApproved}."
      },
      "isApprovedForAll(address,address)": {
        "details": "See {IERC721-isApprovedForAll}."
      },
      "name()": {
        "details": "See {IERC721Metadata-name}."
      },
      "owner()": {
        "details": "Returns the address of the current owner."
      },
      "ownerOf(uint256)": {
        "details": "See {IERC721-ownerOf}."
      },
      "renounceOwnership()": {
        "details": "Leaves the contract without owner. It will not be possible to call `onlyOwner` functions anymore. Can only be called by the current owner. NOTE: Renouncing ownership will leave the contract without an owner, thereby removing any functionality that is only available to the owner."
      },
      "safeTransferFrom(address,address,uint256)": {
        "details": "See {IERC721-safeTransferFrom}."
      },
      "safeTransferFrom(address,address,uint256,bytes)": {
        "details": "See {IERC721-safeTransferFrom}."
      },
      "setApprovalForAll(address,bool)": {
        "details": "See {IERC721-setApprovalForAll}."
      },
      "supportsInterface(bytes4)": {
        "details": "See {IERC165-supportsInterface}."
      },
      "symbol()": {
        "details": "See {IERC721Metadata-symbol}."
      },
      "tokenByIndex(uint256)": {
        "details": "See {IERC721Enumerable-tokenByIndex}."
      },
      "tokenOfOwnerByIndex(address,uint256)": {
        "details": "See {IERC721Enumerable-tokenOfOwnerByIndex}."
      },
      "tokenURI(uint256)": {
        "details": "See {IERC721Metadata-tokenURI}."
      },
      "totalSupply()": {
        "details": "See {IERC721Enumerable-totalSupply}."
      },
      "transferFrom(address,address,uint256)": {
        "details": "See {IERC721-transferFrom}."
      },
      "transferOwnership(address)": {
        "details": "Transfers ownership of the contract to a new account (`newOwner`). Can only be called by the current owner."
      }
    },
    "version": 1
  },
  "userdoc": {
    "kind": "user",
    "methods": {},
    "version": 1
  }
}