{
  "contractName": "ERC721A",
  "abi": [
    {
      "inputs": [
        {
          "internalType": "string",
          "name": "name_",
          "type": "string"
        },
        {
          "internalType": "string",
          "name": "symbol_",
          "type": "string"
        }
      ],
      "stateMutability": "nonpayable",
      "type": "constructor"
    },
    {
      "inputs": [],
      "name": "ApprovalCallerNotOwnerNorApproved",
      "type": "error"
    },
    {
      "inputs": [],
      "name": "ApprovalQueryForNonexistentToken",
      "type": "error"
    },
    {
      "inputs": [],
      "name": "ApprovalToCurrentOwner",
      "type": "error"
    },
    {
      "inputs": [],
      "name": "ApproveToCaller",
      "type": "error"
    },
    {
      "inputs": [],
      "name": "BalanceQueryForZeroAddress",
      "type": "error"
    },
    {
      "inputs": [],
      "name": "MintToZeroAddress",
      "type": "error"
    },
    {
      "inputs": [],
      "name": "MintZeroQuantity",
      "type": "error"
    },
    {
      "inputs": [],
      "name": "OwnerQueryForNonexistentToken",
      "type": "error"
    },
    {
      "inputs": [],
      "name": "TransferCallerNotOwnerNorApproved",
      "type": "error"
    },
    {
      "inputs": [],
      "name": "TransferFromIncorrectOwner",
      "type": "error"
    },
    {
      "inputs": [],
      "name": "TransferToNonERC721ReceiverImplementer",
      "type": "error"
    },
    {
      "inputs": [],
      "name": "TransferToZeroAddress",
      "type": "error"
    },
    {
      "inputs": [],
      "name": "URIQueryForNonexistentToken",
      "type": "error"
    },
    {
      "anonymous": false,
      "inputs": [
        {
          "indexed": true,
          "internalType": "address",
          "name": "owner",
          "type": "address"
        },
        {
          "indexed": true,
          "internalType": "address",
          "name": "approved",
          "type": "address"
        },
        {
          "indexed": true,
          "internalType": "uint256",
          "name": "tokenId",
          "type": "uint256"
        }
      ],
      "name": "Approval",
      "type": "event"
    },
    {
      "anonymous": false,
      "inputs": [
        {
          "indexed": true,
          "internalType": "address",
          "name": "owner",
          "type": "address"
        },
        {
          "indexed": true,
          "internalType": "address",
          "name": "operator",
          "type": "address"
        },
        {
          "indexed": false,
          "internalType": "bool",
          "name": "approved",
          "type": "bool"
        }
      ],
      "name": "ApprovalForAll",
      "type": "event"
    },
    {
      "anonymous": false,
      "inputs": [
        {
          "indexed": true,
          "internalType": "address",
          "name": "from",
          "type": "address"
        },
        {
          "indexed": true,
          "internalType": "address",
          "name": "to",
          "type": "address"
        },
        {
          "indexed": true,
          "internalType": "uint256",
          "name": "tokenId",
          "type": "uint256"
        }
      ],
      "name": "Transfer",
      "type": "event"
    },
    {
      "inputs": [],
      "name": "totalSupply",
      "outputs": [
        {
          "internalType": "uint256",
          "name": "",
          "type": "uint256"
        }
      ],
      "stateMutability": "view",
      "type": "function"
    },
    {
      "inputs": [
        {
          "internalType": "bytes4",
          "name": "interfaceId",
          "type": "bytes4"
        }
      ],
      "name": "supportsInterface",
      "outputs": [
        {
          "internalType": "bool",
          "name": "",
          "type": "bool"
        }
      ],
      "stateMutability": "view",
      "type": "function"
    },
    {
      "inputs": [
        {
          "internalType": "address",
          "name": "owner",
          "type": "address"
        }
      ],
      "name": "balanceOf",
      "outputs": [
        {
          "internalType": "uint256",
          "name": "",
          "type": "uint256"
        }
      ],
      "stateMutability": "view",
      "type": "function"
    },
    {
      "inputs": [
        {
          "internalType": "uint256",
          "name": "tokenId",
          "type": "uint256"
        }
      ],
      "name": "ownerOf",
      "outputs": [
        {
          "internalType": "address",
          "name": "",
          "type": "address"
        }
      ],
      "stateMutability": "view",
      "type": "function"
    },
    {
      "inputs": [],
      "name": "name",
      "outputs": [
        {
          "internalType": "string",
          "name": "",
          "type": "string"
        }
      ],
      "stateMutability": "view",
      "type": "function"
    },
    {
      "inputs": [],
      "name": "symbol",
      "outputs": [
        {
          "internalType": "string",
          "name": "",
          "type": "string"
        }
      ],
      "stateMutability": "view",
      "type": "function"
    },
    {
      "inputs": [
        {
          "internalType": "uint256",
          "name": "tokenId",
          "type": "uint256"
        }
      ],
      "name": "tokenURI",
      "outputs": [
        {
          "internalType": "string",
          "name": "",
          "type": "string"
        }
      ],
      "stateMutability": "view",
      "type": "function"
    },
    {
      "inputs": [
        {
          "internalType": "address",
          "name": "to",
          "type": "address"
        },
        {
          "internalType": "uint256",
          "name": "tokenId",
          "type": "uint256"
        }
      ],
      "name": "approve",
      "outputs": [],
      "stateMutability": "nonpayable",
      "type": "function"
    },
    {
      "inputs": [
        {
          "internalType": "uint256",
          "name": "tokenId",
          "type": "uint256"
        }
      ],
      "name": "getApproved",
      "outputs": [
        {
          "internalType": "address",
          "name": "",
          "type": "address"
        }
      ],
      "stateMutability": "view",
      "type": "function"
    },
    {
      "inputs": [
        {
          "internalType": "address",
          "name": "operator",
          "type": "address"
        },
        {
          "internalType": "bool",
          "name": "approved",
          "type": "bool"
        }
      ],
      "name": "setApprovalForAll",
      "outputs": [],
      "stateMutability": "nonpayable",
      "type": "function"
    },
    {
      "inputs": [
        {
          "internalType": "address",
          "name": "owner",
          "type": "address"
        },
        {
          "internalType": "address",
          "name": "operator",
          "type": "address"
        }
      ],
      "name": "isApprovedForAll",
      "outputs": [
        {
          "internalType": "bool",
          "name": "",
          "type": "bool"
        }
      ],
      "stateMutability": "view",
      "type": "function"
    },
    {
      "inputs": [
        {
          "internalType": "address",
          "name": "from",
          "type": "address"
        },
        {
          "internalType": "address",
          "name": "to",
          "type": "address"
        },
        {
          "internalType": "uint256",
          "name": "tokenId",
          "type": "uint256"
        }
      ],
      "name": "transferFrom",
      "outputs": [],
      "stateMutability": "nonpayable",
      "type": "function"
    },
    {
      "inputs": [
        {
          "internalType": "address",
          "name": "from",
          "type": "address"
        },
        {
          "internalType": "address",
          "name": "to",
          "type": "address"
        },
        {
          "internalType": "uint256",
          "name": "tokenId",
          "type": "uint256"
        }
      ],
      "name": "safeTransferFrom",
      "outputs": [],
      "stateMutability": "nonpayable",
      "type": "function"
    },
    {
      "inputs": [
        {
          "internalType": "address",
          "name": "from",
          "type": "address"
        },
        {
          "internalType": "address",
          "name": "to",
          "type": "address"
        },
        {
          "internalType": "uint256",
          "name": "tokenId",
          "type": "uint256"
        },
        {
          "internalType": "bytes",
          "name": "_data",
          "type": "bytes"
        }
      ],
      "name": "safeTransferFrom",
      "outputs": [],
      "stateMutability": "nonpayable",
      "type": "function"
    }
  ],
  "bytecode": "0x60806040523480156200001157600080fd5b506040516200125c3803806200125c8339810160408190526200003491620001c9565b8151620000499060029060208501906200006c565b5080516200005f9060039060208401906200006c565b5050600080555062000286565b8280546200007a9062000233565b90600052602060002090601f0160209004810192826200009e5760008555620000e9565b82601f10620000b957805160ff1916838001178555620000e9565b82800160010185558215620000e9579182015b82811115620000e9578251825591602001919060010190620000cc565b50620000f7929150620000fb565b5090565b5b80821115620000f75760008155600101620000fc565b600082601f8301126200012457600080fd5b81516001600160401b038082111562000141576200014162000270565b604051601f8301601f19908116603f011681019082821181831017156200016c576200016c62000270565b816040528381526020925086838588010111156200018957600080fd5b600091505b83821015620001ad57858201830151818301840152908201906200018e565b83821115620001bf5760008385830101525b9695505050505050565b60008060408385031215620001dd57600080fd5b82516001600160401b0380821115620001f557600080fd5b620002038683870162000112565b935060208501519150808211156200021a57600080fd5b50620002298582860162000112565b9150509250929050565b600181811c908216806200024857607f821691505b602082108114156200026a57634e487b7160e01b600052602260045260246000fd5b50919050565b634e487b7160e01b600052604160045260246000fd5b610fc680620002966000396000f3fe608060405234801561001057600080fd5b50600436106100ba5760003560e01c806301ffc9a7146100bf57806306fdde03146100e7578063081812fc146100fc578063095ea7b31461012757806318160ddd1461013c57806323b872dd1461015257806342842e0e146101655780636352211e1461017857806370a082311461018b57806395d89b411461019e578063a22cb465146101a6578063b88d4fde146101b9578063c87b56dd146101cc578063e985e9c5146101df575b600080fd5b6100d26100cd366004610d48565b61021b565b60405190151581526020015b60405180910390f35b6100ef61026d565b6040516100de9190610e33565b61010f61010a366004610d82565b6102ff565b6040516001600160a01b0390911681526020016100de565b61013a610135366004610d1e565b610343565b005b600154600054035b6040519081526020016100de565b61013a610160366004610bcb565b6103d1565b61013a610173366004610bcb565b6103dc565b61010f610186366004610d82565b6103f7565b610144610199366004610b7d565b610409565b6100ef610457565b61013a6101b4366004610ce2565b610466565b61013a6101c7366004610c07565b6104fc565b6100ef6101da366004610d82565b61054d565b6100d26101ed366004610b98565b6001600160a01b03918216600090815260076020908152604080832093909416825291909152205460ff1690565b60006001600160e01b031982166380ac58cd60e01b148061024c57506001600160e01b03198216635b5e139f60e01b145b8061026757506301ffc9a760e01b6001600160e01b03198316145b92915050565b60606002805461027c90610eb5565b80601f01602080910402602001604051908101604052809291908181526020018280546102a890610eb5565b80156102f55780601f106102ca576101008083540402835291602001916102f5565b820191906000526020600020905b8154815290600101906020018083116102d857829003601f168201915b5050505050905090565b600061030a826105df565b610327576040516333d1c03960e21b815260040160405180910390fd5b506000908152600660205260409020546001600160a01b031690565b600061034e826103f7565b9050806001600160a01b0316836001600160a01b031614156103835760405163250fdee360e21b815260040160405180910390fd5b336001600160a01b038216148015906103a357506103a181336101ed565b155b156103c1576040516367d9dca160e11b815260040160405180910390fd5b6103cc83838361060a565b505050565b6103cc838383610666565b6103cc838383604051806020016040528060008152506104fc565b600061040282610852565b5192915050565b60006001600160a01b038216610432576040516323d3ad8160e21b815260040160405180910390fd5b506001600160a01b03166000908152600560205260409020546001600160401b031690565b60606003805461027c90610eb5565b6001600160a01b0382163314156104905760405163b06307db60e01b815260040160405180910390fd5b3360008181526007602090815260408083206001600160a01b03871680855290835292819020805460ff191686151590811790915590519081529192917f17307eab39ab6107e8899845ad3d59bd9653f200f220920489ca2b5937696c31910160405180910390a35050565b610507848484610666565b6001600160a01b0383163b1515801561052957506105278484848461096c565b155b15610547576040516368d2bf6b60e11b815260040160405180910390fd5b50505050565b6060610558826105df565b61057557604051630a14c4b560e41b815260040160405180910390fd5b600061058c60408051602081019091526000815290565b90508051600014156105ad57604051806020016040528060008152506105d8565b806105b784610a64565b6040516020016105c8929190610dc7565b6040516020818303038152906040525b9392505050565b6000805482108015610267575050600090815260046020526040902054600160e01b900460ff161590565b60008281526006602052604080822080546001600160a01b0319166001600160a01b0387811691821790925591518593918516917f8c5be1e5ebec7d5bd14f71427d1e84f3dd0314c0f7b2291e5b200ac8c7c3b92591a4505050565b600061067182610852565b9050836001600160a01b031681600001516001600160a01b0316146106a85760405162a1148160e81b815260040160405180910390fd5b6000336001600160a01b03861614806106c657506106c685336101ed565b806106e15750336106d6846102ff565b6001600160a01b0316145b90508061070157604051632ce44b5f60e11b815260040160405180910390fd5b6001600160a01b03841661072857604051633a954ecd60e21b815260040160405180910390fd5b6107346000848761060a565b6001600160a01b03858116600090815260056020908152604080832080546001600160401b03198082166001600160401b0392831660001901831617909255898616808652838620805493841693831660019081018416949094179055898652600490945282852080546001600160e01b031916909417600160a01b4290921691909102178355870180845292208054919390911661080757600054821461080757805460208601516001600160401b0316600160a01b026001600160e01b03199091166001600160a01b038a16171781555b50505082846001600160a01b0316866001600160a01b03167fddf252ad1be2c89b69c2b068fc378daa952ba7f163c4a11628f55a4df523b3ef60405160405180910390a45050505050565b60408051606081018252600080825260208201819052918101919091528160005481101561095357600081815260046020908152604091829020825160608101845290546001600160a01b0381168252600160a01b81046001600160401b031692820192909252600160e01b90910460ff161515918101829052906109515780516001600160a01b0316156108e8579392505050565b5060001901600081815260046020908152604091829020825160608101845290546001600160a01b038116808352600160a01b82046001600160401b031693830193909352600160e01b900460ff161515928101929092521561094c579392505050565b6108e8565b505b604051636f96cda160e11b815260040160405180910390fd5b604051630a85bd0160e11b81526000906001600160a01b0385169063150b7a02906109a1903390899088908890600401610df6565b602060405180830381600087803b1580156109bb57600080fd5b505af19250505080156109eb575060408051601f3d908101601f191682019092526109e891810190610d65565b60015b610a46573d808015610a19576040519150601f19603f3d011682016040523d82523d6000602084013e610a1e565b606091505b508051610a3e576040516368d2bf6b60e11b815260040160405180910390fd5b805181602001fd5b6001600160e01b031916630a85bd0160e11b1490505b949350505050565b606081610a885750506040805180820190915260018152600360fc1b602082015290565b8160005b8115610ab25780610a9c81610ef0565b9150610aab9050600a83610e5e565b9150610a8c565b6000816001600160401b03811115610acc57610acc610f61565b6040519080825280601f01601f191660200182016040528015610af6576020820181803683370190505b5090505b8415610a5c57610b0b600183610e72565b9150610b18600a86610f0b565b610b23906030610e46565b60f81b818381518110610b3857610b38610f4b565b60200101906001600160f81b031916908160001a905350610b5a600a86610e5e565b9450610afa565b80356001600160a01b0381168114610b7857600080fd5b919050565b600060208284031215610b8f57600080fd5b6105d882610b61565b60008060408385031215610bab57600080fd5b610bb483610b61565b9150610bc260208401610b61565b90509250929050565b600080600060608486031215610be057600080fd5b610be984610b61565b9250610bf760208501610b61565b9150604084013590509250925092565b60008060008060808587031215610c1d57600080fd5b610c2685610b61565b9350610c3460208601610b61565b92506040850135915060608501356001600160401b0380821115610c5757600080fd5b818701915087601f830112610c6b57600080fd5b813581811115610c7d57610c7d610f61565b604051601f8201601f19908116603f01168101908382118183101715610ca557610ca5610f61565b816040528281528a6020848701011115610cbe57600080fd5b82602086016020830137600060208483010152809550505050505092959194509250565b60008060408385031215610cf557600080fd5b610cfe83610b61565b915060208301358015158114610d1357600080fd5b809150509250929050565b60008060408385031215610d3157600080fd5b610d3a83610b61565b946020939093013593505050565b600060208284031215610d5a57600080fd5b81356105d881610f77565b600060208284031215610d7757600080fd5b81516105d881610f77565b600060208284031215610d9457600080fd5b5035919050565b60008151808452610db3816020860160208601610e89565b601f01601f19169290920160200192915050565b60008351610dd9818460208801610e89565b835190830190610ded818360208801610e89565b01949350505050565b6001600160a01b0385811682528416602082015260408101839052608060608201819052600090610e2990830184610d9b565b9695505050505050565b6020815260006105d86020830184610d9b565b60008219821115610e5957610e59610f1f565b500190565b600082610e6d57610e6d610f35565b500490565b600082821015610e8457610e84610f1f565b500390565b60005b83811015610ea4578181015183820152602001610e8c565b838111156105475750506000910152565b600181811c90821680610ec957607f821691505b60208210811415610eea57634e487b7160e01b600052602260045260246000fd5b50919050565b6000600019821415610f0457610f04610f1f565b5060010190565b600082610f1a57610f1a610f35565b500690565b634e487b7160e01b600052601160045260246000fd5b634e487b7160e01b600052601260045260246000fd5b634e487b7160e01b600052603260045260246000fd5b634e487b7160e01b600052604160045260246000fd5b6001600160e01b031981168114610f8d57600080fd5b5056fea264697066735822122085d4609277ea72a13192bcea4816c1005afadeb08b9acfa672f5d6c0f65cca9564736f6c63430008070033",
  "immutableReferences": {},
  "source": "// SPDX-License-Identifier: MIT\r\n// Creator: Chiru Labs\r\n\r\npragma solidity ^0.8.4;\r\n\r\nimport './IERC721A.sol';\r\nimport '@openzeppelin/contracts/token/ERC721/IERC721Receiver.sol';\r\nimport '@openzeppelin/contracts/utils/Address.sol';\r\nimport '@openzeppelin/contracts/utils/Context.sol';\r\nimport '@openzeppelin/contracts/utils/Strings.sol';\r\nimport '@openzeppelin/contracts/utils/introspection/ERC165.sol';\r\n\r\n/**\r\n * @dev Implementation of https://eips.ethereum.org/EIPS/eip-721[ERC721] Non-Fungible Token Standard, including\r\n * the Metadata extension. Built to optimize for lower gas during batch mints.\r\n *\r\n * Assumes serials are sequentially minted starting at _startTokenId() (defaults to 0, e.g. 0, 1, 2, 3..).\r\n *\r\n * Assumes that an owner cannot have more than 2**64 - 1 (max value of uint64) of supply.\r\n *\r\n * Assumes that the maximum token id cannot exceed 2**256 - 1 (max value of uint256).\r\n */\r\ncontract ERC721A is Context, ERC165, IERC721A {\r\n    using Address for address;\r\n    using Strings for uint256;\r\n\r\n    // The tokenId of the next token to be minted.\r\n    uint256 internal _currentIndex;\r\n\r\n    // The number of tokens burned.\r\n    uint256 internal _burnCounter;\r\n\r\n    // Token name\r\n    string private _name;\r\n\r\n    // Token symbol\r\n    string private _symbol;\r\n\r\n    // Mapping from token ID to ownership details\r\n    // An empty struct value does not necessarily mean the token is unowned. See _ownershipOf implementation for details.\r\n    mapping(uint256 => TokenOwnership) internal _ownerships;\r\n\r\n    // Mapping owner address to address data\r\n    mapping(address => AddressData) private _addressData;\r\n\r\n    // Mapping from token ID to approved address\r\n    mapping(uint256 => address) private _tokenApprovals;\r\n\r\n    // Mapping from owner to operator approvals\r\n    mapping(address => mapping(address => bool)) private _operatorApprovals;\r\n\r\n    constructor(string memory name_, string memory symbol_) {\r\n        _name = name_;\r\n        _symbol = symbol_;\r\n        _currentIndex = _startTokenId();\r\n    }\r\n\r\n    /**\r\n     * To change the starting tokenId, please override this function.\r\n     */\r\n    function _startTokenId() internal view virtual returns (uint256) {\r\n        return 0;\r\n    }\r\n\r\n    /**\r\n     * @dev Burned tokens are calculated here, use _totalMinted() if you want to count just minted tokens.\r\n     */\r\n    function totalSupply() public view override returns (uint256) {\r\n        // Counter underflow is impossible as _burnCounter cannot be incremented\r\n        // more than _currentIndex - _startTokenId() times\r\n        unchecked {\r\n            return _currentIndex - _burnCounter - _startTokenId();\r\n        }\r\n    }\r\n\r\n    /**\r\n     * Returns the total amount of tokens minted in the contract.\r\n     */\r\n    function _totalMinted() internal view returns (uint256) {\r\n        // Counter underflow is impossible as _currentIndex does not decrement,\r\n        // and it is initialized to _startTokenId()\r\n        unchecked {\r\n            return _currentIndex - _startTokenId();\r\n        }\r\n    }\r\n\r\n    /**\r\n     * @dev See {IERC165-supportsInterface}.\r\n     */\r\n    function supportsInterface(bytes4 interfaceId) public view virtual override(ERC165, IERC165) returns (bool) {\r\n        return\r\n            interfaceId == type(IERC721).interfaceId ||\r\n            interfaceId == type(IERC721Metadata).interfaceId ||\r\n            super.supportsInterface(interfaceId);\r\n    }\r\n\r\n    /**\r\n     * @dev See {IERC721-balanceOf}.\r\n     */\r\n    function balanceOf(address owner) public view override returns (uint256) {\r\n        if (owner == address(0)) revert BalanceQueryForZeroAddress();\r\n        return uint256(_addressData[owner].balance);\r\n    }\r\n\r\n    /**\r\n     * Returns the number of tokens minted by `owner`.\r\n     */\r\n    function _numberMinted(address owner) internal view returns (uint256) {\r\n        return uint256(_addressData[owner].numberMinted);\r\n    }\r\n\r\n    /**\r\n     * Returns the number of tokens burned by or on behalf of `owner`.\r\n     */\r\n    function _numberBurned(address owner) internal view returns (uint256) {\r\n        return uint256(_addressData[owner].numberBurned);\r\n    }\r\n\r\n    /**\r\n     * Returns the auxillary data for `owner`. (e.g. number of whitelist mint slots used).\r\n     */\r\n    function _getAux(address owner) internal view returns (uint64) {\r\n        return _addressData[owner].aux;\r\n    }\r\n\r\n    /**\r\n     * Sets the auxillary data for `owner`. (e.g. number of whitelist mint slots used).\r\n     * If there are multiple variables, please pack them into a uint64.\r\n     */\r\n    function _setAux(address owner, uint64 aux) internal {\r\n        _addressData[owner].aux = aux;\r\n    }\r\n\r\n    /**\r\n     * Gas spent here starts off proportional to the maximum mint batch size.\r\n     * It gradually moves to O(1) as tokens get transferred around in the collection over time.\r\n     */\r\n    function _ownershipOf(uint256 tokenId) internal view returns (TokenOwnership memory) {\r\n        uint256 curr = tokenId;\r\n\r\n        unchecked {\r\n            if (_startTokenId() <= curr && curr < _currentIndex) {\r\n                TokenOwnership memory ownership = _ownerships[curr];\r\n                if (!ownership.burned) {\r\n                    if (ownership.addr != address(0)) {\r\n                        return ownership;\r\n                    }\r\n                    // Invariant:\r\n                    // There will always be an ownership that has an address and is not burned\r\n                    // before an ownership that does not have an address and is not burned.\r\n                    // Hence, curr will not underflow.\r\n                    while (true) {\r\n                        curr--;\r\n                        ownership = _ownerships[curr];\r\n                        if (ownership.addr != address(0)) {\r\n                            return ownership;\r\n                        }\r\n                    }\r\n                }\r\n            }\r\n        }\r\n        revert OwnerQueryForNonexistentToken();\r\n    }\r\n\r\n    /**\r\n     * @dev See {IERC721-ownerOf}.\r\n     */\r\n    function ownerOf(uint256 tokenId) public view override returns (address) {\r\n        return _ownershipOf(tokenId).addr;\r\n    }\r\n\r\n    /**\r\n     * @dev See {IERC721Metadata-name}.\r\n     */\r\n    function name() public view virtual override returns (string memory) {\r\n        return _name;\r\n    }\r\n\r\n    /**\r\n     * @dev See {IERC721Metadata-symbol}.\r\n     */\r\n    function symbol() public view virtual override returns (string memory) {\r\n        return _symbol;\r\n    }\r\n\r\n    /**\r\n     * @dev See {IERC721Metadata-tokenURI}.\r\n     */\r\n    function tokenURI(uint256 tokenId) public view virtual override returns (string memory) {\r\n        if (!_exists(tokenId)) revert URIQueryForNonexistentToken();\r\n\r\n        string memory baseURI = _baseURI();\r\n        return bytes(baseURI).length != 0 ? string(abi.encodePacked(baseURI, tokenId.toString())) : '';\r\n    }\r\n\r\n    /**\r\n     * @dev Base URI for computing {tokenURI}. If set, the resulting URI for each\r\n     * token will be the concatenation of the `baseURI` and the `tokenId`. Empty\r\n     * by default, can be overriden in child contracts.\r\n     */\r\n    function _baseURI() internal view virtual returns (string memory) {\r\n        return '';\r\n    }\r\n\r\n    /**\r\n     * @dev See {IERC721-approve}.\r\n     */\r\n    function approve(address to, uint256 tokenId) public override {\r\n        address owner = ERC721A.ownerOf(tokenId);\r\n        if (to == owner) revert ApprovalToCurrentOwner();\r\n\r\n        if (_msgSender() != owner && !isApprovedForAll(owner, _msgSender())) {\r\n            revert ApprovalCallerNotOwnerNorApproved();\r\n        }\r\n\r\n        _approve(to, tokenId, owner);\r\n    }\r\n\r\n    /**\r\n     * @dev See {IERC721-getApproved}.\r\n     */\r\n    function getApproved(uint256 tokenId) public view override returns (address) {\r\n        if (!_exists(tokenId)) revert ApprovalQueryForNonexistentToken();\r\n\r\n        return _tokenApprovals[tokenId];\r\n    }\r\n\r\n    /**\r\n     * @dev See {IERC721-setApprovalForAll}.\r\n     */\r\n    function setApprovalForAll(address operator, bool approved) public virtual override {\r\n        if (operator == _msgSender()) revert ApproveToCaller();\r\n\r\n        _operatorApprovals[_msgSender()][operator] = approved;\r\n        emit ApprovalForAll(_msgSender(), operator, approved);\r\n    }\r\n\r\n    /**\r\n     * @dev See {IERC721-isApprovedForAll}.\r\n     */\r\n    function isApprovedForAll(address owner, address operator) public view virtual override returns (bool) {\r\n        return _operatorApprovals[owner][operator];\r\n    }\r\n\r\n    /**\r\n     * @dev See {IERC721-transferFrom}.\r\n     */\r\n    function transferFrom(\r\n        address from,\r\n        address to,\r\n        uint256 tokenId\r\n    ) public virtual override {\r\n        _transfer(from, to, tokenId);\r\n    }\r\n\r\n    /**\r\n     * @dev See {IERC721-safeTransferFrom}.\r\n     */\r\n    function safeTransferFrom(\r\n        address from,\r\n        address to,\r\n        uint256 tokenId\r\n    ) public virtual override {\r\n        safeTransferFrom(from, to, tokenId, '');\r\n    }\r\n\r\n    /**\r\n     * @dev See {IERC721-safeTransferFrom}.\r\n     */\r\n    function safeTransferFrom(\r\n        address from,\r\n        address to,\r\n        uint256 tokenId,\r\n        bytes memory _data\r\n    ) public virtual override {\r\n        _transfer(from, to, tokenId);\r\n        if (to.isContract() && !_checkContractOnERC721Received(from, to, tokenId, _data)) {\r\n            revert TransferToNonERC721ReceiverImplementer();\r\n        }\r\n    }\r\n\r\n    /**\r\n     * @dev Returns whether `tokenId` exists.\r\n     *\r\n     * Tokens can be managed by their owner or approved accounts via {approve} or {setApprovalForAll}.\r\n     *\r\n     * Tokens start existing when they are minted (`_mint`),\r\n     */\r\n    function _exists(uint256 tokenId) internal view returns (bool) {\r\n        return _startTokenId() <= tokenId && tokenId < _currentIndex && !_ownerships[tokenId].burned;\r\n    }\r\n\r\n    /**\r\n     * @dev Equivalent to `_safeMint(to, quantity, '')`.\r\n     */\r\n    function _safeMint(address to, uint256 quantity) internal {\r\n        _safeMint(to, quantity, '');\r\n    }\r\n\r\n    /**\r\n     * @dev Safely mints `quantity` tokens and transfers them to `to`.\r\n     *\r\n     * Requirements:\r\n     *\r\n     * - If `to` refers to a smart contract, it must implement\r\n     *   {IERC721Receiver-onERC721Received}, which is called for each safe transfer.\r\n     * - `quantity` must be greater than 0.\r\n     *\r\n     * Emits a {Transfer} event.\r\n     */\r\n    function _safeMint(\r\n        address to,\r\n        uint256 quantity,\r\n        bytes memory _data\r\n    ) internal {\r\n        uint256 startTokenId = _currentIndex;\r\n        if (to == address(0)) revert MintToZeroAddress();\r\n        if (quantity == 0) revert MintZeroQuantity();\r\n\r\n        _beforeTokenTransfers(address(0), to, startTokenId, quantity);\r\n\r\n        // Overflows are incredibly unrealistic.\r\n        // balance or numberMinted overflow if current value of either + quantity > 1.8e19 (2**64) - 1\r\n        // updatedIndex overflows if _currentIndex + quantity > 1.2e77 (2**256) - 1\r\n        unchecked {\r\n            _addressData[to].balance += uint64(quantity);\r\n            _addressData[to].numberMinted += uint64(quantity);\r\n\r\n            _ownerships[startTokenId].addr = to;\r\n            _ownerships[startTokenId].startTimestamp = uint64(block.timestamp);\r\n\r\n            uint256 updatedIndex = startTokenId;\r\n            uint256 end = updatedIndex + quantity;\r\n\r\n            if (to.isContract()) {\r\n                do {\r\n                    emit Transfer(address(0), to, updatedIndex);\r\n                    if (!_checkContractOnERC721Received(address(0), to, updatedIndex++, _data)) {\r\n                        revert TransferToNonERC721ReceiverImplementer();\r\n                    }\r\n                } while (updatedIndex < end);\r\n                // Reentrancy protection\r\n                if (_currentIndex != startTokenId) revert();\r\n            } else {\r\n                do {\r\n                    emit Transfer(address(0), to, updatedIndex++);\r\n                } while (updatedIndex < end);\r\n            }\r\n            _currentIndex = updatedIndex;\r\n        }\r\n        _afterTokenTransfers(address(0), to, startTokenId, quantity);\r\n    }\r\n\r\n    /**\r\n     * @dev Mints `quantity` tokens and transfers them to `to`.\r\n     *\r\n     * Requirements:\r\n     *\r\n     * - `to` cannot be the zero address.\r\n     * - `quantity` must be greater than 0.\r\n     *\r\n     * Emits a {Transfer} event.\r\n     */\r\n    function _mint(address to, uint256 quantity) internal {\r\n        uint256 startTokenId = _currentIndex;\r\n        if (to == address(0)) revert MintToZeroAddress();\r\n        if (quantity == 0) revert MintZeroQuantity();\r\n\r\n        _beforeTokenTransfers(address(0), to, startTokenId, quantity);\r\n\r\n        // Overflows are incredibly unrealistic.\r\n        // balance or numberMinted overflow if current value of either + quantity > 1.8e19 (2**64) - 1\r\n        // updatedIndex overflows if _currentIndex + quantity > 1.2e77 (2**256) - 1\r\n        unchecked {\r\n            _addressData[to].balance += uint64(quantity);\r\n            _addressData[to].numberMinted += uint64(quantity);\r\n\r\n            _ownerships[startTokenId].addr = to;\r\n            _ownerships[startTokenId].startTimestamp = uint64(block.timestamp);\r\n\r\n            uint256 updatedIndex = startTokenId;\r\n            uint256 end = updatedIndex + quantity;\r\n\r\n            do {\r\n                emit Transfer(address(0), to, updatedIndex++);\r\n            } while (updatedIndex < end);\r\n\r\n            _currentIndex = updatedIndex;\r\n        }\r\n        _afterTokenTransfers(address(0), to, startTokenId, quantity);\r\n    }\r\n\r\n    /**\r\n     * @dev Transfers `tokenId` from `from` to `to`.\r\n     *\r\n     * Requirements:\r\n     *\r\n     * - `to` cannot be the zero address.\r\n     * - `tokenId` token must be owned by `from`.\r\n     *\r\n     * Emits a {Transfer} event.\r\n     */\r\n    function _transfer(\r\n        address from,\r\n        address to,\r\n        uint256 tokenId\r\n    ) private {\r\n        TokenOwnership memory prevOwnership = _ownershipOf(tokenId);\r\n\r\n        if (prevOwnership.addr != from) revert TransferFromIncorrectOwner();\r\n\r\n        bool isApprovedOrOwner = (_msgSender() == from ||\r\n            isApprovedForAll(from, _msgSender()) ||\r\n            getApproved(tokenId) == _msgSender());\r\n\r\n        if (!isApprovedOrOwner) revert TransferCallerNotOwnerNorApproved();\r\n        if (to == address(0)) revert TransferToZeroAddress();\r\n\r\n        _beforeTokenTransfers(from, to, tokenId, 1);\r\n\r\n        // Clear approvals from the previous owner\r\n        _approve(address(0), tokenId, from);\r\n\r\n        // Underflow of the sender's balance is impossible because we check for\r\n        // ownership above and the recipient's balance can't realistically overflow.\r\n        // Counter overflow is incredibly unrealistic as tokenId would have to be 2**256.\r\n        unchecked {\r\n            _addressData[from].balance -= 1;\r\n            _addressData[to].balance += 1;\r\n\r\n            TokenOwnership storage currSlot = _ownerships[tokenId];\r\n            currSlot.addr = to;\r\n            currSlot.startTimestamp = uint64(block.timestamp);\r\n\r\n            // If the ownership slot of tokenId+1 is not explicitly set, that means the transfer initiator owns it.\r\n            // Set the slot of tokenId+1 explicitly in storage to maintain correctness for ownerOf(tokenId+1) calls.\r\n            uint256 nextTokenId = tokenId + 1;\r\n            TokenOwnership storage nextSlot = _ownerships[nextTokenId];\r\n            if (nextSlot.addr == address(0)) {\r\n                // This will suffice for checking _exists(nextTokenId),\r\n                // as a burned slot cannot contain the zero address.\r\n                if (nextTokenId != _currentIndex) {\r\n                    nextSlot.addr = from;\r\n                    nextSlot.startTimestamp = prevOwnership.startTimestamp;\r\n                }\r\n            }\r\n        }\r\n\r\n        emit Transfer(from, to, tokenId);\r\n        _afterTokenTransfers(from, to, tokenId, 1);\r\n    }\r\n\r\n    /**\r\n     * @dev Equivalent to `_burn(tokenId, false)`.\r\n     */\r\n    function _burn(uint256 tokenId) internal virtual {\r\n        _burn(tokenId, false);\r\n    }\r\n\r\n    /**\r\n     * @dev Destroys `tokenId`.\r\n     * The approval is cleared when the token is burned.\r\n     *\r\n     * Requirements:\r\n     *\r\n     * - `tokenId` must exist.\r\n     *\r\n     * Emits a {Transfer} event.\r\n     */\r\n    function _burn(uint256 tokenId, bool approvalCheck) internal virtual {\r\n        TokenOwnership memory prevOwnership = _ownershipOf(tokenId);\r\n\r\n        address from = prevOwnership.addr;\r\n\r\n        if (approvalCheck) {\r\n            bool isApprovedOrOwner = (_msgSender() == from ||\r\n                isApprovedForAll(from, _msgSender()) ||\r\n                getApproved(tokenId) == _msgSender());\r\n\r\n            if (!isApprovedOrOwner) revert TransferCallerNotOwnerNorApproved();\r\n        }\r\n\r\n        _beforeTokenTransfers(from, address(0), tokenId, 1);\r\n\r\n        // Clear approvals from the previous owner\r\n        _approve(address(0), tokenId, from);\r\n\r\n        // Underflow of the sender's balance is impossible because we check for\r\n        // ownership above and the recipient's balance can't realistically overflow.\r\n        // Counter overflow is incredibly unrealistic as tokenId would have to be 2**256.\r\n        unchecked {\r\n            AddressData storage addressData = _addressData[from];\r\n            addressData.balance -= 1;\r\n            addressData.numberBurned += 1;\r\n\r\n            // Keep track of who burned the token, and the timestamp of burning.\r\n            TokenOwnership storage currSlot = _ownerships[tokenId];\r\n            currSlot.addr = from;\r\n            currSlot.startTimestamp = uint64(block.timestamp);\r\n            currSlot.burned = true;\r\n\r\n            // If the ownership slot of tokenId+1 is not explicitly set, that means the burn initiator owns it.\r\n            // Set the slot of tokenId+1 explicitly in storage to maintain correctness for ownerOf(tokenId+1) calls.\r\n            uint256 nextTokenId = tokenId + 1;\r\n            TokenOwnership storage nextSlot = _ownerships[nextTokenId];\r\n            if (nextSlot.addr == address(0)) {\r\n                // This will suffice for checking _exists(nextTokenId),\r\n                // as a burned slot cannot contain the zero address.\r\n                if (nextTokenId != _currentIndex) {\r\n                    nextSlot.addr = from;\r\n                    nextSlot.startTimestamp = prevOwnership.startTimestamp;\r\n                }\r\n            }\r\n        }\r\n\r\n        emit Transfer(from, address(0), tokenId);\r\n        _afterTokenTransfers(from, address(0), tokenId, 1);\r\n\r\n        // Overflow not possible, as _burnCounter cannot be exceed _currentIndex times.\r\n        unchecked {\r\n            _burnCounter++;\r\n        }\r\n    }\r\n\r\n    /**\r\n     * @dev Approve `to` to operate on `tokenId`\r\n     *\r\n     * Emits a {Approval} event.\r\n     */\r\n    function _approve(\r\n        address to,\r\n        uint256 tokenId,\r\n        address owner\r\n    ) private {\r\n        _tokenApprovals[tokenId] = to;\r\n        emit Approval(owner, to, tokenId);\r\n    }\r\n\r\n    /**\r\n     * @dev Internal function to invoke {IERC721Receiver-onERC721Received} on a target contract.\r\n     *\r\n     * @param from address representing the previous owner of the given token ID\r\n     * @param to target address that will receive the tokens\r\n     * @param tokenId uint256 ID of the token to be transferred\r\n     * @param _data bytes optional data to send along with the call\r\n     * @return bool whether the call correctly returned the expected magic value\r\n     */\r\n    function _checkContractOnERC721Received(\r\n        address from,\r\n        address to,\r\n        uint256 tokenId,\r\n        bytes memory _data\r\n    ) private returns (bool) {\r\n        try IERC721Receiver(to).onERC721Received(_msgSender(), from, tokenId, _data) returns (bytes4 retval) {\r\n            return retval == IERC721Receiver(to).onERC721Received.selector;\r\n        } catch (bytes memory reason) {\r\n            if (reason.length == 0) {\r\n                revert TransferToNonERC721ReceiverImplementer();\r\n            } else {\r\n                assembly {\r\n                    revert(add(32, reason), mload(reason))\r\n                }\r\n            }\r\n        }\r\n    }\r\n\r\n    /**\r\n     * @dev Hook that is called before a set of serially-ordered token ids are about to be transferred. This includes minting.\r\n     * And also called before burning one token.\r\n     *\r\n     * startTokenId - the first token id to be transferred\r\n     * quantity - the amount to be transferred\r\n     *\r\n     * Calling conditions:\r\n     *\r\n     * - When `from` and `to` are both non-zero, `from`'s `tokenId` will be\r\n     * transferred to `to`.\r\n     * - When `from` is zero, `tokenId` will be minted for `to`.\r\n     * - When `to` is zero, `tokenId` will be burned by `from`.\r\n     * - `from` and `to` are never both zero.\r\n     */\r\n    function _beforeTokenTransfers(\r\n        address from,\r\n        address to,\r\n        uint256 startTokenId,\r\n        uint256 quantity\r\n    ) internal virtual {}\r\n\r\n    /**\r\n     * @dev Hook that is called after a set of serially-ordered token ids have been transferred. This includes\r\n     * minting.\r\n     * And also called after one token has been burned.\r\n     *\r\n     * startTokenId - the first token id to be transferred\r\n     * quantity - the amount to be transferred\r\n     *\r\n     * Calling conditions:\r\n     *\r\n     * - When `from` and `to` are both non-zero, `from`'s `tokenId` has been\r\n     * transferred to `to`.\r\n     * - When `from` is zero, `tokenId` has been minted for `to`.\r\n     * - When `to` is zero, `tokenId` has been burned by `from`.\r\n     * - `from` and `to` are never both zero.\r\n     */\r\n    function _afterTokenTransfers(\r\n        address from,\r\n        address to,\r\n        uint256 startTokenId,\r\n        uint256 quantity\r\n    ) internal virtual {}\r\n}",
  "sourcePath": "C:\\Users\\Favou\\Documents\\Workspace\\Clever Programmer\\contracts\\ERC721A.sol",
  "compiler": {
    "name": "solc",
    "version": "0.8.7+commit.e28d00a7.Emscripten.clang"
  },
  "schemaVersion": "3.4.4",
  "updatedAt": "2022-05-18T17:03:46.719Z",
  "devdoc": {
    "details": "Implementation of https://eips.ethereum.org/EIPS/eip-721[ERC721] Non-Fungible Token Standard, including the Metadata extension. Built to optimize for lower gas during batch mints. Assumes serials are sequentially minted starting at _startTokenId() (defaults to 0, e.g. 0, 1, 2, 3..). Assumes that an owner cannot have more than 2**64 - 1 (max value of uint64) of supply. Assumes that the maximum token id cannot exceed 2**256 - 1 (max value of uint256).",
    "kind": "dev",
    "methods": {
      "approve(address,uint256)": {
        "details": "See {IERC721-approve}."
      },
      "balanceOf(address)": {
        "details": "See {IERC721-balanceOf}."
      },
      "getApproved(uint256)": {
        "details": "See {IERC721-getApproved}."
      },
      "isApprovedForAll(address,address)": {
        "details": "See {IERC721-isApprovedForAll}."
      },
      "name()": {
        "details": "See {IERC721Metadata-name}."
      },
      "ownerOf(uint256)": {
        "details": "See {IERC721-ownerOf}."
      },
      "safeTransferFrom(address,address,uint256)": {
        "details": "See {IERC721-safeTransferFrom}."
      },
      "safeTransferFrom(address,address,uint256,bytes)": {
        "details": "See {IERC721-safeTransferFrom}."
      },
      "setApprovalForAll(address,bool)": {
        "details": "See {IERC721-setApprovalForAll}."
      },
      "supportsInterface(bytes4)": {
        "details": "See {IERC165-supportsInterface}."
      },
      "symbol()": {
        "details": "See {IERC721Metadata-symbol}."
      },
      "tokenURI(uint256)": {
        "details": "See {IERC721Metadata-tokenURI}."
      },
      "totalSupply()": {
        "details": "Burned tokens are calculated here, use _totalMinted() if you want to count just minted tokens."
      },
      "transferFrom(address,address,uint256)": {
        "details": "See {IERC721-transferFrom}."
      }
    },
    "version": 1
  },
  "userdoc": {
    "errors": {
      "ApprovalCallerNotOwnerNorApproved()": [
        {
          "notice": "The caller must own the token or be an approved operator."
        }
      ],
      "ApprovalQueryForNonexistentToken()": [
        {
          "notice": "The token does not exist."
        }
      ],
      "ApprovalToCurrentOwner()": [
        {
          "notice": "The caller cannot approve to the current owner."
        }
      ],
      "ApproveToCaller()": [
        {
          "notice": "The caller cannot approve to their own address."
        }
      ],
      "BalanceQueryForZeroAddress()": [
        {
          "notice": "Cannot query the balance for the zero address."
        }
      ],
      "MintToZeroAddress()": [
        {
          "notice": "Cannot mint to the zero address."
        }
      ],
      "MintZeroQuantity()": [
        {
          "notice": "The quantity of tokens minted must be more than zero."
        }
      ],
      "OwnerQueryForNonexistentToken()": [
        {
          "notice": "The token does not exist."
        }
      ],
      "TransferCallerNotOwnerNorApproved()": [
        {
          "notice": "The caller must own the token or be an approved operator."
        }
      ],
      "TransferFromIncorrectOwner()": [
        {
          "notice": "The token must be owned by `from`."
        }
      ],
      "TransferToNonERC721ReceiverImplementer()": [
        {
          "notice": "Cannot safely transfer to a contract that does not implement the ERC721Receiver interface."
        }
      ],
      "TransferToZeroAddress()": [
        {
          "notice": "Cannot transfer to the zero address."
        }
      ],
      "URIQueryForNonexistentToken()": [
        {
          "notice": "The token does not exist."
        }
      ]
    },
    "kind": "user",
    "methods": {},
    "version": 1
  }
}