{
  "contractName": "NFTMarketplace",
  "abi": [
    {
      "inputs": [
        {
          "internalType": "address",
          "name": "accessNFTAddress_",
          "type": "address"
        },
        {
          "internalType": "address",
          "name": "cleverNFTAddress_",
          "type": "address"
        }
      ],
      "stateMutability": "nonpayable",
      "type": "constructor"
    },
    {
      "anonymous": false,
      "inputs": [
        {
          "indexed": true,
          "internalType": "uint256",
          "name": "listingId",
          "type": "uint256"
        },
        {
          "indexed": false,
          "internalType": "address",
          "name": "NFTContractAddress",
          "type": "address"
        },
        {
          "indexed": false,
          "internalType": "uint256",
          "name": "tokenId",
          "type": "uint256"
        },
        {
          "indexed": true,
          "internalType": "address",
          "name": "ownerAddress",
          "type": "address"
        },
        {
          "indexed": false,
          "internalType": "uint256",
          "name": "price",
          "type": "uint256"
        },
        {
          "indexed": false,
          "internalType": "string",
          "name": "status",
          "type": "string"
        }
      ],
      "name": "ListingAdded",
      "type": "event"
    },
    {
      "anonymous": false,
      "inputs": [
        {
          "indexed": true,
          "internalType": "uint256",
          "name": "listingId",
          "type": "uint256"
        },
        {
          "indexed": true,
          "internalType": "address",
          "name": "buyerAddress",
          "type": "address"
        },
        {
          "indexed": true,
          "internalType": "address",
          "name": "previousOwnerAddress",
          "type": "address"
        },
        {
          "indexed": false,
          "internalType": "uint256",
          "name": "price",
          "type": "uint256"
        }
      ],
      "name": "ListingBought",
      "type": "event"
    },
    {
      "anonymous": false,
      "inputs": [
        {
          "indexed": false,
          "internalType": "uint256",
          "name": "listingId",
          "type": "uint256"
        }
      ],
      "name": "ListingRemoved",
      "type": "event"
    },
    {
      "anonymous": false,
      "inputs": [
        {
          "indexed": true,
          "internalType": "address",
          "name": "to",
          "type": "address"
        }
      ],
      "name": "MintCleverNFT",
      "type": "event"
    },
    {
      "anonymous": false,
      "inputs": [
        {
          "indexed": true,
          "internalType": "address",
          "name": "previousOwner",
          "type": "address"
        },
        {
          "indexed": true,
          "internalType": "address",
          "name": "newOwner",
          "type": "address"
        }
      ],
      "name": "OwnershipTransferred",
      "type": "event"
    },
    {
      "anonymous": false,
      "inputs": [
        {
          "indexed": true,
          "internalType": "address",
          "name": "tokenAddress",
          "type": "address"
        },
        {
          "indexed": false,
          "internalType": "string",
          "name": "tokenName",
          "type": "string"
        }
      ],
      "name": "TokenAdded",
      "type": "event"
    },
    {
      "anonymous": false,
      "inputs": [
        {
          "indexed": true,
          "internalType": "address",
          "name": "tokenAddress",
          "type": "address"
        }
      ],
      "name": "TokenRemoved",
      "type": "event"
    },
    {
      "anonymous": false,
      "inputs": [
        {
          "indexed": true,
          "internalType": "address",
          "name": "tokenAddress",
          "type": "address"
        },
        {
          "indexed": true,
          "internalType": "address",
          "name": "buyerAddress",
          "type": "address"
        },
        {
          "indexed": false,
          "internalType": "uint256",
          "name": "amount",
          "type": "uint256"
        }
      ],
      "name": "TokenRequested",
      "type": "event"
    },
    {
      "anonymous": false,
      "inputs": [
        {
          "indexed": true,
          "internalType": "address",
          "name": "tokenAddress",
          "type": "address"
        },
        {
          "indexed": true,
          "internalType": "address",
          "name": "buyerAddress",
          "type": "address"
        },
        {
          "indexed": false,
          "internalType": "uint256",
          "name": "amount",
          "type": "uint256"
        },
        {
          "indexed": true,
          "internalType": "string",
          "name": "direction",
          "type": "string"
        }
      ],
      "name": "TokenSwapped",
      "type": "event"
    },
    {
      "inputs": [],
      "name": "accessNFTAddress",
      "outputs": [
        {
          "internalType": "address",
          "name": "",
          "type": "address"
        }
      ],
      "stateMutability": "view",
      "type": "function",
      "constant": true
    },
    {
      "inputs": [
        {
          "internalType": "address",
          "name": "",
          "type": "address"
        },
        {
          "internalType": "address",
          "name": "",
          "type": "address"
        }
      ],
      "name": "claimedTokens",
      "outputs": [
        {
          "internalType": "bool",
          "name": "",
          "type": "bool"
        }
      ],
      "stateMutability": "view",
      "type": "function",
      "constant": true
    },
    {
      "inputs": [],
      "name": "cleverNFTAddress",
      "outputs": [
        {
          "internalType": "address",
          "name": "",
          "type": "address"
        }
      ],
      "stateMutability": "view",
      "type": "function",
      "constant": true
    },
    {
      "inputs": [],
      "name": "listingCount",
      "outputs": [
        {
          "internalType": "uint256",
          "name": "",
          "type": "uint256"
        }
      ],
      "stateMutability": "view",
      "type": "function",
      "constant": true
    },
    {
      "inputs": [
        {
          "internalType": "uint256",
          "name": "",
          "type": "uint256"
        }
      ],
      "name": "listings",
      "outputs": [
        {
          "internalType": "uint256",
          "name": "id",
          "type": "uint256"
        },
        {
          "internalType": "address",
          "name": "NFTContractAddress",
          "type": "address"
        },
        {
          "internalType": "uint256",
          "name": "tokenId",
          "type": "uint256"
        },
        {
          "internalType": "address",
          "name": "ownerAddress",
          "type": "address"
        },
        {
          "internalType": "uint256",
          "name": "price",
          "type": "uint256"
        },
        {
          "internalType": "string",
          "name": "status",
          "type": "string"
        }
      ],
      "stateMutability": "view",
      "type": "function",
      "constant": true
    },
    {
      "inputs": [],
      "name": "minimumRequestableTokens",
      "outputs": [
        {
          "internalType": "uint256",
          "name": "",
          "type": "uint256"
        }
      ],
      "stateMutability": "view",
      "type": "function",
      "constant": true
    },
    {
      "inputs": [],
      "name": "owner",
      "outputs": [
        {
          "internalType": "address",
          "name": "",
          "type": "address"
        }
      ],
      "stateMutability": "view",
      "type": "function",
      "constant": true
    },
    {
      "inputs": [],
      "name": "renounceOwnership",
      "outputs": [],
      "stateMutability": "nonpayable",
      "type": "function"
    },
    {
      "inputs": [
        {
          "internalType": "uint256",
          "name": "",
          "type": "uint256"
        }
      ],
      "name": "tokenList",
      "outputs": [
        {
          "internalType": "address",
          "name": "tokenAddress",
          "type": "address"
        },
        {
          "internalType": "string",
          "name": "tokenName",
          "type": "string"
        }
      ],
      "stateMutability": "view",
      "type": "function",
      "constant": true
    },
    {
      "inputs": [
        {
          "internalType": "address",
          "name": "",
          "type": "address"
        }
      ],
      "name": "tokens",
      "outputs": [
        {
          "internalType": "address",
          "name": "tokenAddress",
          "type": "address"
        },
        {
          "internalType": "string",
          "name": "tokenName",
          "type": "string"
        }
      ],
      "stateMutability": "view",
      "type": "function",
      "constant": true
    },
    {
      "inputs": [
        {
          "internalType": "address",
          "name": "newOwner",
          "type": "address"
        }
      ],
      "name": "transferOwnership",
      "outputs": [],
      "stateMutability": "nonpayable",
      "type": "function"
    },
    {
      "inputs": [
        {
          "internalType": "string",
          "name": "tokenName_",
          "type": "string"
        },
        {
          "internalType": "address",
          "name": "tokenAddress_",
          "type": "address"
        }
      ],
      "name": "addToken",
      "outputs": [],
      "stateMutability": "nonpayable",
      "type": "function"
    },
    {
      "inputs": [],
      "name": "getTokens",
      "outputs": [
        {
          "components": [
            {
              "internalType": "address",
              "name": "tokenAddress",
              "type": "address"
            },
            {
              "internalType": "string",
              "name": "tokenName",
              "type": "string"
            }
          ],
          "internalType": "struct NFTMarketplace.TokenData[]",
          "name": "",
          "type": "tuple[]"
        }
      ],
      "stateMutability": "view",
      "type": "function",
      "constant": true
    },
    {
      "inputs": [
        {
          "internalType": "address",
          "name": "tokenAddress1",
          "type": "address"
        },
        {
          "internalType": "address",
          "name": "tokenAddress2",
          "type": "address"
        },
        {
          "internalType": "uint256",
          "name": "amount",
          "type": "uint256"
        }
      ],
      "name": "swapTokens",
      "outputs": [
        {
          "internalType": "bool",
          "name": "",
          "type": "bool"
        }
      ],
      "stateMutability": "nonpayable",
      "type": "function"
    },
    {
      "inputs": [
        {
          "internalType": "address",
          "name": "tokenAddress_",
          "type": "address"
        }
      ],
      "name": "requestTestToken",
      "outputs": [],
      "stateMutability": "nonpayable",
      "type": "function"
    },
    {
      "inputs": [
        {
          "internalType": "address",
          "name": "NFTContractAddress_",
          "type": "address"
        },
        {
          "internalType": "uint256",
          "name": "tokenId_",
          "type": "uint256"
        },
        {
          "internalType": "uint256",
          "name": "price_",
          "type": "uint256"
        }
      ],
      "name": "listItem",
      "outputs": [],
      "stateMutability": "nonpayable",
      "type": "function"
    },
    {
      "inputs": [
        {
          "internalType": "string",
          "name": "metadata",
          "type": "string"
        }
      ],
      "name": "mintCleverNFT",
      "outputs": [],
      "stateMutability": "nonpayable",
      "type": "function"
    },
    {
      "inputs": [
        {
          "internalType": "uint256",
          "name": "index",
          "type": "uint256"
        }
      ],
      "name": "unlistItem",
      "outputs": [],
      "stateMutability": "nonpayable",
      "type": "function"
    },
    {
      "inputs": [
        {
          "internalType": "uint256",
          "name": "index",
          "type": "uint256"
        }
      ],
      "name": "buyNFT",
      "outputs": [],
      "stateMutability": "payable",
      "type": "function",
      "payable": true
    },
    {
      "inputs": [],
      "name": "getListings",
      "outputs": [
        {
          "components": [
            {
              "internalType": "uint256",
              "name": "id",
              "type": "uint256"
            },
            {
              "internalType": "address",
              "name": "NFTContractAddress",
              "type": "address"
            },
            {
              "internalType": "uint256",
              "name": "tokenId",
              "type": "uint256"
            },
            {
              "internalType": "address",
              "name": "ownerAddress",
              "type": "address"
            },
            {
              "internalType": "uint256",
              "name": "price",
              "type": "uint256"
            },
            {
              "internalType": "string",
              "name": "status",
              "type": "string"
            }
          ],
          "internalType": "struct NFTMarketplace.ListingItem[]",
          "name": "",
          "type": "tuple[]"
        }
      ],
      "stateMutability": "view",
      "type": "function",
      "constant": true
    }
  ],
  "bytecode": "0x60806040526802b5e3af16b18800006006553480156200001e57600080fd5b50604051620028ca380380620028ca8339810160408190526200004191620000f8565b6200004c336200008b565b600780546001600160a01b039384166001600160a01b031991821617909155600880549290931691811682179092556009805490921617905562000130565b600080546001600160a01b038381166001600160a01b0319831681178455604051919092169283917f8be0079c531659141344cd1fd0a4f28419497f9722a3daafe3b4186f6b6457e09190a35050565b80516001600160a01b0381168114620000f357600080fd5b919050565b600080604083850312156200010c57600080fd5b6200011783620000db565b91506200012760208401620000db565b90509250929050565b61278a80620001406000396000f3fe6080604052600436106100ef5760003560e01c80631669fba0146100f457806318e2ed6d1461014457806351ed8288146101685780635a599da81461017d5780636ef53ce61461019d578063715018a6146101bd57806389bfd38f146101d25780638da5cb5b146101f25780639ead722214610214578063a9b07c2614610242578063aa6ca80814610258578063b0b22c2c1461027a578063d42003fc1461029a578063d657cb21146102ba578063da3a6746146102da578063de74e57b146102fa578063e48603391461032c578063ec6cc0cc1461034c578063f1b2d6a31461036c578063f2fde38b1461038e575b600080fd5b34801561010057600080fd5b5061012f61010f366004612208565b600260209081526000928352604080842090915290825290205460ff1681565b60405190151581526020015b60405180910390f35b34801561015057600080fd5b5061015a60065481565b60405190815260200161013b565b61017b610176366004612353565b6103ae565b005b34801561018957600080fd5b5061017b610198366004612353565b610760565b3480156101a957600080fd5b5061017b6101b83660046122d9565b610aac565b3480156101c957600080fd5b5061017b610c2d565b3480156101de57600080fd5b5061017b6101ed366004612282565b610c68565b3480156101fe57600080fd5b50610207610fc0565b60405161013b91906123cd565b34801561022057600080fd5b5061023461022f366004612353565b610fcf565b60405161013b929190612405565b34801561024e57600080fd5b5061015a60055481565b34801561026457600080fd5b5061026d611091565b60405161013b91906124ef565b34801561028657600080fd5b5061017b61029536600461230d565b611197565b3480156102a657600080fd5b50600854610207906001600160a01b031681565b3480156102c657600080fd5b50600754610207906001600160a01b031681565b3480156102e657600080fd5b5061017b6102f53660046121ce565b611368565b34801561030657600080fd5b5061031a610315366004612353565b6114f2565b60405161013b96959493929190612613565b34801561033857600080fd5b506102346103473660046121ce565b6115d3565b34801561035857600080fd5b5061012f610367366004612241565b611600565b34801561037857600080fd5b50610381611bdc565b60405161013b9190612442565b34801561039a57600080fd5b5061017b6103a93660046121ce565b611d0b565b6000600482815481106103c3576103c36126f3565b60009182526020918290206040805160c08101825260069093029091018054835260018101546001600160a01b0390811694840194909452600281015491830191909152600381015490921660608201526004820154608082015260058201805491929160a0840191906104369061268f565b80601f01602080910402602001604051908101604052809291908181526020018280546104629061268f565b80156104af5780601f10610484576101008083540402835291602001916104af565b820191906000526020600020905b81548152906001019060200180831161049257829003601f168201915b5050509190925250505060608101519091506001600160a01b03166104ef5760405162461bcd60e51b81526004016104e6906125e7565b60405180910390fd5b806080015134101561053a5760405162461bcd60e51b8152602060048201526014602482015273496e73756666696369656e742042616c616e636560601b60448201526064016104e6565b600081606001516001600160a01b0316826080015160405160006040518083038185875af1925050503d806000811461058f576040519150601f19603f3d011682016040523d82523d6000602084013e610594565b606091505b50509050806105da5760405162461bcd60e51b8152602060048201526012602482015271151c985b9cd858dd1a5bdb8811985a5b195960721b60448201526064016104e6565b3360608301526040805180820190915260068152651093d551d21560d21b602082015260a08301526004805483919085908110610619576106196126f3565b60009182526020918290208351600690920201908155828201516001820180546001600160a01b039283166001600160a01b0319918216179091556040850151600284015560608501516003840180549190931691161790556080830151600482015560a083015180519192610697926005850192909101906120a9565b505050602082015160408084015190516323b872dd60e01b81526001600160a01b03909216916323b872dd916106d391309133916004016123e1565b600060405180830381600087803b1580156106ed57600080fd5b505af1158015610701573d6000803e3d6000fd5b5050505081606001516001600160a01b0316336001600160a01b0316847facc22b2c51e2c9b31c108c993cebdcd72470cf6f43ed3f5590daf77046233255856080015160405161075391815260200190565b60405180910390a4505050565b60045481106107b15760405162461bcd60e51b815260206004820152601d60248201527f4572726f723a204c697374696e6720646f6573206e6f7420657869737400000060448201526064016104e6565b6000600482815481106107c6576107c66126f3565b60009182526020918290206040805160c08101825260069093029091018054835260018101546001600160a01b0390811694840194909452600281015491830191909152600381015490921660608201526004820154608082015260058201805491929160a0840191906108399061268f565b80601f01602080910402602001604051908101604052809291908181526020018280546108659061268f565b80156108b25780601f10610887576101008083540402835291602001916108b2565b820191906000526020600020905b81548152906001019060200180831161089557829003601f168201915b5050509190925250505060608101519091506001600160a01b03166108e95760405162461bcd60e51b81526004016104e6906125e7565b60608101516001600160a01b031633146109435760405162461bcd60e51b815260206004820152601b60248201527a596f7520646f206e6f74206f776e2074686973206c697374696e6760281b60448201526064016104e6565b604051806040016040528060088152602001671553931254d5115160c21b8152508160a001819052508060048381548110610980576109806126f3565b60009182526020918290208351600690920201908155828201516001820180546001600160a01b039283166001600160a01b0319918216179091556040850151600284015560608501516003840180549190931691161790556080830151600482015560a0830151805191926109fe926005850192909101906120a9565b5050506020810151606082015160408084015190516323b872dd60e01b81526001600160a01b03909316926323b872dd92610a3d9230926004016123e1565b600060405180830381600087803b158015610a5757600080fd5b505af1158015610a6b573d6000803e3d6000fd5b505050507f51a9d0860a9b8ef69e7cd2cc93e90cff1b4cf1433a5cffbe7394d0aa6f994b3282604051610aa091815260200190565b60405180910390a15050565b6007546040516370a0823160e01b81526000916001600160a01b0316906370a0823190610add9033906004016123cd565b60206040518083038186803b158015610af557600080fd5b505afa158015610b09573d6000803e3d6000fd5b505050506040513d601f19601f82011682018060405250810190610b2d919061236c565b11610b7a5760405162461bcd60e51b815260206004820152601d60248201527f596f7520646f206e6f74206861766520616e20616363657373204e465400000060448201526064016104e6565b60095460405163d0def52160e01b81526001600160a01b039091169063d0def52190610bac9033908590600401612405565b602060405180830381600087803b158015610bc657600080fd5b505af1158015610bda573d6000803e3d6000fd5b505050506040513d601f19601f82011682018060405250810190610bfe919061236c565b5060405133907f60c331c74cbc86fec118c6fb9f9068c1c3ced65d9ffe4bd124d727f16cbf033290600090a250565b33610c36610fc0565b6001600160a01b031614610c5c5760405162461bcd60e51b81526004016104e6906125b2565b610c666000611dab565b565b6040516331a9108f60e11b8152600481018390526000906001600160a01b03851690636352211e9060240160206040518083038186803b158015610cab57600080fd5b505afa158015610cbf573d6000803e3d6000fd5b505050506040513d601f19601f82011682018060405250810190610ce391906121eb565b9050336001600160a01b03821614610d375760405162461bcd60e51b8152602060048201526017602482015276165bdd48191bc81b9bdd081bdddb881d1a1a5cc8139195604a1b60448201526064016104e6565b6040516323b872dd60e01b81526001600160a01b038516906323b872dd90610d67903390309088906004016123e1565b600060405180830381600087803b158015610d8157600080fd5b505af1158015610d95573d6000803e3d6000fd5b50506040805160c08101825260045481526001600160a01b038816602080830191909152818301889052336060830152608082018790528251808401909352600683526541435449564560d01b9083015260a0810191909152600580549193509091506000610e03836126ca565b909155505060048054600181018255600091909152815160069091027f8a35acfbc15ff81a39ae7d344fd709f28e8600b4aa8c65c6b64bfe7fe36bd19b81019182556020808401517f8a35acfbc15ff81a39ae7d344fd709f28e8600b4aa8c65c6b64bfe7fe36bd19c830180546001600160a01b039283166001600160a01b03199182161790915560408601517f8a35acfbc15ff81a39ae7d344fd709f28e8600b4aa8c65c6b64bfe7fe36bd19d85015560608601517f8a35acfbc15ff81a39ae7d344fd709f28e8600b4aa8c65c6b64bfe7fe36bd19e8501805491909316911617905560808401517f8a35acfbc15ff81a39ae7d344fd709f28e8600b4aa8c65c6b64bfe7fe36bd19f83015560a08401518051859493610f4a937f8a35acfbc15ff81a39ae7d344fd709f28e8600b4aa8c65c6b64bfe7fe36bd1a09091019201906120a9565b50508151604080516001600160a01b0389168152602081018890529081018690526080606082018190526006908201526541435449564560d01b60a08201523392507faff92849176cb06f47e983f08aef29c8110e270823c36217a65b55e959ca06b59060c00160405180910390a35050505050565b6000546001600160a01b031690565b60038181548110610fdf57600080fd5b6000918252602090912060029091020180546001820180546001600160a01b0390921693509061100e9061268f565b80601f016020809104026020016040519081016040528092919081815260200182805461103a9061268f565b80156110875780601f1061105c57610100808354040283529160200191611087565b820191906000526020600020905b81548152906001019060200180831161106a57829003601f168201915b5050505050905082565b60606003805480602002602001604051908101604052809291908181526020016000905b8282101561118e576000848152602090819020604080518082019091526002850290910180546001600160a01b0316825260018101805492939192918401916110fd9061268f565b80601f01602080910402602001604051908101604052809291908181526020018280546111299061268f565b80156111765780601f1061114b57610100808354040283529160200191611176565b820191906000526020600020905b81548152906001019060200180831161115957829003601f168201915b505050505081525050815260200190600101906110b5565b50505050905090565b336111a0610fc0565b6001600160a01b0316146111c65760405162461bcd60e51b81526004016104e6906125b2565b6001600160a01b03818116600090815260016020526040902054161561122c5760405162461bcd60e51b815260206004820152601b60248201527a4572726f723a20546f6b656e20416c72656164792045786973747360281b60448201526064016104e6565b6040805180820182526001600160a01b0383811680835260208084018781526000928352600180835295909220845181546001600160a01b031916941693909317835590518051939485946112889391850192909101906120a9565b505060038054600181018255600091909152825160029091027fc2575a0e9e593c00f959f8c92f12db2869c3395a3b0502d05e2516446f71f85b810180546001600160a01b039093166001600160a01b0319909316929092178255602080850151805186955061131f937fc2575a0e9e593c00f959f8c92f12db2869c3395a3b0502d05e2516446f71f85c019291909101906120a9565b505050816001600160a01b03167f7afee0f1b802cc0f66c67890e26b4566251859cf2cd8de79b86aed7251d9756a8460405161135b919061255e565b60405180910390a2505050565b6001600160a01b03818116600090815260016020526040902054166113ce5760405162461bcd60e51b815260206004820152601c60248201527b4572726f723a20546f6b656e20446f6573204e6f742045786973747360201b60448201526064016104e6565b3360009081526002602090815260408083206001600160a01b038516845290915290205460ff16156114645760405162461bcd60e51b815260206004820152603960248201527f4572726f723a20596f75206861766520616c726561647920636c61696d656420604482015278333932b2903a37b5b2b739903337b9103a3432903a37b5b2b760391b60648201526084016104e6565b3360008181526002602090815260408083206001600160a01b0386168085529252909120805460ff191660011790556006546114a09290611dfb565b336001600160a01b0316816001600160a01b03167f024cffc395682b53123dae84e3621874a8a346886273cb8b3f0a5d4ad3e8e9cd6006546040516114e791815260200190565b60405180910390a350565b6004818154811061150257600080fd5b60009182526020909120600690910201805460018201546002830154600384015460048501546005860180549597506001600160a01b0394851696939592909416939092916115509061268f565b80601f016020809104026020016040519081016040528092919081815260200182805461157c9061268f565b80156115c95780601f1061159e576101008083540402835291602001916115c9565b820191906000526020600020905b8154815290600101906020018083116115ac57829003601f168201915b5050505050905086565b6001602081905260009182526040909120805491810180546001600160a01b039093169261100e9061268f565b6001600160a01b0380841660009081526001602081815260408084208151808301909252805490951681529184018054939485949092840191906116439061268f565b80601f016020809104026020016040519081016040528092919081815260200182805461166f9061268f565b80156116bc5780601f10611691576101008083540402835291602001916116bc565b820191906000526020600020905b81548152906001019060200180831161169f57829003601f168201915b505050919092525050506001600160a01b038086166000908152600160208181526040808420815180830190925280549095168152918401805495965092949193929084019161170b9061268f565b80601f01602080910402602001604051908101604052809291908181526020018280546117379061268f565b80156117845780601f1061175957610100808354040283529160200191611784565b820191906000526020600020905b81548152906001019060200180831161176757829003601f168201915b5050505050815250509050600084116117eb5760405162461bcd60e51b8152602060048201526024808201527f4572726f723a20416d6f756e74206d75737420626520677265617465722074686044820152630616e20360e41b60648201526084016104e6565b81516001600160a01b03166118125760405162461bcd60e51b81526004016104e690612571565b80516001600160a01b03166118395760405162461bcd60e51b81526004016104e690612571565b805182516001600160a01b03908116911614156118955760405162461bcd60e51b815260206004820152601a6024820152794572726f723a20546f6b656e7320617265207468652073616d6560301b60448201526064016104e6565b81516040516370a0823160e01b815285916001600160a01b0316906370a08231906118c49033906004016123cd565b60206040518083038186803b1580156118dc57600080fd5b505afa1580156118f0573d6000803e3d6000fd5b505050506040513d601f19601f82011682018060405250810190611914919061236c565b101561195e5760405162461bcd60e51b81526020600482015260196024820152784572726f723a20496e73756666696369656e742066756e647360381b60448201526064016104e6565b80516040516370a0823160e01b815285916001600160a01b0316906370a082319061198d9030906004016123cd565b60206040518083038186803b1580156119a557600080fd5b505afa1580156119b9573d6000803e3d6000fd5b505050506040513d601f19601f820116820180604052508101906119dd919061236c565b1015611a3d5760405162461bcd60e51b815260206004820152602960248201527f4572726f723a20547265617375727920646f65736e2774206861766520656e6f6044820152687567682066756e647360b81b60648201526084016104e6565b81516040516323b872dd60e01b81526001600160a01b03909116906323b872dd90611a70903390309089906004016123e1565b602060405180830381600087803b158015611a8a57600080fd5b505af1158015611a9e573d6000803e3d6000fd5b505050506040513d601f19601f82011682018060405250810190611ac291906122b7565b50805160405163a9059cbb60e01b81526001600160a01b039091169063a9059cbb90611af49033908890600401612429565b602060405180830381600087803b158015611b0e57600080fd5b505af1158015611b22573d6000803e3d6000fd5b505050506040513d601f19601f82011682018060405250810190611b4691906122b7565b506040516124a760f11b81526002016040519081900381208582529033906001600160a01b038916906000805160206127358339815191529060200160405180910390a46040516213d55560ea1b81526003016040519081900381208582529030906001600160a01b038816906000805160206127358339815191529060200160405180910390a46001925050505b9392505050565b60606004805480602002602001604051908101604052809291908181526020016000905b8282101561118e5760008481526020908190206040805160c081018252600686029092018054835260018101546001600160a01b0390811694840194909452600281015491830191909152600381015490921660608201526004820154608082015260058201805491929160a084019190611c7a9061268f565b80601f0160208091040260200160405190810160405280929190818152602001828054611ca69061268f565b8015611cf35780601f10611cc857610100808354040283529160200191611cf3565b820191906000526020600020905b815481529060010190602001808311611cd657829003601f168201915b50505050508152505081526020019060010190611c00565b33611d14610fc0565b6001600160a01b031614611d3a5760405162461bcd60e51b81526004016104e6906125b2565b6001600160a01b038116611d9f5760405162461bcd60e51b815260206004820152602660248201527f4f776e61626c653a206e6577206f776e657220697320746865207a65726f206160448201526564647265737360d01b60648201526084016104e6565b611da881611dab565b50565b600080546001600160a01b038381166001600160a01b0319831681178455604051919092169283917f8be0079c531659141344cd1fd0a4f28419497f9722a3daafe3b4186f6b6457e09190a35050565b611e518363a9059cbb60e01b8484604051602401611e1a929190612429565b60408051601f198184030181529190526020810180516001600160e01b03166001600160e01b031990931692909217909152611e56565b505050565b6000611eab826040518060400160405280602081526020017f5361666545524332303a206c6f772d6c6576656c2063616c6c206661696c6564815250856001600160a01b0316611f289092919063ffffffff16565b805190915015611e515780806020019051810190611ec991906122b7565b611e515760405162461bcd60e51b815260206004820152602a60248201527f5361666545524332303a204552433230206f7065726174696f6e20646964206e6044820152691bdd081cdd58d8d9595960b21b60648201526084016104e6565b6060611f378484600085611f3f565b949350505050565b606082471015611fa05760405162461bcd60e51b815260206004820152602660248201527f416464726573733a20696e73756666696369656e742062616c616e636520666f6044820152651c8818d85b1b60d21b60648201526084016104e6565b6001600160a01b0385163b611ff75760405162461bcd60e51b815260206004820152601d60248201527f416464726573733a2063616c6c20746f206e6f6e2d636f6e747261637400000060448201526064016104e6565b600080866001600160a01b0316858760405161201391906123b1565b60006040518083038185875af1925050503d8060008114612050576040519150601f19603f3d011682016040523d82523d6000602084013e612055565b606091505b5091509150612065828286612070565b979650505050505050565b6060831561207f575081611bd5565b82511561208f5782518084602001fd5b8160405162461bcd60e51b81526004016104e6919061255e565b8280546120b59061268f565b90600052602060002090601f0160209004810192826120d7576000855561211d565b82601f106120f057805160ff191683800117855561211d565b8280016001018555821561211d579182015b8281111561211d578251825591602001919060010190612102565b5061212992915061212d565b5090565b5b80821115612129576000815560010161212e565b600082601f83011261215357600080fd5b81356001600160401b038082111561216d5761216d612709565b604051601f8301601f19908116603f0116810190828211818310171561219557612195612709565b816040528381528660208588010111156121ae57600080fd5b836020870160208301376000602085830101528094505050505092915050565b6000602082840312156121e057600080fd5b8135611bd58161271f565b6000602082840312156121fd57600080fd5b8151611bd58161271f565b6000806040838503121561221b57600080fd5b82356122268161271f565b915060208301356122368161271f565b809150509250929050565b60008060006060848603121561225657600080fd5b83356122618161271f565b925060208401356122718161271f565b929592945050506040919091013590565b60008060006060848603121561229757600080fd5b83356122a28161271f565b95602085013595506040909401359392505050565b6000602082840312156122c957600080fd5b81518015158114611bd557600080fd5b6000602082840312156122eb57600080fd5b81356001600160401b0381111561230157600080fd5b611f3784828501612142565b6000806040838503121561232057600080fd5b82356001600160401b0381111561233657600080fd5b61234285828601612142565b92505060208301356122368161271f565b60006020828403121561236557600080fd5b5035919050565b60006020828403121561237e57600080fd5b5051919050565b6000815180845261239d81602086016020860161265f565b601f01601f19169290920160200192915050565b600082516123c381846020870161265f565b9190910192915050565b6001600160a01b0391909116815260200190565b6001600160a01b039384168152919092166020820152604081019190915260600190565b6001600160a01b0383168152604060208201819052600090611f3790830184612385565b6001600160a01b03929092168252602082015260400190565b60006020808301818452808551808352604092508286019150828160051b87010184880160005b838110156124e157888303603f19018552815180518452878101516001600160a01b03908116898601528782015188860152606080830151909116908501526080808201519085015260a09081015160c0918501829052906124cd81860183612385565b968901969450505090860190600101612469565b509098975050505050505050565b60006020808301818452808551808352604092508286019150828160051b87010184880160005b838110156124e157888303603f19018552815180516001600160a01b0316845287015187840187905261254b87850182612385565b9588019593505090860190600101612516565b602081526000611bd56020830184612385565b60208082526021908201527f4572726f723a20546f6b656e206e6f7420617661696c61626c65206f6e2044456040820152600b60fb1b606082015260800190565b6020808252818101527f4f776e61626c653a2063616c6c6572206973206e6f7420746865206f776e6572604082015260600190565b602080825260129082015271496420646f6573206e6f742065786973747360701b604082015260600190565b8681526001600160a01b03868116602083015260408201869052841660608201526080810183905260c060a0820181905260009061265390830184612385565b98975050505050505050565b60005b8381101561267a578181015183820152602001612662565b83811115612689576000848401525b50505050565b600181811c908216806126a357607f821691505b602082108114156126c457634e487b7160e01b600052602260045260246000fd5b50919050565b60006000198214156126ec57634e487b7160e01b600052601160045260246000fd5b5060010190565b634e487b7160e01b600052603260045260246000fd5b634e487b7160e01b600052604160045260246000fd5b6001600160a01b0381168114611da857600080fdfe54215d67970337353dca9fee8e6813e07be363edef8e3b2b7049f745613c80d0a264697066735822122026a220fd50df14bb5aef7dac7e09482ca2eb4f2fbae4ebd75d692f0af0e902f664736f6c63430008070033",
  "immutableReferences": {},
  "source": "//SPDX-License-Identifier: MIT\r\n\r\npragma solidity 0.8.7;\r\n\r\nimport \"@openzeppelin/contracts/access/Ownable.sol\";\r\nimport \"@openzeppelin/contracts/token/ERC20/utils/SafeERC20.sol\";\r\nimport \"@openzeppelin/contracts/token/ERC721/ERC721.sol\";\r\nimport \"./ICleverNFT.sol\";\r\n\r\ncontract NFTMarketplace is Ownable {\r\n\r\n    using SafeERC20 for IERC20;\r\n\r\n    struct TokenData {\r\n        address tokenAddress;\r\n        string tokenName;\r\n    }\r\n\r\n    struct ListingItem {\r\n        uint256 id;\r\n        address NFTContractAddress;\r\n        uint256 tokenId;\r\n        address ownerAddress;\r\n        uint256 price;\r\n        string status;\r\n    }\r\n\r\n    mapping(address => TokenData) public tokens;\r\n    mapping(address => mapping(address => bool)) public claimedTokens;\r\n    TokenData[] public tokenList;\r\n    ListingItem[] public listings;\r\n\r\n    uint256 public listingCount;\r\n\r\n    uint256 public minimumRequestableTokens = 50 ether;\r\n\r\n    address public accessNFTAddress;\r\n    address public cleverNFTAddress;\r\n\r\n    ICleverNFT cleverNFT;\r\n\r\n    event TokenAdded(address indexed tokenAddress, string tokenName);\r\n    event TokenRemoved(address indexed tokenAddress);\r\n    event ListingAdded(uint256 indexed listingId, address NFTContractAddress, uint256 tokenId, address indexed ownerAddress, uint256 price, string status);\r\n    event ListingRemoved(uint256 listingId);\r\n    event ListingBought(uint256 indexed listingId, address indexed buyerAddress, address indexed previousOwnerAddress, uint256 price);\r\n    event TokenSwapped(address indexed tokenAddress, address indexed buyerAddress, uint256 amount, string indexed direction);\r\n    event TokenRequested(address indexed tokenAddress, address indexed buyerAddress, uint256 amount);\r\n    event MintCleverNFT(address indexed to);\r\n\r\n\r\n    constructor(address accessNFTAddress_, address cleverNFTAddress_) {\r\n\r\n        accessNFTAddress = accessNFTAddress_;\r\n        cleverNFTAddress = cleverNFTAddress_;\r\n\r\n        cleverNFT = ICleverNFT(cleverNFTAddress);\r\n    }\r\n\r\n\r\n    function addToken(string memory tokenName_, address tokenAddress_) public onlyOwner {\r\n        \r\n        require(tokens[tokenAddress_].tokenAddress == address(0x0), \"Error: Token Already Exists\");\r\n\r\n        TokenData memory tokenData_ = TokenData({\r\n            tokenAddress: tokenAddress_,\r\n            tokenName: tokenName_\r\n        });\r\n\r\n        tokens[tokenAddress_] = tokenData_;\r\n\r\n        tokenList.push(tokenData_);\r\n\r\n        emit TokenAdded(tokenAddress_, tokenName_);\r\n    }\r\n\r\n    function getTokens() public view returns (TokenData[] memory) {\r\n        return tokenList;\r\n    }\r\n\r\n    function swapTokens(address tokenAddress1, address tokenAddress2, uint256 amount) public returns (bool) {\r\n\r\n        TokenData memory tokenData1_ = tokens[tokenAddress1];\r\n        TokenData memory tokenData2_ = tokens[tokenAddress2];\r\n\r\n        require(amount > 0, \"Error: Amount must be greater than 0\");\r\n        require(tokenData1_.tokenAddress != address(0x0), \"Error: Token not available on DEX\");\r\n        require(tokenData2_.tokenAddress != address(0x0), \"Error: Token not available on DEX\");\r\n        require(tokenData1_.tokenAddress != tokenData2_.tokenAddress, \"Error: Tokens are the same\");\r\n        require(IERC20(tokenData1_.tokenAddress).balanceOf(msg.sender) >= amount, \"Error: Insufficient funds\");\r\n        require(IERC20(tokenData2_.tokenAddress).balanceOf(address(this)) >= amount, \"Error: Treasury doesn't have enough funds\");\r\n\r\n        IERC20(tokenData1_.tokenAddress).transferFrom(msg.sender, address(this), amount);\r\n        IERC20(tokenData2_.tokenAddress).transfer(msg.sender, amount);\r\n\r\n        emit TokenSwapped(tokenAddress1, msg.sender, amount, \"IN\");\r\n        emit TokenSwapped(tokenAddress2, address(this), amount, \"OUT\");\r\n\r\n        return true;\r\n    }\r\n\r\n\r\n    function requestTestToken(address tokenAddress_) public {\r\n\r\n        require(tokens[tokenAddress_].tokenAddress != address(0x0), \"Error: Token Does Not Exists\");\r\n        require(claimedTokens[msg.sender][tokenAddress_] == false, \"Error: You have already claimed free tokens for the token\");\r\n\r\n        claimedTokens[msg.sender][tokenAddress_] = true;\r\n\r\n        IERC20(tokenAddress_).safeTransfer(msg.sender, minimumRequestableTokens);\r\n\r\n        emit TokenRequested(tokenAddress_, msg.sender, minimumRequestableTokens);\r\n    }\r\n\r\n    function listItem(address NFTContractAddress_, uint256 tokenId_, uint256 price_) public {\r\n\r\n        address NFTAddressHolder = ERC721(NFTContractAddress_).ownerOf(tokenId_);\r\n\r\n        require(msg.sender == NFTAddressHolder, \"You do not own this NFT\");\r\n\r\n        ERC721(NFTContractAddress_).transferFrom(msg.sender, address(this), tokenId_);\r\n\r\n        ListingItem memory listing = ListingItem({\r\n            id: listings.length,\r\n            NFTContractAddress: NFTContractAddress_,\r\n            tokenId: tokenId_,\r\n            price: price_,\r\n            ownerAddress: msg.sender,\r\n            status: \"ACTIVE\"\r\n        });\r\n\r\n        listingCount++;\r\n\r\n        listings.push(listing);\r\n\r\n        emit ListingAdded(listing.id, NFTContractAddress_, tokenId_, msg.sender, price_, \"ACTIVE\");\r\n    }\r\n\r\n    function mintCleverNFT(string memory metadata) public onlyAccessNFT {\r\n\r\n        cleverNFT.mint(msg.sender, metadata);\r\n\r\n        emit MintCleverNFT(msg.sender);\r\n    }\r\n\r\n    function unlistItem(uint256 index) public {\r\n\r\n        require(index < listings.length, \"Error: Listing does not exist\");\r\n\r\n        ListingItem memory listing = listings[index];\r\n\r\n        require(listing.ownerAddress != address(0x0), \"Id does not exists\");\r\n        require(listing.ownerAddress == msg.sender, \"You do not own this listing\");\r\n\r\n        listing.status = \"UNLISTED\";\r\n\r\n        listings[index] = listing;\r\n\r\n        ERC721(listing.NFTContractAddress).transferFrom(address(this), listing.ownerAddress, listing.tokenId);\r\n\r\n        emit ListingRemoved(index);\r\n        \r\n    }\r\n\r\n    function buyNFT(uint256 index) public payable {\r\n        \r\n        ListingItem memory listing = listings[index];\r\n\r\n        require(listing.ownerAddress != address(0x0), \"Id does not exists\");\r\n\r\n        require(msg.value >= listing.price, \"Insufficient Balance\");\r\n\r\n        (bool os, ) = payable(listing.ownerAddress).call{value: listing.price}(\"\");\r\n\r\n        require(os, \"Transaction Failed\");\r\n\r\n        listing.ownerAddress = msg.sender;\r\n        listing.status = \"BOUGHT\";\r\n\r\n        listings[index] = listing;\r\n\r\n        ERC721(listing.NFTContractAddress).transferFrom(address(this), msg.sender, listing.tokenId);\r\n\r\n        emit ListingBought(index, msg.sender, listing.ownerAddress, listing.price);\r\n    }\r\n\r\n    function compareStrings(string memory a, string memory b) internal pure returns (bool) {\r\n\r\n        return (keccak256(abi.encodePacked((a))) == keccak256(abi.encodePacked((b)))); \r\n    }\r\n\r\n    function getListings() public view returns (ListingItem[] memory) {\r\n        return listings;\r\n    }\r\n\r\n    modifier onlyAccessNFT() {\r\n\r\n        require(ERC721(accessNFTAddress).balanceOf(msg.sender) > 0, \"You do not have an access NFT\");\r\n        _;\r\n    }\r\n}",
  "sourcePath": "C:\\Users\\Favou\\Documents\\Workspace\\Clever Programmer\\contracts\\NFTMarketplace.sol",
  "compiler": {
    "name": "solc",
    "version": "0.8.7+commit.e28d00a7.Emscripten.clang"
  },
  "schemaVersion": "3.4.4",
  "updatedAt": "2022-05-18T17:06:47.876Z",
  "networkType": "ethereum",
  "devdoc": {
    "kind": "dev",
    "methods": {
      "owner()": {
        "details": "Returns the address of the current owner."
      },
      "renounceOwnership()": {
        "details": "Leaves the contract without owner. It will not be possible to call `onlyOwner` functions anymore. Can only be called by the current owner. NOTE: Renouncing ownership will leave the contract without an owner, thereby removing any functionality that is only available to the owner."
      },
      "transferOwnership(address)": {
        "details": "Transfers ownership of the contract to a new account (`newOwner`). Can only be called by the current owner."
      }
    },
    "version": 1
  },
  "userdoc": {
    "kind": "user",
    "methods": {},
    "version": 1
  }
}