{
  "contractName": "CleverAccessNFT",
  "abi": [
    {
      "inputs": [],
      "stateMutability": "nonpayable",
      "type": "constructor"
    },
    {
      "inputs": [],
      "name": "ApprovalCallerNotOwnerNorApproved",
      "type": "error"
    },
    {
      "inputs": [],
      "name": "ApprovalQueryForNonexistentToken",
      "type": "error"
    },
    {
      "inputs": [],
      "name": "ApprovalToCurrentOwner",
      "type": "error"
    },
    {
      "inputs": [],
      "name": "ApproveToCaller",
      "type": "error"
    },
    {
      "inputs": [],
      "name": "BalanceQueryForZeroAddress",
      "type": "error"
    },
    {
      "inputs": [],
      "name": "MintToZeroAddress",
      "type": "error"
    },
    {
      "inputs": [],
      "name": "MintZeroQuantity",
      "type": "error"
    },
    {
      "inputs": [],
      "name": "OwnerQueryForNonexistentToken",
      "type": "error"
    },
    {
      "inputs": [],
      "name": "TransferCallerNotOwnerNorApproved",
      "type": "error"
    },
    {
      "inputs": [],
      "name": "TransferFromIncorrectOwner",
      "type": "error"
    },
    {
      "inputs": [],
      "name": "TransferToNonERC721ReceiverImplementer",
      "type": "error"
    },
    {
      "inputs": [],
      "name": "TransferToZeroAddress",
      "type": "error"
    },
    {
      "inputs": [],
      "name": "URIQueryForNonexistentToken",
      "type": "error"
    },
    {
      "anonymous": false,
      "inputs": [
        {
          "indexed": true,
          "internalType": "address",
          "name": "owner",
          "type": "address"
        },
        {
          "indexed": true,
          "internalType": "address",
          "name": "approved",
          "type": "address"
        },
        {
          "indexed": true,
          "internalType": "uint256",
          "name": "tokenId",
          "type": "uint256"
        }
      ],
      "name": "Approval",
      "type": "event"
    },
    {
      "anonymous": false,
      "inputs": [
        {
          "indexed": true,
          "internalType": "address",
          "name": "owner",
          "type": "address"
        },
        {
          "indexed": true,
          "internalType": "address",
          "name": "operator",
          "type": "address"
        },
        {
          "indexed": false,
          "internalType": "bool",
          "name": "approved",
          "type": "bool"
        }
      ],
      "name": "ApprovalForAll",
      "type": "event"
    },
    {
      "anonymous": false,
      "inputs": [
        {
          "indexed": true,
          "internalType": "address",
          "name": "previousOwner",
          "type": "address"
        },
        {
          "indexed": true,
          "internalType": "address",
          "name": "newOwner",
          "type": "address"
        }
      ],
      "name": "OwnershipTransferred",
      "type": "event"
    },
    {
      "anonymous": false,
      "inputs": [
        {
          "indexed": true,
          "internalType": "address",
          "name": "from",
          "type": "address"
        },
        {
          "indexed": true,
          "internalType": "address",
          "name": "to",
          "type": "address"
        },
        {
          "indexed": true,
          "internalType": "uint256",
          "name": "tokenId",
          "type": "uint256"
        }
      ],
      "name": "Transfer",
      "type": "event"
    },
    {
      "inputs": [
        {
          "internalType": "address",
          "name": "to",
          "type": "address"
        },
        {
          "internalType": "uint256",
          "name": "tokenId",
          "type": "uint256"
        }
      ],
      "name": "approve",
      "outputs": [],
      "stateMutability": "nonpayable",
      "type": "function"
    },
    {
      "inputs": [
        {
          "internalType": "address",
          "name": "owner",
          "type": "address"
        }
      ],
      "name": "balanceOf",
      "outputs": [
        {
          "internalType": "uint256",
          "name": "",
          "type": "uint256"
        }
      ],
      "stateMutability": "view",
      "type": "function"
    },
    {
      "inputs": [],
      "name": "contractOwner",
      "outputs": [
        {
          "internalType": "address",
          "name": "",
          "type": "address"
        }
      ],
      "stateMutability": "view",
      "type": "function"
    },
    {
      "inputs": [
        {
          "internalType": "uint256",
          "name": "tokenId",
          "type": "uint256"
        }
      ],
      "name": "getApproved",
      "outputs": [
        {
          "internalType": "address",
          "name": "",
          "type": "address"
        }
      ],
      "stateMutability": "view",
      "type": "function"
    },
    {
      "inputs": [
        {
          "internalType": "address",
          "name": "owner",
          "type": "address"
        },
        {
          "internalType": "address",
          "name": "operator",
          "type": "address"
        }
      ],
      "name": "isApprovedForAll",
      "outputs": [
        {
          "internalType": "bool",
          "name": "",
          "type": "bool"
        }
      ],
      "stateMutability": "view",
      "type": "function"
    },
    {
      "inputs": [],
      "name": "mintPrice",
      "outputs": [
        {
          "internalType": "uint256",
          "name": "",
          "type": "uint256"
        }
      ],
      "stateMutability": "view",
      "type": "function"
    },
    {
      "inputs": [],
      "name": "name",
      "outputs": [
        {
          "internalType": "string",
          "name": "",
          "type": "string"
        }
      ],
      "stateMutability": "view",
      "type": "function"
    },
    {
      "inputs": [],
      "name": "owner",
      "outputs": [
        {
          "internalType": "address",
          "name": "",
          "type": "address"
        }
      ],
      "stateMutability": "view",
      "type": "function"
    },
    {
      "inputs": [
        {
          "internalType": "uint256",
          "name": "tokenId",
          "type": "uint256"
        }
      ],
      "name": "ownerOf",
      "outputs": [
        {
          "internalType": "address",
          "name": "",
          "type": "address"
        }
      ],
      "stateMutability": "view",
      "type": "function"
    },
    {
      "inputs": [],
      "name": "paused",
      "outputs": [
        {
          "internalType": "bool",
          "name": "",
          "type": "bool"
        }
      ],
      "stateMutability": "view",
      "type": "function"
    },
    {
      "inputs": [],
      "name": "publicSaleMaxNFTPerWallet",
      "outputs": [
        {
          "internalType": "uint256",
          "name": "",
          "type": "uint256"
        }
      ],
      "stateMutability": "view",
      "type": "function"
    },
    {
      "inputs": [],
      "name": "renounceOwnership",
      "outputs": [],
      "stateMutability": "nonpayable",
      "type": "function"
    },
    {
      "inputs": [
        {
          "internalType": "address",
          "name": "from",
          "type": "address"
        },
        {
          "internalType": "address",
          "name": "to",
          "type": "address"
        },
        {
          "internalType": "uint256",
          "name": "tokenId",
          "type": "uint256"
        }
      ],
      "name": "safeTransferFrom",
      "outputs": [],
      "stateMutability": "nonpayable",
      "type": "function"
    },
    {
      "inputs": [
        {
          "internalType": "address",
          "name": "from",
          "type": "address"
        },
        {
          "internalType": "address",
          "name": "to",
          "type": "address"
        },
        {
          "internalType": "uint256",
          "name": "tokenId",
          "type": "uint256"
        },
        {
          "internalType": "bytes",
          "name": "_data",
          "type": "bytes"
        }
      ],
      "name": "safeTransferFrom",
      "outputs": [],
      "stateMutability": "nonpayable",
      "type": "function"
    },
    {
      "inputs": [
        {
          "internalType": "address",
          "name": "operator",
          "type": "address"
        },
        {
          "internalType": "bool",
          "name": "approved",
          "type": "bool"
        }
      ],
      "name": "setApprovalForAll",
      "outputs": [],
      "stateMutability": "nonpayable",
      "type": "function"
    },
    {
      "inputs": [],
      "name": "supply",
      "outputs": [
        {
          "internalType": "uint256",
          "name": "",
          "type": "uint256"
        }
      ],
      "stateMutability": "view",
      "type": "function"
    },
    {
      "inputs": [
        {
          "internalType": "bytes4",
          "name": "interfaceId",
          "type": "bytes4"
        }
      ],
      "name": "supportsInterface",
      "outputs": [
        {
          "internalType": "bool",
          "name": "",
          "type": "bool"
        }
      ],
      "stateMutability": "view",
      "type": "function"
    },
    {
      "inputs": [],
      "name": "symbol",
      "outputs": [
        {
          "internalType": "string",
          "name": "",
          "type": "string"
        }
      ],
      "stateMutability": "view",
      "type": "function"
    },
    {
      "inputs": [
        {
          "internalType": "address",
          "name": "",
          "type": "address"
        }
      ],
      "name": "teamMinted",
      "outputs": [
        {
          "internalType": "bool",
          "name": "",
          "type": "bool"
        }
      ],
      "stateMutability": "view",
      "type": "function"
    },
    {
      "inputs": [],
      "name": "teamSupply",
      "outputs": [
        {
          "internalType": "uint256",
          "name": "",
          "type": "uint256"
        }
      ],
      "stateMutability": "view",
      "type": "function"
    },
    {
      "inputs": [],
      "name": "teamWallet",
      "outputs": [
        {
          "internalType": "address",
          "name": "",
          "type": "address"
        }
      ],
      "stateMutability": "view",
      "type": "function"
    },
    {
      "inputs": [],
      "name": "totalSupply",
      "outputs": [
        {
          "internalType": "uint256",
          "name": "",
          "type": "uint256"
        }
      ],
      "stateMutability": "view",
      "type": "function"
    },
    {
      "inputs": [
        {
          "internalType": "address",
          "name": "from",
          "type": "address"
        },
        {
          "internalType": "address",
          "name": "to",
          "type": "address"
        },
        {
          "internalType": "uint256",
          "name": "tokenId",
          "type": "uint256"
        }
      ],
      "name": "transferFrom",
      "outputs": [],
      "stateMutability": "nonpayable",
      "type": "function"
    },
    {
      "inputs": [
        {
          "internalType": "address",
          "name": "newOwner",
          "type": "address"
        }
      ],
      "name": "transferOwnership",
      "outputs": [],
      "stateMutability": "nonpayable",
      "type": "function"
    },
    {
      "inputs": [
        {
          "internalType": "uint256",
          "name": "tokenId",
          "type": "uint256"
        }
      ],
      "name": "tokenURI",
      "outputs": [
        {
          "internalType": "string",
          "name": "",
          "type": "string"
        }
      ],
      "stateMutability": "view",
      "type": "function"
    },
    {
      "inputs": [
        {
          "internalType": "uint256",
          "name": "quantity",
          "type": "uint256"
        }
      ],
      "name": "mint",
      "outputs": [],
      "stateMutability": "payable",
      "type": "function"
    },
    {
      "inputs": [],
      "name": "getBaseURI",
      "outputs": [
        {
          "internalType": "string",
          "name": "",
          "type": "string"
        }
      ],
      "stateMutability": "view",
      "type": "function"
    },
    {
      "inputs": [],
      "name": "getMintPrice",
      "outputs": [
        {
          "internalType": "uint256",
          "name": "",
          "type": "uint256"
        }
      ],
      "stateMutability": "view",
      "type": "function"
    },
    {
      "inputs": [
        {
          "internalType": "string",
          "name": "baseURI_",
          "type": "string"
        }
      ],
      "name": "setBaseURI",
      "outputs": [],
      "stateMutability": "nonpayable",
      "type": "function"
    },
    {
      "inputs": [
        {
          "internalType": "uint256",
          "name": "_newPrice",
          "type": "uint256"
        }
      ],
      "name": "setMintPrice",
      "outputs": [],
      "stateMutability": "nonpayable",
      "type": "function"
    },
    {
      "inputs": [
        {
          "internalType": "bool",
          "name": "_pausedState",
          "type": "bool"
        }
      ],
      "name": "setPaused",
      "outputs": [],
      "stateMutability": "nonpayable",
      "type": "function"
    },
    {
      "inputs": [],
      "name": "getContractBalance",
      "outputs": [
        {
          "internalType": "uint256",
          "name": "",
          "type": "uint256"
        }
      ],
      "stateMutability": "view",
      "type": "function"
    },
    {
      "inputs": [
        {
          "internalType": "uint256",
          "name": "max_",
          "type": "uint256"
        }
      ],
      "name": "setPublicSaleMaxNFTPerWallet",
      "outputs": [],
      "stateMutability": "nonpayable",
      "type": "function"
    },
    {
      "inputs": [
        {
          "internalType": "address payable",
          "name": "_newWallet",
          "type": "address"
        }
      ],
      "name": "changeTreasury",
      "outputs": [],
      "stateMutability": "nonpayable",
      "type": "function"
    },
    {
      "inputs": [
        {
          "internalType": "address",
          "name": "teamWallet_",
          "type": "address"
        }
      ],
      "name": "setTeamWallet",
      "outputs": [],
      "stateMutability": "nonpayable",
      "type": "function"
    },
    {
      "inputs": [
        {
          "internalType": "address",
          "name": "owner",
          "type": "address"
        }
      ],
      "name": "numberMinted",
      "outputs": [
        {
          "internalType": "uint256",
          "name": "",
          "type": "uint256"
        }
      ],
      "stateMutability": "view",
      "type": "function"
    },
    {
      "inputs": [],
      "name": "totalMinted",
      "outputs": [
        {
          "internalType": "uint256",
          "name": "",
          "type": "uint256"
        }
      ],
      "stateMutability": "view",
      "type": "function"
    },
    {
      "inputs": [
        {
          "internalType": "uint256",
          "name": "tokenId",
          "type": "uint256"
        }
      ],
      "name": "exists",
      "outputs": [
        {
          "internalType": "bool",
          "name": "",
          "type": "bool"
        }
      ],
      "stateMutability": "view",
      "type": "function"
    },
    {
      "inputs": [],
      "name": "withdraw",
      "outputs": [],
      "stateMutability": "payable",
      "type": "function"
    }
  ],
  "bytecode": "0x6009805460ff60a01b19169055662386f26fc10000600a556001600b556032600c556046600d5560e060405260316080818152906200204360a03980516200005091600f916020909101906200016b565b50601080546001600160a01b0319167337673969aab5fe047843579e7592dc295ea411ac1790553480156200008457600080fd5b50604080518082018252600f81526e10db195d995c9058d8d95cdcd39195608a1b6020808301918252835180850190945260058452642c21a622ab60d91b908401528151919291620000d9916002916200016b565b508051620000ef9060039060208401906200016b565b50506000805550620001013362000119565b600980546001600160a01b031916331790556200024e565b600880546001600160a01b038381166001600160a01b0319831681179093556040519116919082907f8be0079c531659141344cd1fd0a4f28419497f9722a3daafe3b4186f6b6457e090600090a35050565b828054620001799062000211565b90600052602060002090601f0160209004810192826200019d5760008555620001e8565b82601f10620001b857805160ff1916838001178555620001e8565b82800160010185558215620001e8579182015b82811115620001e8578251825591602001919060010190620001cb565b50620001f6929150620001fa565b5090565b5b80821115620001f65760008155600101620001fb565b600181811c908216806200022657607f821691505b602082108114156200024857634e487b7160e01b600052602260045260246000fd5b50919050565b611de5806200025e6000396000f3fe6080604052600436106101c05760003560e01c806301ffc9a7146101c5578063047fc9aa146101fa57806306fdde031461021e578063081812fc14610240578063095ea7b3146102785780631525ff7d1461029a57806316c38b3c146102ba57806318160ddd146102da57806323b872dd146102f35780632cfac6ec146103135780633ccfd60b1461032957806342842e0e146103315780634f558e791461035157806355f804b31461037157806359927044146103915780635c975abb146103b15780636352211e146103d25780636817c76c146103f25780636f9fb98a1461040857806370a082311461041d578063714c53981461043d578063715018a614610452578063779a3ed3146104675780638da5cb5b1461047d578063910148461461049257806395d89b41146104b2578063a0712d68146104c7578063a22cb465146104da578063a2309ff8146104fa578063a7f93ebd1461050f578063addeda7914610524578063b14f2a3914610554578063b88d4fde14610574578063c87b56dd14610594578063ce606ee0146105b4578063dc33e681146105d4578063e985e9c5146105f4578063f2fde38b1461063d578063f4a0a5281461065d575b600080fd5b3480156101d157600080fd5b506101e56101e0366004611a73565b61067d565b60405190151581526020015b60405180910390f35b34801561020657600080fd5b50610210600c5481565b6040519081526020016101f1565b34801561022a57600080fd5b506102336106cf565b6040516101f19190611bcc565b34801561024c57600080fd5b5061026061025b366004611af5565b610761565b6040516001600160a01b0390911681526020016101f1565b34801561028457600080fd5b50610298610293366004611a2c565b6107a5565b005b3480156102a657600080fd5b506102986102b53660046118da565b610833565b3480156102c657600080fd5b506102986102d5366004611a58565b61088d565b3480156102e657600080fd5b5060015460005403610210565b3480156102ff57600080fd5b5061029861030e366004611937565b6108da565b34801561031f57600080fd5b50610210600d5481565b6102986108e5565b34801561033d57600080fd5b5061029861034c366004611937565b610977565b34801561035d57600080fd5b506101e561036c366004611af5565b610992565b34801561037d57600080fd5b5061029861038c366004611aad565b61099d565b34801561039d57600080fd5b50601054610260906001600160a01b031681565b3480156103bd57600080fd5b506009546101e590600160a01b900460ff1681565b3480156103de57600080fd5b506102606103ed366004611af5565b6109e3565b3480156103fe57600080fd5b50610210600a5481565b34801561041457600080fd5b506102106109f5565b34801561042957600080fd5b506102106104383660046118da565b610a2b565b34801561044957600080fd5b50610233610a79565b34801561045e57600080fd5b50610298610ab7565b34801561047357600080fd5b50610210600b5481565b34801561048957600080fd5b50610260610af2565b34801561049e57600080fd5b506102986104ad366004611af5565b610b01565b3480156104be57600080fd5b50610233610b35565b6102986104d5366004611af5565b610b44565b3480156104e657600080fd5b506102986104f53660046119f7565b610cef565b34801561050657600080fd5b50600054610210565b34801561051b57600080fd5b50600a54610210565b34801561053057600080fd5b506101e561053f3660046118da565b600e6020526000908152604090205460ff1681565b34801561056057600080fd5b5061029861056f3660046118da565b610d85565b34801561058057600080fd5b5061029861058f366004611978565b610dd6565b3480156105a057600080fd5b506102336105af366004611af5565b610e2c565b3480156105c057600080fd5b50600954610260906001600160a01b031681565b3480156105e057600080fd5b506102106105ef3660046118da565b610f2d565b34801561060057600080fd5b506101e561060f3660046118fe565b6001600160a01b03918216600090815260076020908152604080832093909416825291909152205460ff1690565b34801561064957600080fd5b506102986106583660046118da565b610f5b565b34801561066957600080fd5b50610298610678366004611af5565b610ff8565b60006001600160e01b031982166380ac58cd60e01b14806106ae57506001600160e01b03198216635b5e139f60e01b145b806106c957506301ffc9a760e01b6001600160e01b03198316145b92915050565b6060600280546106de90611ca2565b80601f016020809104026020016040519081016040528092919081815260200182805461070a90611ca2565b80156107575780601f1061072c57610100808354040283529160200191610757565b820191906000526020600020905b81548152906001019060200180831161073a57829003601f168201915b5050505050905090565b600061076c8261102c565b610789576040516333d1c03960e21b815260040160405180910390fd5b506000908152600660205260409020546001600160a01b031690565b60006107b0826109e3565b9050806001600160a01b0316836001600160a01b031614156107e55760405163250fdee360e21b815260040160405180910390fd5b336001600160a01b038216148015906108055750610803813361060f565b155b15610823576040516367d9dca160e11b815260040160405180910390fd5b61082e838383611057565b505050565b3361083c610af2565b6001600160a01b03161461086b5760405162461bcd60e51b815260040161086290611bdf565b60405180910390fd5b601080546001600160a01b0319166001600160a01b0392909216919091179055565b33610896610af2565b6001600160a01b0316146108bc5760405162461bcd60e51b815260040161086290611bdf565b60098054911515600160a01b0260ff60a01b19909216919091179055565b61082e8383836110b3565b336108ee610af2565b6001600160a01b0316146109145760405162461bcd60e51b815260040161086290611bdf565b6009546040516000916001600160a01b03169047908381818185875af1925050503d8060008114610961576040519150601f19603f3d011682016040523d82523d6000602084013e610966565b606091505b505090508061097457600080fd5b50565b61082e83838360405180602001604052806000815250610dd6565b60006106c98261102c565b336109a6610af2565b6001600160a01b0316146109cc5760405162461bcd60e51b815260040161086290611bdf565b80516109df90600f9060208401906117b7565b5050565b60006109ee8261128d565b5192915050565b600033610a00610af2565b6001600160a01b031614610a265760405162461bcd60e51b815260040161086290611bdf565b504790565b60006001600160a01b038216610a54576040516323d3ad8160e21b815260040160405180910390fd5b506001600160a01b03166000908152600560205260409020546001600160401b031690565b606033610a84610af2565b6001600160a01b031614610aaa5760405162461bcd60e51b815260040161086290611bdf565b600f80546106de90611ca2565b33610ac0610af2565b6001600160a01b031614610ae65760405162461bcd60e51b815260040161086290611bdf565b610af060006113a7565b565b6008546001600160a01b031690565b33610b0a610af2565b6001600160a01b031614610b305760405162461bcd60e51b815260040161086290611bdf565b600b55565b6060600380546106de90611ca2565b600c5481610b556001546000540390565b610b5f9190611c14565b1115610bbf5760405162461bcd60e51b815260206004820152602960248201527f596f752063616e2774206d696e74206d6f7265207468656e2074686520746f74604482015268616c20737570706c7960b81b6064820152608401610862565b610bc7610af2565b6001600160a01b0316336001600160a01b031614610ce5576000610bea33610a2b565b600954909150600160a01b900460ff1615610c395760405162461bcd60e51b815260206004820152600f60248201526e10dbdb9d1c9858dd081c185d5cd959608a1b6044820152606401610862565b600a54600b54610c498385611c14565b1115610c56600b546113f9565b604051602001610c669190611b3a565b60405160208183030381529060405290610c935760405162461bcd60e51b81526004016108629190611bcc565b50610c9e8382611c40565b341015610ce25760405162461bcd60e51b8152602060048201526012602482015271496e73756666696369656e742066756e647360701b6044820152606401610862565b50505b61097433826114fe565b6001600160a01b038216331415610d195760405163b06307db60e01b815260040160405180910390fd5b3360008181526007602090815260408083206001600160a01b03871680855290835292819020805460ff191686151590811790915590519081529192917f17307eab39ab6107e8899845ad3d59bd9653f200f220920489ca2b5937696c31910160405180910390a35050565b33610d8e610af2565b6001600160a01b031614610db45760405162461bcd60e51b815260040161086290611bdf565b600980546001600160a01b0319166001600160a01b0392909216919091179055565b610de18484846110b3565b610df3836001600160a01b0316611518565b8015610e085750610e0684848484611527565b155b15610e26576040516368d2bf6b60e11b815260040160405180910390fd5b50505050565b6060610e378261102c565b610e9b5760405162461bcd60e51b815260206004820152602f60248201527f4552433732314d657461646174613a2055524920717565727920666f72206e6f60448201526e3732bc34b9ba32b73a103a37b5b2b760891b6064820152608401610862565b600f8054610ea890611ca2565b80601f0160208091040260200160405190810160405280929190818152602001828054610ed490611ca2565b8015610f215780601f10610ef657610100808354040283529160200191610f21565b820191906000526020600020905b815481529060010190602001808311610f0457829003601f168201915b50505050509050919050565b6001600160a01b038116600090815260056020526040812054600160401b90046001600160401b03166106c9565b33610f64610af2565b6001600160a01b031614610f8a5760405162461bcd60e51b815260040161086290611bdf565b6001600160a01b038116610fef5760405162461bcd60e51b815260206004820152602660248201527f4f776e61626c653a206e6577206f776e657220697320746865207a65726f206160448201526564647265737360d01b6064820152608401610862565b610974816113a7565b33611001610af2565b6001600160a01b0316146110275760405162461bcd60e51b815260040161086290611bdf565b600a55565b60008054821080156106c9575050600090815260046020526040902054600160e01b900460ff161590565b60008281526006602052604080822080546001600160a01b0319166001600160a01b0387811691821790925591518593918516917f8c5be1e5ebec7d5bd14f71427d1e84f3dd0314c0f7b2291e5b200ac8c7c3b92591a4505050565b60006110be8261128d565b9050836001600160a01b031681600001516001600160a01b0316146110f55760405162a1148160e81b815260040160405180910390fd5b6000336001600160a01b03861614806111135750611113853361060f565b8061112e57503361112384610761565b6001600160a01b0316145b90508061114e57604051632ce44b5f60e11b815260040160405180910390fd5b6001600160a01b03841661117557604051633a954ecd60e21b815260040160405180910390fd5b61118160008487611057565b6001600160a01b03858116600090815260056020908152604080832080546001600160401b03198082166001600160401b0392831660001901831617909255898616808652838620805493841693831660019081018416949094179055898652600490945282852080546001600160e01b031916909417600160a01b4290921691909102178355870180845292208054919390911661125457600054821461125457805460208601516001600160401b0316600160a01b026001600160e01b03199091166001600160a01b038a16171781555b50505082846001600160a01b0316866001600160a01b0316600080516020611d9083398151915260405160405180910390a45050505050565b60408051606081018252600080825260208201819052918101919091528160005481101561138e57600081815260046020908152604091829020825160608101845290546001600160a01b0381168252600160a01b81046001600160401b031692820192909252600160e01b90910460ff1615159181018290529061138c5780516001600160a01b031615611323579392505050565b5060001901600081815260046020908152604091829020825160608101845290546001600160a01b038116808352600160a01b82046001600160401b031693830193909352600160e01b900460ff1615159281019290925215611387579392505050565b611323565b505b604051636f96cda160e11b815260040160405180910390fd5b600880546001600160a01b038381166001600160a01b0319831681179093556040519116919082907f8be0079c531659141344cd1fd0a4f28419497f9722a3daafe3b4186f6b6457e090600090a35050565b60608161141d5750506040805180820190915260018152600360fc1b602082015290565b8160005b8115611447578061143181611cdd565b91506114409050600a83611c2c565b9150611421565b6000816001600160401b0381111561146157611461611d4e565b6040519080825280601f01601f19166020018201604052801561148b576020820181803683370190505b5090505b84156114f6576114a0600183611c5f565b91506114ad600a86611cf8565b6114b8906030611c14565b60f81b8183815181106114cd576114cd611d38565b60200101906001600160f81b031916908160001a9053506114ef600a86611c2c565b945061148f565b949350505050565b6109df82826040518060200160405280600081525061161e565b6001600160a01b03163b151590565b604051630a85bd0160e11b81526000906001600160a01b0385169063150b7a029061155c903390899088908890600401611b8f565b602060405180830381600087803b15801561157657600080fd5b505af19250505080156115a6575060408051601f3d908101601f191682019092526115a391810190611a90565b60015b611601573d8080156115d4576040519150601f19603f3d011682016040523d82523d6000602084013e6115d9565b606091505b5080516115f9576040516368d2bf6b60e11b815260040160405180910390fd5b805181602001fd5b6001600160e01b031916630a85bd0160e11b149050949350505050565b6000546001600160a01b03841661164757604051622e076360e81b815260040160405180910390fd5b826116655760405163b562e8dd60e01b815260040160405180910390fd5b6001600160a01b038416600081815260056020908152604080832080546001600160801b031981166001600160401b038083168b018116918217600160401b6001600160401b031990941690921783900481168b01811690920217909155858452600490925290912080546001600160e01b0319168317600160a01b42909316929092029190911790558190818501906116fe90611518565b15611774575b60405182906001600160a01b03881690600090600080516020611d90833981519152908290a461173d6000878480600101955087611527565b61175a576040516368d2bf6b60e11b815260040160405180910390fd5b80821061170457826000541461176f57600080fd5b6117a7565b5b6040516001830192906001600160a01b03881690600090600080516020611d90833981519152908290a4808210611775575b506000908155610e269085838684565b8280546117c390611ca2565b90600052602060002090601f0160209004810192826117e5576000855561182b565b82601f106117fe57805160ff191683800117855561182b565b8280016001018555821561182b579182015b8281111561182b578251825591602001919060010190611810565b5061183792915061183b565b5090565b5b80821115611837576000815560010161183c565b60006001600160401b038084111561186a5761186a611d4e565b604051601f8501601f19908116603f0116810190828211818310171561189257611892611d4e565b816040528093508581528686860111156118ab57600080fd5b858560208301376000602087830101525050509392505050565b803580151581146118d557600080fd5b919050565b6000602082840312156118ec57600080fd5b81356118f781611d64565b9392505050565b6000806040838503121561191157600080fd5b823561191c81611d64565b9150602083013561192c81611d64565b809150509250929050565b60008060006060848603121561194c57600080fd5b833561195781611d64565b9250602084013561196781611d64565b929592945050506040919091013590565b6000806000806080858703121561198e57600080fd5b843561199981611d64565b935060208501356119a981611d64565b92506040850135915060608501356001600160401b038111156119cb57600080fd5b8501601f810187136119dc57600080fd5b6119eb87823560208401611850565b91505092959194509250565b60008060408385031215611a0a57600080fd5b8235611a1581611d64565b9150611a23602084016118c5565b90509250929050565b60008060408385031215611a3f57600080fd5b8235611a4a81611d64565b946020939093013593505050565b600060208284031215611a6a57600080fd5b6118f7826118c5565b600060208284031215611a8557600080fd5b81356118f781611d79565b600060208284031215611aa257600080fd5b81516118f781611d79565b600060208284031215611abf57600080fd5b81356001600160401b03811115611ad557600080fd5b8201601f81018413611ae657600080fd5b6114f684823560208401611850565b600060208284031215611b0757600080fd5b5035919050565b60008151808452611b26816020860160208601611c76565b601f01601f19169290920160200192915050565b70165bdd4818d85b881bdb9b1e481b5a5b9d607a1b815260008251611b66816011850160208701611c76565b71204e465473206174204d61696e2053616c6560701b6011939091019283015250602301919050565b6001600160a01b0385811682528416602082015260408101839052608060608201819052600090611bc290830184611b0e565b9695505050505050565b6020815260006118f76020830184611b0e565b6020808252818101527f4f776e61626c653a2063616c6c6572206973206e6f7420746865206f776e6572604082015260600190565b60008219821115611c2757611c27611d0c565b500190565b600082611c3b57611c3b611d22565b500490565b6000816000190483118215151615611c5a57611c5a611d0c565b500290565b600082821015611c7157611c71611d0c565b500390565b60005b83811015611c91578181015183820152602001611c79565b83811115610e265750506000910152565b600181811c90821680611cb657607f821691505b60208210811415611cd757634e487b7160e01b600052602260045260246000fd5b50919050565b6000600019821415611cf157611cf1611d0c565b5060010190565b600082611d0757611d07611d22565b500690565b634e487b7160e01b600052601160045260246000fd5b634e487b7160e01b600052601260045260246000fd5b634e487b7160e01b600052603260045260246000fd5b634e487b7160e01b600052604160045260246000fd5b6001600160a01b038116811461097457600080fd5b6001600160e01b03198116811461097457600080fdfeddf252ad1be2c89b69c2b068fc378daa952ba7f163c4a11628f55a4df523b3efa26469706673582212200311f6e49915dc5201b7ca62972a206cd2c61c07b5bbdde7c9b618906fc1bd0364736f6c6343000807003368747470733a2f2f6170692e6a736f6e62696e2e696f2f622f363162363339336230313535386337333163643330376364",
  "immutableReferences": {},
  "source": "// SPDX-License-Identifier: MIT\r\n\r\npragma solidity 0.8.7;\r\n\r\nimport \"./ERC721A.sol\";\r\nimport \"@openzeppelin/contracts/access/Ownable.sol\";\r\nimport \"@openzeppelin/contracts/utils/Strings.sol\";\r\n\r\ncontract CleverAccessNFT is ERC721A, Ownable {\r\n\r\n    using Strings for uint256;\r\n    address public contractOwner;\r\n\r\n    bool public paused = false;\r\n\r\n    uint256 public mintPrice = 0.01 ether;\r\n\r\n    uint256 public publicSaleMaxNFTPerWallet = 1;\r\n\r\n    uint256 public supply = 50;\r\n    uint256 public teamSupply = 70;\r\n\r\n    mapping(address => bool) public teamMinted;\r\n\r\n    string private baseURI = \"https://api.jsonbin.io/b/61b6393b01558c731cd307cd\";\r\n\r\n    address public teamWallet = 0x37673969aab5FE047843579e7592Dc295ea411ac;\r\n\r\n    constructor() ERC721A (\"CleverAccessNFT\", \"XCLEV\") {\r\n\r\n        contractOwner = msg.sender;\r\n    }\r\n\r\n    function tokenURI(uint256 tokenId) public view virtual override returns (string memory) {\r\n\r\n        require(_exists(tokenId), \"ERC721Metadata: URI query for nonexistent token\");\r\n\r\n        return baseURI;\r\n    }\r\n\r\n    function mint(uint256 quantity) external payable {\r\n\r\n        require(totalSupply() + quantity <= supply, \"You can't mint more then the total supply\");\r\n\r\n        if(msg.sender != owner()) {\r\n\r\n            uint256 senderSupply = balanceOf(msg.sender);\r\n\r\n            require(!paused, \"Contract paused\");\r\n\r\n            uint256 salePrice = mintPrice;\r\n\r\n            require(quantity + senderSupply <= publicSaleMaxNFTPerWallet, string(abi.encodePacked(\"You can only mint\", publicSaleMaxNFTPerWallet.toString(), \" NFTs at Main Sale\")));\r\n            require(msg.value >= salePrice * quantity, \"Insufficient funds\");\r\n            \r\n        }\r\n        \r\n        _safeMint(msg.sender, quantity);\r\n    }\r\n\r\n    function getBaseURI() public onlyOwner view returns (string memory) {\r\n\r\n        return baseURI;\r\n    }\r\n\r\n    function getMintPrice() public view returns (uint256) {\r\n\r\n        return mintPrice;\r\n    }\r\n\r\n    function _baseURI() internal view override returns (string memory) { return baseURI; }\r\n\r\n    function setBaseURI(string memory baseURI_) external onlyOwner { baseURI = baseURI_; }\r\n\r\n    function setMintPrice (uint256 _newPrice) external onlyOwner { mintPrice = _newPrice; }\r\n\r\n    function setPaused (bool _pausedState) external onlyOwner { paused = _pausedState; }\r\n\r\n    function getContractBalance () external view onlyOwner returns (uint256) { return address(this).balance; }\r\n\r\n    function setPublicSaleMaxNFTPerWallet(uint256 max_) external onlyOwner { publicSaleMaxNFTPerWallet = max_; }\r\n\r\n    function changeTreasury(address payable _newWallet) external onlyOwner { contractOwner = _newWallet; }\r\n\r\n    function setTeamWallet(address teamWallet_) external onlyOwner { teamWallet = teamWallet_; }\r\n\r\n    function numberMinted(address owner) public view returns (uint256) { return _numberMinted(owner); }\r\n\r\n    function totalMinted() public view returns (uint256) { return _totalMinted(); }\r\n\r\n    function exists(uint256 tokenId) public view returns (bool) { return _exists(tokenId); }\r\n\r\n    function withdraw() public payable onlyOwner {\r\n        (bool os, ) = payable(contractOwner).call{value: address(this).balance}(\"\");\r\n        require(os);\r\n    }\r\n}",
  "sourcePath": "C:\\Users\\Favou\\Documents\\Workspace\\Clever Programmer\\contracts\\CleverAccessNFT.sol",
  "compiler": {
    "name": "solc",
    "version": "0.8.7+commit.e28d00a7.Emscripten.clang"
  },
  "schemaVersion": "3.4.4",
  "updatedAt": "2022-05-02T10:47:46.922Z",
  "devdoc": {
    "kind": "dev",
    "methods": {
      "approve(address,uint256)": {
        "details": "See {IERC721-approve}."
      },
      "balanceOf(address)": {
        "details": "See {IERC721-balanceOf}."
      },
      "getApproved(uint256)": {
        "details": "See {IERC721-getApproved}."
      },
      "isApprovedForAll(address,address)": {
        "details": "See {IERC721-isApprovedForAll}."
      },
      "name()": {
        "details": "See {IERC721Metadata-name}."
      },
      "owner()": {
        "details": "Returns the address of the current owner."
      },
      "ownerOf(uint256)": {
        "details": "See {IERC721-ownerOf}."
      },
      "renounceOwnership()": {
        "details": "Leaves the contract without owner. It will not be possible to call `onlyOwner` functions anymore. Can only be called by the current owner. NOTE: Renouncing ownership will leave the contract without an owner, thereby removing any functionality that is only available to the owner."
      },
      "safeTransferFrom(address,address,uint256)": {
        "details": "See {IERC721-safeTransferFrom}."
      },
      "safeTransferFrom(address,address,uint256,bytes)": {
        "details": "See {IERC721-safeTransferFrom}."
      },
      "setApprovalForAll(address,bool)": {
        "details": "See {IERC721-setApprovalForAll}."
      },
      "supportsInterface(bytes4)": {
        "details": "See {IERC165-supportsInterface}."
      },
      "symbol()": {
        "details": "See {IERC721Metadata-symbol}."
      },
      "tokenURI(uint256)": {
        "details": "See {IERC721Metadata-tokenURI}."
      },
      "totalSupply()": {
        "details": "Burned tokens are calculated here, use _totalMinted() if you want to count just minted tokens."
      },
      "transferFrom(address,address,uint256)": {
        "details": "See {IERC721-transferFrom}."
      },
      "transferOwnership(address)": {
        "details": "Transfers ownership of the contract to a new account (`newOwner`). Can only be called by the current owner."
      }
    },
    "version": 1
  },
  "userdoc": {
    "errors": {
      "ApprovalCallerNotOwnerNorApproved()": [
        {
          "notice": "The caller must own the token or be an approved operator."
        }
      ],
      "ApprovalQueryForNonexistentToken()": [
        {
          "notice": "The token does not exist."
        }
      ],
      "ApprovalToCurrentOwner()": [
        {
          "notice": "The caller cannot approve to the current owner."
        }
      ],
      "ApproveToCaller()": [
        {
          "notice": "The caller cannot approve to their own address."
        }
      ],
      "BalanceQueryForZeroAddress()": [
        {
          "notice": "Cannot query the balance for the zero address."
        }
      ],
      "MintToZeroAddress()": [
        {
          "notice": "Cannot mint to the zero address."
        }
      ],
      "MintZeroQuantity()": [
        {
          "notice": "The quantity of tokens minted must be more than zero."
        }
      ],
      "OwnerQueryForNonexistentToken()": [
        {
          "notice": "The token does not exist."
        }
      ],
      "TransferCallerNotOwnerNorApproved()": [
        {
          "notice": "The caller must own the token or be an approved operator."
        }
      ],
      "TransferFromIncorrectOwner()": [
        {
          "notice": "The token must be owned by `from`."
        }
      ],
      "TransferToNonERC721ReceiverImplementer()": [
        {
          "notice": "Cannot safely transfer to a contract that does not implement the ERC721Receiver interface."
        }
      ],
      "TransferToZeroAddress()": [
        {
          "notice": "Cannot transfer to the zero address."
        }
      ],
      "URIQueryForNonexistentToken()": [
        {
          "notice": "The token does not exist."
        }
      ]
    },
    "kind": "user",
    "methods": {},
    "version": 1
  }
}