{
  "contractName": "NFTMarketplace",
  "abi": [
    {
      "inputs": [],
      "stateMutability": "nonpayable",
      "type": "constructor"
    },
    {
      "anonymous": false,
      "inputs": [
        {
          "indexed": true,
          "internalType": "address",
          "name": "previousOwner",
          "type": "address"
        },
        {
          "indexed": true,
          "internalType": "address",
          "name": "newOwner",
          "type": "address"
        }
      ],
      "name": "OwnershipTransferred",
      "type": "event"
    },
    {
      "inputs": [],
      "name": "accessNFTAddress",
      "outputs": [
        {
          "internalType": "address",
          "name": "",
          "type": "address"
        }
      ],
      "stateMutability": "view",
      "type": "function"
    },
    {
      "inputs": [],
      "name": "cleverNFTAddress",
      "outputs": [
        {
          "internalType": "address",
          "name": "",
          "type": "address"
        }
      ],
      "stateMutability": "view",
      "type": "function"
    },
    {
      "inputs": [
        {
          "internalType": "uint256",
          "name": "",
          "type": "uint256"
        }
      ],
      "name": "listings",
      "outputs": [
        {
          "internalType": "uint256",
          "name": "id",
          "type": "uint256"
        },
        {
          "internalType": "address",
          "name": "NFTContractAddress",
          "type": "address"
        },
        {
          "internalType": "uint256",
          "name": "tokenId",
          "type": "uint256"
        },
        {
          "internalType": "bool",
          "name": "purchaseWithToken",
          "type": "bool"
        },
        {
          "internalType": "address",
          "name": "tokenAddress",
          "type": "address"
        },
        {
          "internalType": "address",
          "name": "ownerAddress",
          "type": "address"
        },
        {
          "internalType": "uint256",
          "name": "price",
          "type": "uint256"
        }
      ],
      "stateMutability": "view",
      "type": "function"
    },
    {
      "inputs": [],
      "name": "minimumRequestableTokens",
      "outputs": [
        {
          "internalType": "uint256",
          "name": "",
          "type": "uint256"
        }
      ],
      "stateMutability": "view",
      "type": "function"
    },
    {
      "inputs": [],
      "name": "owner",
      "outputs": [
        {
          "internalType": "address",
          "name": "",
          "type": "address"
        }
      ],
      "stateMutability": "view",
      "type": "function"
    },
    {
      "inputs": [],
      "name": "renounceOwnership",
      "outputs": [],
      "stateMutability": "nonpayable",
      "type": "function"
    },
    {
      "inputs": [
        {
          "internalType": "uint256",
          "name": "",
          "type": "uint256"
        }
      ],
      "name": "tokenList",
      "outputs": [
        {
          "internalType": "address",
          "name": "tokenAddress",
          "type": "address"
        },
        {
          "internalType": "string",
          "name": "tokenName",
          "type": "string"
        }
      ],
      "stateMutability": "view",
      "type": "function"
    },
    {
      "inputs": [
        {
          "internalType": "address",
          "name": "",
          "type": "address"
        }
      ],
      "name": "tokens",
      "outputs": [
        {
          "internalType": "address",
          "name": "tokenAddress",
          "type": "address"
        },
        {
          "internalType": "string",
          "name": "tokenName",
          "type": "string"
        }
      ],
      "stateMutability": "view",
      "type": "function"
    },
    {
      "inputs": [
        {
          "internalType": "address",
          "name": "newOwner",
          "type": "address"
        }
      ],
      "name": "transferOwnership",
      "outputs": [],
      "stateMutability": "nonpayable",
      "type": "function"
    },
    {
      "inputs": [
        {
          "internalType": "string",
          "name": "tokenName_",
          "type": "string"
        },
        {
          "internalType": "address",
          "name": "tokenAddress_",
          "type": "address"
        }
      ],
      "name": "addToken",
      "outputs": [],
      "stateMutability": "nonpayable",
      "type": "function"
    },
    {
      "inputs": [
        {
          "internalType": "address",
          "name": "tokenAddress_",
          "type": "address"
        }
      ],
      "name": "requestTestToken",
      "outputs": [],
      "stateMutability": "nonpayable",
      "type": "function"
    },
    {
      "inputs": [
        {
          "internalType": "address",
          "name": "NFTContractAddress_",
          "type": "address"
        },
        {
          "internalType": "uint256",
          "name": "tokenId_",
          "type": "uint256"
        },
        {
          "internalType": "address",
          "name": "tokenAddress_",
          "type": "address"
        },
        {
          "internalType": "uint256",
          "name": "price_",
          "type": "uint256"
        }
      ],
      "name": "listItem",
      "outputs": [],
      "stateMutability": "nonpayable",
      "type": "function"
    },
    {
      "inputs": [
        {
          "internalType": "string",
          "name": "metadata",
          "type": "string"
        }
      ],
      "name": "mintCleverNFT",
      "outputs": [],
      "stateMutability": "nonpayable",
      "type": "function"
    },
    {
      "inputs": [
        {
          "internalType": "uint256",
          "name": "id",
          "type": "uint256"
        }
      ],
      "name": "unlistItem",
      "outputs": [],
      "stateMutability": "nonpayable",
      "type": "function"
    },
    {
      "inputs": [
        {
          "internalType": "uint256",
          "name": "id",
          "type": "uint256"
        }
      ],
      "name": "buyNFT",
      "outputs": [],
      "stateMutability": "payable",
      "type": "function"
    }
  ],
  "bytecode": "0x60806040526802b5e3af16b1880000600455600580546001600160a01b03199081167372552b64b54c5ade05aad3c95d396a6d6f43c5d2179091556006805490911673bbbb110bc7cae8610e5887bcf25b1103a399918e17905534801561006557600080fd5b5061006f33610096565b600654600780546001600160a01b0319166001600160a01b039092169190911790556100e6565b600080546001600160a01b038381166001600160a01b0319831681178455604051919092169283917f8be0079c531659141344cd1fd0a4f28419497f9722a3daafe3b4186f6b6457e09190a35050565b611874806100f56000396000f3fe6080604052600436106100b85760003560e01c806318e2ed6d146100bd5780633535db22146100e657806351ed8288146101085780635a599da81461011b5780636ef53ce61461013b578063715018a61461015b5780638da5cb5b146101705780639ead722214610192578063b0b22c2c146101c0578063d42003fc146101e0578063d657cb2114610200578063da3a674614610220578063de74e57b14610240578063e4860339146102a1578063f2fde38b146102c1575b600080fd5b3480156100c957600080fd5b506100d360045481565b6040519081526020015b60405180910390f35b3480156100f257600080fd5b506101066101013660046114fd565b6102e1565b005b6101066101163660046115f4565b610625565b34801561012757600080fd5b506101066101363660046115f4565b610937565b34801561014757600080fd5b50610106610156366004611567565b610b12565b34801561016757600080fd5b50610106610c68565b34801561017c57600080fd5b50610185610ca3565b6040516100dd919061166e565b34801561019e57600080fd5b506101b26101ad3660046115f4565b610cb2565b6040516100dd9291906116a6565b3480156101cc57600080fd5b506101066101db3660046115a3565b610d74565b3480156101ec57600080fd5b50600654610185906001600160a01b031681565b34801561020c57600080fd5b50600554610185906001600160a01b031681565b34801561022c57600080fd5b5061010661023b3660046114c3565b610ef8565b34801561024c57600080fd5b5061026061025b3660046115f4565b610f7a565b604080519788526001600160a01b03968716602089015287019490945291151560608601528316608085015290911660a083015260c082015260e0016100dd565b3480156102ad57600080fd5b506101b26102bc3660046114c3565b610fdc565b3480156102cd57600080fd5b506101066102dc3660046114c3565b611009565b6040516001600160601b0319606084901b166020820152600090819060340160405160208183030381529060405251111561031a575060015b6040516331a9108f60e11b8152600481018590526000906001600160a01b03871690636352211e9060240160206040518083038186803b15801561035d57600080fd5b505afa158015610371573d6000803e3d6000fd5b505050506040513d601f19601f8201168201806040525081019061039591906114e0565b9050336001600160a01b038216146103ee5760405162461bcd60e51b8152602060048201526017602482015276165bdd48191bc81b9bdd081bdddb881d1a1a5cc8139195604a1b60448201526064015b60405180910390fd5b6040516323b872dd60e01b81526001600160a01b038716906323b872dd9061041e90339030908a90600401611682565b600060405180830381600087803b15801561043857600080fd5b505af115801561044c573d6000803e3d6000fd5b5050505060006040518060e0016040528060038054905060001461047d5760035461047890600161176c565b610480565b60005b81526001600160a01b039889166020808301919091526040808301999099529415156060808301919091529689166080808301919091523360a08084019190915260c09283019790975260038054600181018255600091909152835160069091027fc2575a0e9e593c00f959f8c92f12db2869c3395a3b0502d05e2516446f71f85b810191909155958301517fc2575a0e9e593c00f959f8c92f12db2869c3395a3b0502d05e2516446f71f85c87018054918c166001600160a01b0319928316179055988301517fc2575a0e9e593c00f959f8c92f12db2869c3395a3b0502d05e2516446f71f85d870155968201517fc2575a0e9e593c00f959f8c92f12db2869c3395a3b0502d05e2516446f71f85e86018054988401518b1661010002610100600160a81b0319921515929092166001600160a81b03199099169890981717909655938401517fc2575a0e9e593c00f959f8c92f12db2869c3395a3b0502d05e2516446f71f85f84018054919098169616959095179095559101517fc2575a0e9e593c00f959f8c92f12db2869c3395a3b0502d05e2516446f71f860909101555050565b60006003828154811061063a5761063a6117fd565b60009182526020918290206040805160e08101825260069093029091018054835260018101546001600160a01b0390811694840194909452600281015491830191909152600381015460ff811615156060840152610100900483166080830152600481015490921660a0820181905260059092015460c082015291506106d25760405162461bcd60e51b81526004016103e590611712565b806060015115610813578060c0015181608001516001600160a01b03166370a08231336040518263ffffffff1660e01b8152600401610711919061166e565b60206040518083038186803b15801561072957600080fd5b505afa15801561073d573d6000803e3d6000fd5b505050506040513d601f19601f82011682018060405250810190610761919061160d565b101561077f5760405162461bcd60e51b81526004016103e59061173e565b608081015160a082015160c08301516040516323b872dd60e01b81526001600160a01b03909316926323b872dd926107bb923392600401611682565b602060405180830381600087803b1580156107d557600080fd5b505af11580156107e9573d6000803e3d6000fd5b505050506040513d601f19601f8201168201806040525081019061080d9190611545565b506108c9565b8060c001513410156108375760405162461bcd60e51b81526004016103e59061173e565b60c081015160405160009133918381818185875af1925050503d806000811461087c576040519150601f19603f3d011682016040523d82523d6000602084013e610881565b606091505b50509050806108c75760405162461bcd60e51b8152602060048201526012602482015271151c985b9cd858dd1a5bdb8811985a5b195960721b60448201526064016103e5565b505b80602001516001600160a01b03166323b872dd303384604001516040518463ffffffff1660e01b815260040161090193929190611682565b600060405180830381600087803b15801561091b57600080fd5b505af115801561092f573d6000803e3d6000fd5b505050505050565b60006003828154811061094c5761094c6117fd565b60009182526020918290206040805160e08101825260069093029091018054835260018101546001600160a01b0390811694840194909452600281015491830191909152600381015460ff811615156060840152610100900483166080830152600481015490921660a0820181905260059092015460c082015291506109e45760405162461bcd60e51b81526004016103e590611712565b60a08101516001600160a01b03163314610a3e5760405162461bcd60e51b815260206004820152601b60248201527a596f7520646f206e6f74206f776e2074686973206c697374696e6760281b60448201526064016103e5565b602081015160a082015160408084015190516323b872dd60e01b81526001600160a01b03909316926323b872dd92610a7a923092600401611682565b600060405180830381600087803b158015610a9457600080fd5b505af1158015610aa8573d6000803e3d6000fd5b5050505060038281548110610abf57610abf6117fd565b6000918252602082206006909102018181556001810180546001600160a01b0319908116909155600282018390556003820180546001600160a81b03191690556004820180549091169055600501555050565b6005546040516370a0823160e01b81526000916001600160a01b0316906370a0823190610b4390339060040161166e565b60206040518083038186803b158015610b5b57600080fd5b505afa158015610b6f573d6000803e3d6000fd5b505050506040513d601f19601f82011682018060405250810190610b93919061160d565b11610be05760405162461bcd60e51b815260206004820152601d60248201527f596f7520646f206e6f74206861766520616e20616363657373204e465400000060448201526064016103e5565b60075460405163d0def52160e01b81526001600160a01b039091169063d0def52190610c1290339085906004016116a6565b602060405180830381600087803b158015610c2c57600080fd5b505af1158015610c40573d6000803e3d6000fd5b505050506040513d601f19601f82011682018060405250810190610c64919061160d565b5050565b33610c71610ca3565b6001600160a01b031614610c975760405162461bcd60e51b81526004016103e5906116dd565b610ca160006110a2565b565b6000546001600160a01b031690565b60028181548110610cc257600080fd5b6000918252602090912060029091020180546001820180546001600160a01b03909216935090610cf1906117c2565b80601f0160208091040260200160405190810160405280929190818152602001828054610d1d906117c2565b8015610d6a5780601f10610d3f57610100808354040283529160200191610d6a565b820191906000526020600020905b815481529060010190602001808311610d4d57829003601f168201915b5050505050905082565b33610d7d610ca3565b6001600160a01b031614610da35760405162461bcd60e51b81526004016103e5906116dd565b6001600160a01b038181166000908152600160205260409020541615610e095760405162461bcd60e51b815260206004820152601b60248201527a4572726f723a20546f6b656e20416c72656164792045786973747360281b60448201526064016103e5565b6040805180820182526001600160a01b0383811680835260208084018781526000928352600180835295909220845181546001600160a01b03191694169390931783559051805193948594610e6593918501929091019061139e565b5050600280546001810182556000829052835191027f405787fa12a823e0f2b7631cc41b3ba8828b3321ca811111fa75cd3aa3bb5ace810180546001600160a01b039093166001600160a01b0319909316929092178255602080850151805186955061092f937f405787fa12a823e0f2b7631cc41b3ba8828b3321ca811111fa75cd3aa3bb5acf0192919091019061139e565b6001600160a01b0381811660009081526001602052604090205416610f5e5760405162461bcd60e51b815260206004820152601c60248201527b4572726f723a20546f6b656e20446f6573204e6f742045786973747360201b60448201526064016103e5565b600454610f77906001600160a01b0383169033906110f2565b50565b60038181548110610f8a57600080fd5b60009182526020909120600690910201805460018201546002830154600384015460048501546005909501549395506001600160a01b0392831694919360ff8216936101009092048216929091169087565b6001602081905260009182526040909120805491810180546001600160a01b0390931692610cf1906117c2565b33611012610ca3565b6001600160a01b0316146110385760405162461bcd60e51b81526004016103e5906116dd565b6001600160a01b03811661109d5760405162461bcd60e51b815260206004820152602660248201527f4f776e61626c653a206e6577206f776e657220697320746865207a65726f206160448201526564647265737360d01b60648201526084016103e5565b610f77815b600080546001600160a01b038381166001600160a01b0319831681178455604051919092169283917f8be0079c531659141344cd1fd0a4f28419497f9722a3daafe3b4186f6b6457e09190a35050565b604080516001600160a01b038416602482015260448082018490528251808303909101815260649091019091526020810180516001600160e01b031663a9059cbb60e01b179052611144908490611149565b505050565b600061119e826040518060400160405280602081526020017f5361666545524332303a206c6f772d6c6576656c2063616c6c206661696c6564815250856001600160a01b031661121b9092919063ffffffff16565b80519091501561114457808060200190518101906111bc9190611545565b6111445760405162461bcd60e51b815260206004820152602a60248201527f5361666545524332303a204552433230206f7065726174696f6e20646964206e6044820152691bdd081cdd58d8d9595960b21b60648201526084016103e5565b606061122a8484600085611234565b90505b9392505050565b6060824710156112955760405162461bcd60e51b815260206004820152602660248201527f416464726573733a20696e73756666696369656e742062616c616e636520666f6044820152651c8818d85b1b60d21b60648201526084016103e5565b6001600160a01b0385163b6112ec5760405162461bcd60e51b815260206004820152601d60248201527f416464726573733a2063616c6c20746f206e6f6e2d636f6e747261637400000060448201526064016103e5565b600080866001600160a01b031685876040516113089190611652565b60006040518083038185875af1925050503d8060008114611345576040519150601f19603f3d011682016040523d82523d6000602084013e61134a565b606091505b509150915061135a828286611365565b979650505050505050565b6060831561137457508161122d565b8251156113845782518084602001fd5b8160405162461bcd60e51b81526004016103e591906116ca565b8280546113aa906117c2565b90600052602060002090601f0160209004810192826113cc5760008555611412565b82601f106113e557805160ff1916838001178555611412565b82800160010185558215611412579182015b828111156114125782518255916020019190600101906113f7565b5061141e929150611422565b5090565b5b8082111561141e5760008155600101611423565b600082601f83011261144857600080fd5b81356001600160401b038082111561146257611462611813565b604051601f8301601f19908116603f0116810190828211818310171561148a5761148a611813565b816040528381528660208588010111156114a357600080fd5b836020870160208301376000602085830101528094505050505092915050565b6000602082840312156114d557600080fd5b813561122d81611829565b6000602082840312156114f257600080fd5b815161122d81611829565b6000806000806080858703121561151357600080fd5b843561151e81611829565b935060208501359250604085013561153581611829565b9396929550929360600135925050565b60006020828403121561155757600080fd5b8151801515811461122d57600080fd5b60006020828403121561157957600080fd5b81356001600160401b0381111561158f57600080fd5b61159b84828501611437565b949350505050565b600080604083850312156115b657600080fd5b82356001600160401b038111156115cc57600080fd5b6115d885828601611437565b92505060208301356115e981611829565b809150509250929050565b60006020828403121561160657600080fd5b5035919050565b60006020828403121561161f57600080fd5b5051919050565b6000815180845261163e816020860160208601611792565b601f01601f19169290920160200192915050565b60008251611664818460208701611792565b9190910192915050565b6001600160a01b0391909116815260200190565b6001600160a01b039384168152919092166020820152604081019190915260600190565b6001600160a01b038316815260406020820181905260009061122a90830184611626565b60208152600061122d6020830184611626565b6020808252818101527f4f776e61626c653a2063616c6c6572206973206e6f7420746865206f776e6572604082015260600190565b602080825260129082015271496420646f6573206e6f742065786973747360701b604082015260600190565b602080825260149082015273496e73756666696369656e742042616c616e636560601b604082015260600190565b6000821982111561178d57634e487b7160e01b600052601160045260246000fd5b500190565b60005b838110156117ad578181015183820152602001611795565b838111156117bc576000848401525b50505050565b600181811c908216806117d657607f821691505b602082108114156117f757634e487b7160e01b600052602260045260246000fd5b50919050565b634e487b7160e01b600052603260045260246000fd5b634e487b7160e01b600052604160045260246000fd5b6001600160a01b0381168114610f7757600080fdfea2646970667358221220c833ea3c8003528754150d5c7b3fbe21f07ead6a9a6b2235bc9b4182d55dbeaf64736f6c63430008070033",
  "immutableReferences": {},
  "source": "//SPDX-License-Identifier: MIT\r\n\r\npragma solidity 0.8.7;\r\n\r\nimport \"@openzeppelin/contracts/access/Ownable.sol\";\r\nimport \"@openzeppelin/contracts/token/ERC20/utils/SafeERC20.sol\";\r\nimport \"./ERC721A.sol\";\r\nimport \"./ICleverNFT.sol\";\r\n\r\ncontract NFTMarketplace is Ownable {\r\n\r\n    using SafeERC20 for IERC20;\r\n\r\n    struct TokenData {\r\n        address tokenAddress;\r\n        string tokenName;\r\n    }\r\n\r\n    struct ListingItem {\r\n        uint256 id;\r\n        address NFTContractAddress;\r\n        uint256 tokenId;\r\n        bool purchaseWithToken;\r\n        address tokenAddress;\r\n        address ownerAddress;\r\n        uint256 price;\r\n    }\r\n\r\n    mapping(address => TokenData) public tokens;\r\n    TokenData[] public tokenList;\r\n    ListingItem[] public listings;\r\n\r\n    uint256 public minimumRequestableTokens = 50 ether;\r\n\r\n    address public accessNFTAddress = 0x72552b64b54C5ADe05aAd3c95D396A6d6F43c5d2;\r\n    address public cleverNFTAddress = 0xbBBb110bc7Cae8610E5887bCf25B1103A399918E;\r\n\r\n    ICleverNFT cleverNFT;\r\n\r\n    constructor() {\r\n\r\n        cleverNFT = ICleverNFT(cleverNFTAddress);\r\n    }\r\n\r\n\r\n    function addToken(string memory tokenName_, address tokenAddress_) public onlyOwner {\r\n        \r\n        require(tokens[tokenAddress_].tokenAddress == address(0x0), \"Error: Token Already Exists\");\r\n\r\n        TokenData memory tokenData_ = TokenData({\r\n            tokenAddress: tokenAddress_,\r\n            tokenName: tokenName_\r\n        });\r\n\r\n        tokens[tokenAddress_] = tokenData_;\r\n\r\n        tokenList.push(tokenData_);\r\n    }\r\n\r\n    function requestTestToken(address tokenAddress_) public {\r\n\r\n        require(tokens[tokenAddress_].tokenAddress != address(0x0), \"Error: Token Does Not Exists\");\r\n\r\n        IERC20(tokenAddress_).safeTransfer(msg.sender, minimumRequestableTokens);\r\n    }\r\n\r\n    function listItem(address NFTContractAddress_, uint256 tokenId_, address tokenAddress_, uint256 price_) public {\r\n\r\n        bool purchaseWithToken_ = false;\r\n\r\n        if(bytes(abi.encodePacked(tokenAddress_)).length > 0) {\r\n            purchaseWithToken_ = true;\r\n        }\r\n\r\n        address NFTAddressHolder = ERC721A(NFTContractAddress_).ownerOf(tokenId_);\r\n\r\n        require(msg.sender == NFTAddressHolder, \"You do not own this NFT\");\r\n\r\n        ERC721A(NFTContractAddress_).transferFrom(msg.sender, address(this), tokenId_);\r\n\r\n        ListingItem memory listing = ListingItem({\r\n            id: listings.length == 0 ? 0 : listings.length + 1,\r\n            NFTContractAddress: NFTContractAddress_,\r\n            tokenId: tokenId_,\r\n            purchaseWithToken: purchaseWithToken_,\r\n            tokenAddress: tokenAddress_,\r\n            price: price_,\r\n            ownerAddress: msg.sender\r\n        });\r\n\r\n        listings.push(listing);\r\n    }\r\n\r\n    function mintCleverNFT(string memory metadata) public onlyAccessNFT {\r\n\r\n        cleverNFT.mint(msg.sender, metadata);\r\n    }\r\n\r\n    function unlistItem(uint256 id) public {\r\n\r\n        ListingItem memory listing = listings[id];\r\n\r\n        require(listing.ownerAddress != address(0x0), \"Id does not exists\");\r\n        require(listing.ownerAddress == msg.sender, \"You do not own this listing\");\r\n\r\n        ERC721A(listing.NFTContractAddress).transferFrom(address(this), listing.ownerAddress, listing.tokenId);\r\n\r\n        delete listings[id];\r\n    }\r\n\r\n    function buyNFT(uint256 id) public payable {\r\n        \r\n        ListingItem memory listing = listings[id];\r\n\r\n        require(listing.ownerAddress != address(0x0), \"Id does not exists\");\r\n\r\n        if(listing.purchaseWithToken) {\r\n\r\n            require(IERC20(listing.tokenAddress).balanceOf(msg.sender) >= listing.price, \"Insufficient Balance\");\r\n            \r\n            IERC20(listing.tokenAddress).transferFrom(msg.sender, listing.ownerAddress, listing.price);\r\n            \r\n\r\n        } else {\r\n\r\n            require(msg.value >= listing.price, \"Insufficient Balance\");\r\n\r\n            (bool os, ) = payable(msg.sender).call{value: listing.price}(\"\");\r\n\r\n            require(os, \"Transaction Failed\");\r\n        }\r\n\r\n        ERC721A(listing.NFTContractAddress).transferFrom(address(this), msg.sender, listing.tokenId);\r\n    }\r\n\r\n    function compareStrings(string memory a, string memory b) internal pure returns (bool) {\r\n\r\n        return (keccak256(abi.encodePacked((a))) == keccak256(abi.encodePacked((b)))); \r\n    }\r\n\r\n    modifier onlyAccessNFT() {\r\n\r\n        require(ERC721A(accessNFTAddress).balanceOf(msg.sender) > 0, \"You do not have an access NFT\");\r\n        _;\r\n    }\r\n}\r\n\r\n//TUSDT - 0x8FAd5ebA62540D21f2837DCfEd8956de702740f9\r\n//TUSDC - 0x8a4D1E8bcD452b02cFfdb8e480343EDaCb88C144\r\n//ACCESS NFT - 0x72552b64b54C5ADe05aAd3c95D396A6d6F43c5d2\r\n//CLEVER NFT - 0xbBBb110bc7Cae8610E5887bCf25B1103A399918E",
  "sourcePath": "C:\\Users\\Favou\\Documents\\Workspace\\Clever Programmer\\contracts\\NFTMarketplace.sol",
  "compiler": {
    "name": "solc",
    "version": "0.8.7+commit.e28d00a7.Emscripten.clang"
  },
  "schemaVersion": "3.4.4",
  "updatedAt": "2022-05-02T10:47:46.975Z",
  "devdoc": {
    "kind": "dev",
    "methods": {
      "owner()": {
        "details": "Returns the address of the current owner."
      },
      "renounceOwnership()": {
        "details": "Leaves the contract without owner. It will not be possible to call `onlyOwner` functions anymore. Can only be called by the current owner. NOTE: Renouncing ownership will leave the contract without an owner, thereby removing any functionality that is only available to the owner."
      },
      "transferOwnership(address)": {
        "details": "Transfers ownership of the contract to a new account (`newOwner`). Can only be called by the current owner."
      }
    },
    "version": 1
  },
  "userdoc": {
    "kind": "user",
    "methods": {},
    "version": 1
  }
}